:1000000018C1000047C1000045C1000043C1000005
:1000100041C100003FC100003DC100003BC10000E4
:1000200039C1000037C1000035C1000033C10000F4
:1000300031C100002FC100002DC100002BC1000004
:1000400029C100000C94AF1C25C1000023C1000091
:1000500021C100001FC100001DC100000C946220DE
:1000600019C100000C9464280C94942813C100005A
:1000700011C100000FC100000DC100000BC1000044
:100080000C94E31C07C1000005C1000003C100007F
:100090000C940B290C943B29FDC000000C9405190D
:1000A000F9C00000F7C000000C94171DF3C0000059
:1000B000F1C00000EFC00000EDC000000C944B1D2B
:1000C000E9C00000E7C00000E5C000000C94B229C0
:1000D0000C94E229DFC000000C94592A0C94892A60
:1000E000D9C00000036EDB363D9A9999993DABAAC1
:1000F000AA2A3E000000803F072C7AA5BA6CC59062
:10010000DA3B9365FC8BBC53F810FD3C5692834D53
:10011000BD879D3AB63DCBC9BF5BBE73DA0FC93F01
:1001200000002100240027002A002D0030003300A9
:1001300001010000040107010A010000220025005E
:1001400028002B002E0031003400020100000501C0
:1001500008010B0105050505070508080808020246
:1001600002020A0A08080404040401010101010151
:1001700001010303030303030303040707070C0C34
:100180000C0C0C0C0C0C02020202060606060606FB
:1001900006060B0B0B0B0B0B0B0B010210202008A0
:1001A00008102040102040800201020108040201D2
:1001B0000102040810204080804020100804020141
:1001C000800402018040201008040201080402019A
:1001D0000102040810204080010204081020408021
:1001E00000000A0B02090C0D0E08070304010000B1
:1001F00000000000000000000000000000000000FF
:1002000000000000000000000000000012111000BB
:1002100000000000000000000000000000000000DE
:1002200000000000000099041F14FF28A6294D2A91
:10023000F62A11241FBECFEFD1E2DEBFCDBF00E012
:100240000CBF12E0A0E0B2E0ECE8F8E500E00BBF84
:1002500002C007900D92AC34B107D9F726E0ACE4A8
:10026000B2E001C01D92A037B207E1F711E0C9E189
:10027000D1E000E006C021970109802FFE010E9415
:100280000F2CC331D10780E00807A9F70E94680D41
:100290000C94442CB5CECF93DF9300D000D0CDB7D3
:1002A000DEB769837A838B839C835E834D838981E8
:1002B0009A81AB81BC81892B8A2B8B2B21F589817B
:1002C0009A81880F991F880F991F80509E4FFC01BB
:1002D00080818823C1F489819A81880F991F880FB2
:1002E000991F8E5F9D4FFC01808191810E947D113D
:1002F00089819A81880F991F880F991F80509E4F7E
:1003000021E0FC01208389819A81880F991F880F41
:10031000991F80509E4F26960FB6F894DEBF0FBEF1
:10032000CDBFDF91CF910895CF93DF9300D000D060
:10033000CDB7DEB79A8389834B835C836D837E83DD
:1003400089819A81892BF9F089819A81FC018181C7
:10035000882341F480EA96E8A1E0B0E08B839C8397
:10036000AD83BE8389819A81FC01228133818B8197
:100370009C81AD81BE81AC01BD01C9010E949A1171
:1003800080E090E002C088E090E026960FB6F894F6
:10039000DEBF0FBECDBFDF91CF910895CF92EF9218
:1003A0000F931F93CF93DF93CDB7DEB762970FB64E
:1003B000F894DEBF0FBECDBF98878F837A87698799
:1003C0005C874B870D871E872F87388BE98ACA8AFF
:1003D0008F819885892B09F49DC08F819885FC01B8
:1003E000828193813D852985432F622F0E9451127E
:1003F00019821A821B821C828F819885FC0142819E
:1004000053818F819885FC0182819381FC018081D9
:1004100091810896FC0120813181CA01F901199569
:1004200021E0892B09F420E0222309F465C08F81A3
:100430009885FC01428153818F819885FC018281DE
:100440009381FC01808191810896FC01208131819A
:10045000CA01F9011995892B79F029813A814B81DB
:100460005C818D859E85AF85B889281739074A0735
:100470005B0710F481E001C080E0882309F447C0E5
:100480008F819885FC01428153818F819885FC0181
:1004900082819381FC01808191810A96FC012081F7
:1004A0003181CA01F90119959E838D838D819E81C9
:1004B000019659F48B859C8544E050E060E070E043
:1004C0000E943D2C88E090E027C089819A81AB8111
:1004D000BC819C01AD012F5F3F4F4F4F5F4F298380
:1004E0003A834B835C839C018B859C85820F931F91
:1004F0002D81FC0120839BCF8B859C8544E050E0BF
:1005000060E070E00E943D2C88E090E005C080E053
:1005100090E002C088E090E062960FB6F894DEBFEB
:100520000FBECDBFDF91CF911F910F91EF90CF9074
:100530000895CF92EF920F931F93CF93DF93CDB790
:10054000DEB72D970FB6F894DEBF0FBECDBF9B83ED
:100550008A837D836C835F834E83088719872A870C
:100560003B87EC86CD868A819B81892B09F44FC01D
:1005700019828A819B81DC0112968D919C912C813C
:10058000622F0E9468128A819B81DC011296ED9194
:10059000FC918A819B81DC0112968D919C91DC01FA
:1005A0008D919C910296DC012D913C914885598555
:1005B0008E819F81BC01CF01F90119958C8588231B
:1005C00059F08A819B81DC0112968D919C9160E0AB
:1005D0000E948112898309C08A819B81FC018281EA
:1005E000938161E00E94811289838981882319F4B3
:1005F00080E090E00EC08981823019F089818330DB
:1006000019F484E090E005C088E090E002C088E042
:1006100090E02D960FB6F894DEBF0FBECDBFDF91F0
:10062000CF911F910F91EF90CF900895CF93DF93CB
:100630001F921F92CDB7DEB79A83898300000F9077
:100640000F90DF91CF910895CF93DF9300D000D02A
:1006500000D01F92CDB7DEB79C838B834D835E8322
:100660006F8378873A87298710924D0210924C0247
:1006700089859A859A8389838B819C8181309105B4
:1006800061F1823091051CF4892B49F086C08230DB
:10069000910509F440C0039709F45AC07EC08091C7
:1006A0004C0290914D0281709927892B09F06EC000
:1006B00080914C0290914D02816090934D02809305
:1006C0004C0229818D819E81AF81B885AC01BD012D
:1006D0008CEC93E00E94EF2460C080914C029091DA
:1006E0004D0282709927892B09F052C080914C02EB
:1006F00090914D02826090934D0280934C0229812B
:100700008D819E81AF81B885AC01BD0189E694E001
:100710000E94EF2442C080914C0290914D0284705F
:100720009927892BB9F580914C0290914D028460F4
:1007300090934D0280934C0229818D819E81AF81DF
:10074000B885AC01BD0186E095E00E94EF2425C08C
:1007500080914C0290914D0288709927892BE1F489
:1007600080914C0290914D02886090934D0280934D
:100770004C0229818D819E81AF81B885AC01BD017C
:1007800083EA95E00E94EF24000007C0000005C046
:10079000000003C0000001C000002A960FB6F894C4
:1007A000DEBF0FBECDBFDF91CF910895EF92FF92D4
:1007B0000F931F93CF93DF9300D000D01F921F920F
:1007C000CDB7DEB76D837E838F83988719821A82B7
:1007D0001B821C820E94D320DC01CB0189839A8377
:1007E000AB83BC830E94D3209B01AC0189819A8199
:1007F000AB81BC8179018A01E81AF90A0A0B1B0B4B
:10080000D801C70161E02D813E814F8158852817AD
:1008100039074A075B0708F460E0662309F0E2CF76
:10082000000028960FB6F894DEBF0FBECDBFDF9153
:10083000CF911F910F91FF90EF900895CF93DF9389
:10084000CDB7DEB70E94D320DC01CB01BC01CD01C6
:10085000DF91CF910895CF93DF931F921F92CDB771
:10086000DEB789836A838981282F30E0C901880F28
:10087000991F820F931F825B9D4F2A81222F30E0A8
:10088000B9010E94701E00000F900F90DF91CF9170
:100890000895CF93DF931F921F92CDB7DEB7898360
:1008A0006A838981282F30E0C901880F991F820F40
:1008B000931F825B9D4F2A81222F30E0B9010E9455
:1008C0001C1F00000F900F90DF91CF910895EF92C1
:1008D000FF920F931F93CF93DF9300D01F92CDB75A
:1008E000DEB79A8389837C836B8389819A810197A0
:1008F000A1F48B819C81019681F48EE492E002E068
:1009000010E07C0111234CF0C7010E943C1E83E0E3
:10091000E80EF11C01501109F5CF00000F900F9067
:100920000F900F90DF91CF911F910F91FF90EF905B
:100930000895CF93DF93CDB7DEB76FEF7FEF81E000
:1009400090E0C5DFDF91CF910895CF93DF9300D082
:1009500000D0CDB7DEB79E838D838D819E81FC0153
:10096000138E8D819E81FC01158E8D819E81FC01EF
:1009700011821282138214822D813E8180E090E0E8
:10098000A0E8BFEBF90186839783A087B1878D81AB
:100990009E81FC0112868D819E819A8389838D813F
:1009A0009E810B969C838B832D813E8180E090E518
:1009B000A3ECB8E4F901868B978BA08FB18F8D8162
:1009C0009E81FC0114861586168617868B819C8174
:1009D000FC01168215828D819E81FC0113868D811A
:1009E0009E81FC01108289819A8126960FB6F89427
:1009F000DEBF0FBECDBFDF91CF910895CF92EF92B2
:100A00000F931F93CF93DF93CDB7DEB765970FB6E4
:100A1000F894DEBF0FBECDBF9D8B8C8B8C899D89DA
:100A2000FC0115822C893D8981E090E0A0E0B0E0D6
:100A3000F90181839283A383B4838C899D8921E00A
:100A4000FC01248F8C899D890B969A8389831C8253
:100A50001B821D821E821F8218862B813C818D8104
:100A60009E81AF81B885A901BC01CD0114DC9C0138
:100A70008C899D89FC01318B208B2C893D8980EAF2
:100A800096E8A1E0B0E0F901828B938BA48BB58B43
:100A90008C899D89FC0182899389A489B58989877C
:100AA0009A87AB87BC8789819A81FC012581368131
:100AB00089859A85AB85BC85AC01BD01C90134DC53
:100AC00080E88A8B8A89888B8BE68F879E01215FDD
:100AD0003F4FCE010D9642E050E0B9010E94342C08
:100AE0008C899D89FC0180899189AE01435F5F4FAC
:100AF000C12CE12C02E010E020E030E068E670E07C
:100B000018DD8B8B8B898823B9F08C899D89FC013A
:100B1000848D882331F08C899D8921E0FC01258F0B
:100B20000BC08C899D89FC01838D882329F42B8936
:100B30008C899D89FC01238F61E070E080E090E06A
:100B400035DE1A8A8A89888B8BE68F879E01215F22
:100B50003F4FCE010D9642E050E0B9010E94342C87
:100B60008C899D89FC0180899189AE01435F5F4F2B
:100B7000C12CE12C02E010E020E030E068E670E0FB
:100B8000D8DC8B8B8B898823B9F08C899D89FC01FB
:100B9000848D882331F08C899D8921E0FC01258F8B
:100BA0000BC08C899D89FC01838D882329F42B89B6
:100BB0008C899D89FC01238F64E670E080E090E0E1
:100BC000F5DD85E78B8B8B89898B8C899D89FC0171
:100BD00080899189AE014F5E5F4FC12CEE24E39472
:100BE00001E010E020E030E068E670E0A2DC8B8BF2
:100BF0008B898823A9F48C899D89FC01808991893E
:100C0000AE014F5E5F4FCC24C394E12C01E010E0B5
:100C100020E030E068E670E0C1DB89898A8B01C0A2
:100C20001A8A8B898823B9F08C899D89FC01848D6F
:100C3000882331F08C899D8921E0FC01258F0BC030
:100C40008C899D89FC01838D882329F42B898C89CB
:100C50009D89FC01238F9A8981E0983609F080E014
:100C6000282F8C899D89FC01228F8C899D89FC010C
:100C7000828D882309F4D2C11A8A8A89888B89E1F6
:100C80008F879E01215F3F4FCE010D9642E050E0DD
:100C9000B9010E94342C8C899D89FC01808991893D
:100CA000AE01435F5F4FC12CE12C02E010E020E079
:100CB00030E068E670E03DDC8B8B8B898823B9F0EF
:100CC0008C899D89FC01848D882331F08C899D89D4
:100CD00021E0FC01258F0BC08C899D89FC01838D4F
:100CE000882329F42B898C899D89FC01238F8CE131
:100CF0008B8B8B89898B8C899D89FC01808991895B
:100D0000AE014F5E5F4FC12CEE24E39401E010E092
:100D100020E030E068E670E00CDC8B8B8B89882368
:100D2000A9F48C899D89FC0180899189AE014F5E6F
:100D30005F4FCC24C394E12C01E010E020E030E0D0
:100D400068E670E02BDB89898A8B01C01A8A8B895F
:100D50008823B9F08C899D89FC01848D882331F02A
:100D60008C899D8921E0FC01258F0BC08C899D8990
:100D7000FC01838D882329F42B898C899D89FC01B2
:100D8000238F8A89877E8A8B8A89888B8CE18F87DB
:100D90009E01215F3F4FCE010D9642E050E0B90128
:100DA0000E94342C8C899D89FC0180899189AE0137
:100DB000435F5F4FC12CE12C02E010E020E030E007
:100DC00068E670E0B6DB8B8B8B898823B9F08C8961
:100DD0009D89FC01848D882331F08C899D8921E0D7
:100DE000FC01258F0BC08C899D89FC01838D882394
:100DF00029F42B898C899D89FC01238F8BE18B8BB6
:100E00008B89898B8C899D89FC0180899189AE01B0
:100E10004F5E5F4FC12CEE24E39401E010E020E030
:100E200030E068E670E085DB8B8B8B898823A9F442
:100E30008C899D89FC0180899189AE014F5E5F4F4D
:100E4000CC24C394E12C01E010E020E030E068E61F
:100E500070E0A4DA89898A8B01C01A8A8B89882379
:100E6000B9F08C899D89FC01848D882331F08C89AF
:100E70009D8921E0FC01258F0BC08C899D89FC0197
:100E8000838D882329F42B898C899D89FC01238FEC
:100E90008A89877E8A8B8A89888B8BE18F879E01DE
:100EA000215F3F4FCE010D9642E050E0B9010E9414
:100EB000342C8C899D89FC0180899189AE01435F26
:100EC0005F4FC12CE12C02E010E020E030E068E64A
:100ED00070E02FDB8B8B8B898823B9F08C899D89FF
:100EE000FC01848D882331F08C899D8921E0FC01EF
:100EF000258F0BC08C899D89FC01838D882329F463
:100F00002B898C899D89FC01238F8AE18B8B8B89AE
:100F1000898B8C899D89FC0180899189AE014F5E06
:100F20005F4FC12CEE24E39401E010E020E030E0BC
:100F300068E670E0FEDA8B8B8B898823A9F48C89B4
:100F40009D89FC0180899189AE014F5E5F4FCC2461
:100F5000C394E12C01E010E020E030E068E670E0AE
:100F60001DDA89898A8B01C01A8A8B898823B9F096
:100F70008C899D89FC01848D882331F08C899D8921
:100F800021E0FC01258F0BC08C899D89FC01838D9C
:100F9000882329F42B898C899D89FC01238F8A89D8
:100FA000887F81608A8B8A89888B8AE18F879E01FE
:100FB000215F3F4FCE010D9642E050E0B9010E9403
:100FC000342C8C899D89FC0180899189AE01435F15
:100FD0005F4FC12CE12C02E010E020E030E068E639
:100FE00070E0A7DA8B8B8B898823E9F08C899D8947
:100FF000FC01848D882331F08C899D8921E0FC01DE
:10100000258F11C08C899D89FC01838D882359F41B
:101010002B898C899D89FC01238F05C08C899D8932
:1010200021E0FC01258F8C899D89FC01148E8C891F
:101030009D8921E0FC012583000065960FB6F89498
:10104000DEBF0FBECDBFDF91CF911F910F91EF900B
:10105000CF900895CF93DF9300D000D01F921F92BE
:10106000CDB7DEB76D837E838F8398878D819E8118
:10107000AF81B885BF7720E030E040E859E5BC019A
:10108000CD0112D688230CF04FC020E030E040E0C4
:101090005FE36D817E818F819885F4D78823ACF0E2
:1010A00020E030E040E05FE36D817E818F819885B4
:1010B0006DD5DC01CB01BC01CD01CBD6DC01CB0170
:1010C00089839A83AB83BC8337C020E030E040E063
:1010D0005FEB6D817E818F819885D4D718167CF463
:1010E00020E030E0A9016D817E818F819885CED787
:1010F000DC01CB0189839A83AB83BC831DC020E0D4
:1011000030E040E05FE36D817E818F8198853DD541
:10111000DC01CB01BC01CD01B4D5DC01CB0189835D
:101120009A83AB83BC8308C08D819E81AF81B885D3
:1011300089839A83AB83BC8389819A81AB81BC818B
:10114000BC01CD0128960FB6F894DEBF0FBECDBF0F
:10115000DF91CF910895CF92DF92EF92FF920F939C
:101160001F93CF93DF93CDB7DEB7A2970FB6F89456
:10117000DEBF0FBECDBF8091460690914706A0917D
:101180004806B09149062091040230910502409131
:10119000060250910702BC01CD0186D5882381F05B
:1011A0008091040290910502A0910602B09107027D
:1011B0008093460690934706A0934806B09349064D
:1011C00080914A06882321F439DB81E080934A0626
:1011D00010925B068BE496E0988B8F878BE38AA353
:1011E0008AA189A38F859889FC0185819681AE01AA
:1011F0004F5D5F4FC12CEE24E39401E010E020E04E
:1012000030E068E670E095D98AA38AA18823E9F4E2
:101210008F859889FC0185819681AE01495E5F4F7B
:10122000CC24C394E12C06E010E020E030E068E636
:1012300070E0B4D89E01295E3F4FCE01419646E052
:1012400050E0B9010E94342C15C01E861D860EC0C8
:101250009E012F5E3F4F8D859E85820F931FFC015F
:1012600010828D859E8501969E878D878D859E85B2
:10127000069774F38AA1882379F080915C0688230D
:1012800021F081E080935D0607C080915B06882392
:1012900019F48AA180935B0680915D06882329F06A
:1012A00019821A821B821C8229C08B89882F90E0A8
:1012B000382F22278C89882F90E0822B932B092EA0
:1012C000000CAA0BBB0BBC01CD0188D5DC01CB0106
:1012D0002AE038EE4CE151E4BC01CD01D7D6DC0167
:1012E000CB0120E030E040E856E4BC01CD01E0D481
:1012F000DC01CB0189839A83AB83BC838BE496E0CA
:10130000988B8F8783E48AA38AA189A38F85988984
:10131000FC0185819681AE014F5D5F4FC12CEE24AB
:10132000E39401E010E020E030E068E670E001D9ED
:101330008AA38AA18823E9F48F859889FC01858195
:101340009681AE01495E5F4FCC24C394E12C06E048
:1013500010E020E030E068E670E020D89E01295ED1
:101360003F4FCE01419646E050E0B9010E94342C37
:1013700015C01E861D860EC09E012F5E3F4F8D85B7
:101380009E85820F931FFC0110828D859E8501969C
:101390009E878D878D859E85069774F38AA1882305
:1013A00079F080915C06882321F081E080935D06CE
:1013B00007C080915B06882319F48AA180935B069D
:1013C00080915D06882329F019861A861B861C8663
:1013D00020C08989882F90E0382F22278A89882F7A
:1013E00090E0822B932B092E000CAA0BBB0BBC01A7
:1013F000CD01F4D4DC01CB0120E030E04AEF5BE327
:10140000BC01CD0143D6DC01CB0189879A87AB872C
:10141000BC8780915D06882329F01D821E821F8271
:10142000188620C08D89882F90E0382F22278E893A
:10143000882F90E0822B932B092E000CAA0BBB0B5C
:10144000BC01CD01CBD4DC01CB0120E030E04AEF80
:101450005BE3BC01CD011AD6DC01CB018D839E83F9
:10146000AF83B8878BE496E0988B8F8781E48AA35B
:101470008AA189A38F859889FC0185819681AE0117
:101480004F5D5F4FC12CEE24E39401E010E020E0BB
:1014900030E068E670E04DD88AA38AA18823E9F499
:1014A0008F859889FC0185819681AE01415E5F4FF1
:1014B000CC24C394E12C02E010E020E030E068E6A8
:1014C00070E00E94CE019E01215E3F4FCE014D96FD
:1014D00042E050E0B9010E94342C8AA1882379F0BF
:1014E00080915C06882321F081E080935D0607C02F
:1014F00080915B06882319F48AA180935B06298575
:101500003A854B855C8569857A858B859C85BED5BA
:10151000DC01CB012AE037ED43E25CE3BC01CD0105
:10152000B5D5DC01CB019C01AD0169817A818B814C
:101530009C812BD3DC01CB0125ED37EE4CE151E44E
:10154000BC01CD01B5D3DC01CB01BC01CD0182D3FF
:10155000DC01CB0121EE3EE245E652E4BC01CD01C7
:1015600095D5DC01CB0124EA30E74DE050ECBC011D
:10157000CD018CD5DC01CB016C017D0123EC35EF75
:1015800048E350EC6D817E818F8198857FD5DC01A9
:10159000CB019C01AD01C701B601F8D2DC01CB0142
:1015A00089879A87AB87BC8789859A85AB85BC85F7
:1015B000BF7789839A83AB83BC8320E030E040E728
:1015C00051E469817A818B819C815CD51816C4F4C1
:1015D00029853A854B855C8569817A818B819C81DF
:1015E00067D3DC01CB0120E030E040E751E4BC01EF
:1015F000CD014CD5DC01CB0189879A87AB87BC87AD
:1016000020E030E044EB52E469857A858B859C8547
:10161000BDD2DC01CB0120E030E044E353E4BC0167
:10162000CD0146D3DC01CB0189879A87AB87BC8784
:1016300020E030E0A90169857A858B859C8534D3CB
:10164000882314F41AA231C020E030E044E353E4CC
:1016500069857A858B859C8515D518161CF484EBD5
:101660008AA323C089859A85AB85BC85BC01CD0141
:10167000F1DCDC01CB0189839A83AB83BC8320E05E
:1016800030E040E853E469817A818B819C810CD3FE
:1016900088234CF469817A818B819C8171D3DC0130
:1016A000CB018AA302C08FEF8AA38AA1682F80E0B2
:1016B000F0D820E030E0A90169857A858B859C858A
:1016C000F3D2882314F41AA231C020E030E044E3BE
:1016D00053E469857A858B859C85D4D418161CF4CF
:1016E00084EB8AA323C089859A85AB85BC85BC0120
:1016F000CD01B0DCDC01CB0189839A83AB83BC8351
:1017000020E030E040E853E469817A818B819C815C
:10171000CBD288234CF469817A818B819C8130D330
:10172000DC01CB018AA302C08FEF8AA38AA1682FB4
:1017300081E0AFD820E030E0A90169857A858B850A
:101740009C85B2D2882314F41AA231C020E030E084
:1017500044E353E469857A858B859C8593D4181678
:101760001CF484EB8AA323C089859A85AB85BC854C
:10177000BC01CD016FDCDC01CB0189839A83AB8393
:10178000BC8320E030E040E853E469817A818B81BA
:101790009C818AD288234CF469817A818B819C81D7
:1017A000EFD2DC01CB018AA302C08FEF8AA38AA10A
:1017B000682F82E06ED80000A2960FB6F894DEBFC4
:1017C0000FBECDBFDF91CF911F910F91FF90EF9092
:1017D000DF90CF900895CF93DF93CDB7DEB787E545
:1017E00092E0FC01118210824EE250E060E070E075
:1017F00080E496E00E943D2C81E080934B0681E0DE
:101800008093400680E496E0A0D881E080936D0646
:101810008091040290910502A0910602B091070206
:101820008093460690934706A0934806B0934906D6
:1018300080E496E0E3D881E080936C0681E090E05C
:10184000A0E0B0E08093660690936706A0936806D8
:10185000B09369066AE080E00E942B0481E08093E7
:101860006B0681E090E0A0E0B0E080936206909388
:101870006306A0936406B093650669E081E00E9468
:101880002B0481E080936A0681E090E0A0E0B0E064
:1018900080935E0690935F06A0936006B093610606
:1018A00068E082E00E942B040000DF91CF91089550
:1018B000CF93DF931F921F92CDB7DEB78091400682
:1018C0008823F1F481E08093400680914106909155
:1018D0004206A0914306B09144060197A105B105C7
:1018E00079F480914506882359F08BE496E09A8339
:1018F000898389819A81FC01858196810E941603E2
:101900008BE496E09A83898389819A81FC018081A6
:101910008823D9F489819A8121E0FC01208389817F
:101920009A81FC0181819281A381B4810197A105F3
:10193000B10559F429813A8182E090E0A0E0B0E05D
:10194000F90181839283A383B48300000F900F90E9
:10195000DF91CF910895CF93DF93CDB7DEB726E027
:1019600030E040E855E260E070E080E090E00E9406
:1019700024030000DF91CF910895CF93DF93CDB77B
:10198000DEB70000DF91CF910895EF92FF920F93A1
:101990001F93CF93DF9300D01F921F92CDB7DEB776
:1019A00019820E94FF20DC01CB0180935D0290939D
:1019B0005E02A0935F02B093600220915D023091BD
:1019C0005E0240915F0250916002809159029091B5
:1019D0005A02A0915B02B0915C0279018A01E81A77
:1019E000F90A0A0B1B0BD801C70180349D40A340A4
:1019F000B10508F43DC080915D0290915E02A09116
:101A00005F02B09160028093590290935A02A093B2
:101A10005B02B0935C023BD00E94FF20DC01CB0153
:101A20008A839B83AC83BD838091590290915A0233
:101A3000A0915B02B0915C022A813B814C815D8167
:101A400079018A01E81AF90A0A0B1B0BD801C701B0
:101A500080349D40A340B10538F081E090E0909340
:101A600062028093610204C01092620210926102CD
:101A700081E0898389810F900F900F900F900F90D4
:101A8000DF91CF911F910F91FF90EF900895CF9329
:101A9000DF93CDB7DEB78091630291E0980F90930A
:101AA0006302882361F081E090E09093620280936A
:101AB00061028091630281508093630206C04BDB18
:101AC00080916302815080936302DF91CF910895EA
:101AD000CF93DF9300D000D01F921F92CDB7DEB717
:101AE0008DEC9CECACE4BEE389839A83AB83BC832E
:101AF0001D821E821F82188610926F0610926E063B
:101B00000E945D2128DF8091080290910902FC016A
:101B10001182108260DEF89430DF8091080290918B
:101B20000902FC018081918121E0892B09F020E0EC
:101B3000822F80936E06789417C08091080290914E
:101B40000902FC018081918121E0892B09F420E0C8
:101B5000822F80936F0690916F0681E0992309F0A0
:101B600080E080936E0611DF80916E06882329F74E
:101B70009FDEF89480E090E028960FB6F894DEBFE0
:101B80000FBECDBFDF91CF9108955058BB27AA2734
:101B90000ED027C218D230F01DD220F031F49F3F72
:101BA00011F41EF4D7C10EF4E095E7FBA4C1E92FB0
:101BB00029D280F3BA17620773078407950718F0D4
:101BC00071F49EF558C20EF4E0950B2EBA2FA02D9D
:101BD0000B01B90190010C01CA01A0011124FF27DA
:101BE000591B99F0593F50F4503E68F11A16F040D5
:101BF000A22F232F342F4427585FF3CF46953795D4
:101C00002795A795F0405395C9F77EF41F16BA0B98
:101C1000620B730B840BBAF09150A1F0FF0FBB1F46
:101C2000661F771F881FC2F70EC0BA0F621F731F8F
:101C3000841F48F4879577956795B795F7959E3FEC
:101C400008F0B3CF9395880F08F09927EE0F97957A
:101C5000879508959F939F77EEE389379E0720F439
:101C6000E4EEF0E09FD109C007D19058A2EA2AED36
:101C70003FE049EC5FE39BDFB4D10F9007FC905845
:101C80000895E2D180F09F3740F491110EF4F4C131
:101C900060E070E080E89FE3089526F01B16611D68
:101CA000711D811D2EC148C102D108F481E0089543
:101CB0000CD097C18FD140F086D130F021F45F3F36
:101CC00019F019C15111D8C145C19CD198F399237C
:101CD000C9F35523B1F3951B550BBB27AA276217F0
:101CE0007307840738F09F5F5F4F220F331F441F35
:101CF000AA1FA9F333D00E2E3AF0E0E830D091506D
:101D00005040E695001CCAF729D0FE2F27D0660F59
:101D1000771F881FBB1F261737074807AB07B0E898
:101D200009F0BB0B802DBF01FF2793585F4F2AF0AE
:101D30009E3F510568F0DFC09FC15F3FECF3983EC6
:101D4000DCF3869577956795B795F7959F5FC9F70B
:101D5000880F911D9695879597F90895E1E0660F94
:101D6000771F881FBB1F621773078407BA0720F00D
:101D7000621B730B840BBA0BEE1F88F7E095089576
:101D800049D188F09F5790F0B92F9927B751A0F00B
:101D9000D1F0660F771F881F991F1AF0BA95C9F7FF
:101DA00012C0B13081F067D1B1E0089564C1672FEE
:101DB000782F8827B85F39F0B93FCCF386957795AF
:101DC0006795B395D9F73EF4909580957095619598
:101DD0007F4F8F4F9F4F0895E89409C097FB3EF4C3
:101DE00090958095709561957F4F8F4F9F4F992368
:101DF000A9F0F92F96E9BB279395F69587957795E6
:101E00006795B795F111F8CFFAF4BB0F11F460FFA5
:101E10001BC06F5F7F4F8F4F9F4F16C0882311F0FD
:101E200096E911C0772321F09EE8872F762F05C011
:101E3000662371F096E8862F70E060E02AF09A95AC
:101E4000660F771F881FDAF7880F9695879597F9A1
:101E50000895FAD080F09F3740F491110EF00CC134
:101E600060E070E080E89FEB089526F41B16611D8A
:101E7000711D811D46C060C0DF93CF931F930F93E8
:101E80008B01EC01E8EFF0E068D0ABD09801AE0137
:101E90008B01EC0160E070E080E89FE376DE5DD1CD
:101EA0009801AE010F911F91CF91DF91FBC0990F67
:101EB0000008550FAA0BE0E8FEEF16161706E80714
:101EC000F907C0F012161306E407F50798F0621B35
:101ED000730B840B950B39F40A2661F0232B242B0A
:101EE000252B21F408950A2609F4A140A6958FEF29
:101EF000811D811D089597F99F6780E870E060E07B
:101F00000895882371F4772321F09850872B762F3A
:101F100007C0662311F499270DC09051862B70E0FD
:101F200060E02AF09A95660F771F881FDAF7880F0E
:101F30009695879597F908959F3F31F0915020F439
:101F4000879577956795B795880F911D9695879595
:101F500097F908959FEF80EC0895DF93CF931F9337
:101F60000F93FF92EF92DF927B018C01689405C082
:101F7000DA2EEF0197D0FE01E894A59125913591D5
:101F800045915591AEF3EF0112DEFE019701A801D4
:101F9000DA9479F7DF90EF90FF900F911F91CF9136
:101FA000DF9108959F938F937F936F93FF93EF93A8
:101FB0009B01AC016BD0EF91FF91CFDF2F913F914F
:101FC0004F915F9163C000240A94161617061806F5
:101FD0000906089500240A9412161306140605062D
:101FE0000895092E0394000C11F4882352F0BB0FBE
:101FF00040F4BF2B11F460FF04C06F5F7F4F8F4F21
:102000009F4F089557FD9058440F551F59F05F3F5B
:1020100071F04795880F97FB991F61F09F3F79F00A
:1020200087950895121613061406551FF2CF46958C
:10203000F1DF08C0161617061806991FF1CF86950E
:102040007105610508940895E5DFA0F0BEE7B917B2
:1020500088F4BB279F3860F41616B11D672F782FC0
:102060008827985FF7CF869577956795B11D9395EB
:102070009639C8F30895E894BB2766277727CB01E4
:1020800097F9089514DF08F48FEF08950BD0A9CFC6
:102090009ADF28F09FDF18F0952309F02CCF5ACF54
:1020A0001124EACFAFDFA0F3959FD1F3950F50E055
:1020B000551F629FF001729FBB27F00DB11D639FFA
:1020C000AA27F00DB11DAA1F649F6627B00DA11DA0
:1020D000661F829F2227B00DA11D621F739FB00D46
:1020E000A11D621F839FA00D611D221F749F3327B6
:1020F000A00D611D231F849F600D211D822F762F4F
:102100006A2F11249F5750408AF0E1F088234AF04B
:10211000EE0FFF1FBB1F661F771F881F9150504097
:10212000A9F79E3F510570F0E6CEA6CF5F3FECF3D6
:10213000983EDCF3869577956795B795F795E79583
:102140009F5FC1F7FE2B880F911D9695879597F994
:10215000089511F40EF4FECEEFCE5CDFD0F3992398
:10216000D9F3CEF39F57550B87FF35D00024A0E657
:1021700040EA900180585695979528F4805C660F48
:10218000771F881F20F026173707480730F4621B97
:10219000730B840B202931294A2BA6951794079499
:1021A000202531254A2758F7660F771F881F20F012
:1021B00026173707480730F4620B730B840B200D8A
:1021C000311D411DA09581F7B901842F9158880FC9
:1021D00096958795089591505040660F771F881FF8
:1021E000D2F70895CF93DF9300D01F92CDB7DEB71B
:1021F0009A8389837C836B8389819A812B813C813B
:10220000FC013383228300000F900F900F900F90FA
:10221000DF91CF910895CF93DF931F921F92CDB797
:10222000DEB79A83898324E432E089819A81FC01B4
:102230003183208389819A81FC01138212820000FC
:102240000F900F90DF91CF910895CF93DF931F925E
:102250001F92CDB7DEB79A83898380E090E00F901C
:102260000F90DF91CF910895CF93DF931F921F922C
:10227000CDB7DEB79A83898300000F900F90DF916E
:10228000CF910895CF93DF931F921F92CDB7DEB702
:102290009A83898389819A81BEDF20E232E0898135
:1022A0009A81FC013183208329813A8188EE93E071
:1022B000A0E0B0E0F90184839583A683B783000092
:1022C0000F900F90DF91CF910895CF93DF931F92DE
:1022D0001F92CDB7DEB79A83898389819A81D2DF35
:1022E0002EE032E089819A81FC0131832083000055
:1022F0000F900F90DF91CF910895CF93DF931F92AE
:102300001F92CDB7DEB79A83898310928402109210
:1023100085021092A7021092A8029DD289EE93E145
:10232000B5D58CE993E19ED500000F900F90DF9119
:10233000CF910895CF93DF9300D000D0CDB7DEB713
:102340009A8389834B835C836D837E838B819C819D
:10235000AD81BE81BC01CD01CAD2000026960FB668
:10236000F894DEBF0FBECDBFDF91CF910895CF921D
:10237000EF920F931F93CF93DF9300D000D000D044
:102380001F921F92CDB7DEB79B838A836C834D83E8
:102390000E831F8328873987EA86CB868A85882320
:1023A000D9F18A819B816C8193D08A85843010F029
:1023B00083E08A878A859FEF980F9A8791E0882328
:1023C00009F490E0992321F18A819B81FC018081AD
:1023D0009181FC01208131818A85882F90E0AC01B8
:1023E000440F551F440F551F440F551F8E819F8169
:1023F000A885B98504C0B695A795979587954A9500
:10240000D2F7482F8A819B81642FF9011995D2CF89
:102410008A819B8160E075D08D81813210F080E2ED
:102420008D832B854D8164E672E08C818BD289830C
:102430001092840289818093850289812B960FB640
:10244000F894DEBF0FBECDBFDF91CF911F910F91EA
:10245000EF90CF900895CF92EF920F931F93CF9369
:10246000DF9300D01F921F92CDB7DEB79A83898386
:102470006B834C832D8389819A81CD80E12C00E090
:1024800010E098014C816B8172DF0F900F900F90DC
:102490000F900F90DF91CF911F910F91EF90CF9000
:1024A0000895CF93DF9300D01F92CDB7DEB79A8304
:1024B00089836B834C8389819A8121E04C816B8174
:1024C000CADF0F900F900F900F90DF91CF9108957A
:1024D000CF93DF9300D0CDB7DEB79A8389836B8328
:1024E00081E08093A9028B81809386021092A702DB
:1024F0001092A80200000F900F900F90DF91CF91E3
:1025000008950F93CF93DF9300D01F92CDB7DEB71E
:102510009B838A836C839091A802809186020C81B0
:1025200021E0492F67E872E029D389831092A7023E
:102530001092A8021092A90289810F900F900F901B
:102540000F90DF91CF910F910895CF93DF9300D03B
:10255000CDB7DEB79A8389836B838091A9028823E4
:10256000F9F08091A802803240F089819A8161E07F
:1025700070E038DE80E090E019C08091A702882FDB
:1025800090E02B8189579D4FFC0120838091A70209
:102590008F5F8093A7028091A7028093A80204C056
:1025A000CE01039661E015D481E090E00F900F908A
:1025B0000F90DF91CF910895CF93DF9300D000D09B
:1025C0001F921F92CDB7DEB79C838B837E836D8372
:1025D00058874F838091A902882321F11A8219829A
:1025E00029813A818F8198852817390700F58B81D9
:1025F0009C81FC0180819181FC01208131814D8190
:102600005E8189819A81840F951FFC0140818B81B5
:102610009C81642FF901199589819A8101969A8389
:102620008983DECF2F818D819E81622FD2D38F81CE
:10263000988528960FB6F894DEBF0FBECDBFDF9108
:10264000CF910895CF93DF931F921F92CDB7DEB73E
:102650009A83898380918502282F30E080918402BB
:10266000882F90E0A901481B590BCA010F900F90C9
:10267000DF91CF910895CF93DF9300D01F92CDB714
:10268000DEB79C838B838FEF9FEF9A838983909132
:10269000840280918502981788F480918402882FA3
:1026A00090E08C599D4FFC018081882F90E09A83A7
:1026B0008983809184028F5F8093840289819A81CB
:1026C0000F900F900F900F90DF91CF910895CF93BF
:1026D000DF9300D01F92CDB7DEB79C838B838FEF43
:1026E0009FEF9A8389839091840280918502981745
:1026F00060F480918402882F90E08C599D4FFC01FA
:102700008081882F90E09A83898389819A810F90B4
:102710000F900F900F90DF91CF910895CF93DF939B
:102720001F921F92CDB7DEB79A83898300000F9066
:102730000F90DF91CF910895CF93DF9300D01F9238
:102740001F92CDB7DEB79B838A837D836C83809194
:10275000AC029091AD02892B89F190918402809115
:102760008502981768F119828981882F90E02C8161
:102770003D8182179307A4F48981882F90E02A81F4
:102780003B81280F391F8981882F90E0F901208132
:102790008C599D4FFC01208389818F5F8983E4CF11
:1027A000109284028C81809385022091AC0230913A
:1027B000AD028C819D81F901199503C0000001C013
:1027C00000000F900F900F900F900F90DF91CF911E
:1027D0000895CF93DF93CDB7DEB78091AA02909191
:1027E000AB02892B59F01092A7021092A802809197
:1027F000AA029091AB02FC01199501C00000DF9183
:10280000CF910895CF93DF9300D01F92CDB7DEB75D
:102810009A8389837C836B8389819A81019739F4B8
:102820008B819C81019619F48EEA92E04EDD0000C6
:102830000F900F900F900F90DF91CF910895CF934D
:10284000DF93CDB7DEB76FEF7FEF81E090E0DADFA7
:10285000DF91CF910895CF93DF93CDB7DEB710927C
:10286000BA0281E08093BC021092BD0284E161E073
:102870000E94DC2385E161E00E94DC2389EB90E08B
:10288000FC01208189EB90E02E7FFC01208389EB05
:1028900090E0FC01208189EB90E02D7FFC012083FA
:1028A00088EB90E028E4FC0120838CEB90E025E4A9
:1028B000FC0120830000DF91CF910895CF93DF9337
:1028C000CDB7DEB78CEB90E0FC0120818CEB90E083
:1028D0002A7BFC01208384E160E00E94DC2385E107
:1028E00060E00E94DC230000DF91CF910895CF9338
:1028F000DF9300D01F92CDB7DEB769837A838B83D5
:102900009C8380E094E2A4EFB0E029813A814B817E
:102910005C81BC01CD010E94D12BDA01C901409735
:10292000A109B109B695A7959795879528EB30E051
:10293000F901808300000F900F900F900F90DF91AE
:10294000CF910895CF93DF9300D000D000D01F9295
:10295000CDB7DEB78E8378876F8349872A878985CD
:10296000813210F080E001C10E94FF20DC01CB0128
:102970008A839B83AC83BD832AC08091BE029091E1
:10298000BF02A091C002B091C102892B8A2B8B2B70
:10299000F1F00E94FF209B01AC018A819B81AC81F8
:1029A000BD81281B390B4A0B5B0B8091BE029091B5
:1029B000BF02A091C002B091C10282179307A40781
:1029C000B50728F48091C302F7D380E0CEC0809190
:1029D000BA02882391F681E08093BA028A858093B7
:1029E000BC028FEF80932D031092E80289858150FD
:1029F0008093E90281E08093BB028E81882F90E072
:102A0000880F991F982F8091BB02892B8093BB025E
:102A10008091BD02813009F04AC01092BD020E942F
:102A2000FF20DC01CB018A839B83AC83BD838BEBCE
:102A300090E02091BB02FC0120838091BE02909126
:102A4000BF02A091C002B091C102892B8A2B8B2BAF
:102A5000F1F00E94FF209B01AC018A819B81AC8137
:102A6000BD81281B390B4A0B5B0B8091BE029091F4
:102A7000BF02A091C002B091C10282179307A407C0
:102A8000B50728F48091C30297D380E06EC08CEB29
:102A900090E0FC018081882F90E088709927892B35
:102AA00031F68CEB90E025ECFC01208305C08CEB2B
:102AB00090E025EEFC0120830E94FF20DC01CB0189
:102AC0008A839B83AC83BD832AC08091BE02909190
:102AD000BF02A091C002B091C102892B8A2B8B2B1F
:102AE000F1F00E94FF209B01AC018A819B81AC81A7
:102AF000BD81281B390B4A0B5B0B8091BE02909164
:102B0000BF02A091C002B091C10282179307A4072F
:102B1000B50728F48091C3024FD380E026C080918E
:102B2000BA02813091F28091E8029985891718F4F0
:102B30008091E8028987198213C08981282F30E0AB
:102B40008981882F90E04F815885840F951F2853E5
:102B50003D4FF9012081FC01208389818F5F8983AA
:102B600099818985981748F389852A960FB6F89434
:102B7000DEBF0FBECDBFDF91CF9108950F93CF93EE
:102B8000DF9300D000D000D01F921F92CDB7DEB7E8
:102B90008E8378876F8349872A870B87898581325F
:102BA00010F081E00CC10E94FF20DC01CB018A8380
:102BB0009B83AC83BD832AC08091BE029091BF02EB
:102BC000A091C002B091C102892B8A2B8B2BF1F00E
:102BD0000E94FF209B01AC018A819B81AC81BD8159
:102BE000281B390B4A0B5B0B8091BE029091BF02F0
:102BF000A091C002B091C10282179307A407B50744
:102C000028F48091C302D8D285E0D9C08091BA025D
:102C1000882391F682E08093BA028B858093BC0270
:102C20008FEF80932D031092E80289858093E9024B
:102C3000198213C08981882F90E02F813885280F51
:102C4000391F8981882F90E0F901208188539D4F99
:102C5000FC01208389818F5F8983998189859817F9
:102C600048F31092BB028E81882F90E0880F991F45
:102C7000982F8091BB02892B8093BB028091BD026B
:102C8000813009F04AC01092BD020E94FF20DC0191
:102C9000CB018A839B83AC83BD838BEB90E0209137
:102CA000BB02FC0120838091BE029091BF02A091E3
:102CB000C002B091C102892B8A2B8B2BF1F00E94AC
:102CC000FF209B01AC018A819B81AC81BD81281BC7
:102CD000390B4A0B5B0B8091BE029091BF02A09111
:102CE000C002B091C10282179307A407B50728F468
:102CF0008091C30261D285E062C08CEB90E0FC0160
:102D00008081882F90E088709927892B31F68CEB91
:102D100090E025ECFC01208305C08CEB90E025EED3
:102D2000FC0120830E94FF20DC01CB018A839B836E
:102D3000AC83BD832AC08091BE029091BF02A09156
:102D4000C002B091C102892B8A2B8B2BF1F00E941B
:102D5000FF209B01AC018A819B81AC81BD81281B36
:102D6000390B4A0B5B0B8091BE029091BF02A09180
:102D7000C002B091C10282179307A407B50728F4D7
:102D80008091C30219D285E01AC08A85882321F078
:102D90008091BA02823079F280912D038F3F11F435
:102DA00080E00DC080912D03803211F482E007C0D5
:102DB00080912D03803311F483E001C084E02B96D1
:102DC0000FB6F894DEBF0FBECDBFDF91CF910F914C
:102DD0000895CF93DF9300D01F92CDB7DEB79B83CA
:102DE0008A836C8380910B03282F30E08C81882F9D
:102DF00090E0820F931F819714F081E02CC08091A6
:102E0000BA02843011F082E026C0198219C089818B
:102E1000882F90E02A813B81280F391F80910B0376
:102E2000482F50E08981882F90E0840F951FF90189
:102E3000208186519D4FFC01208389818F5F89838A
:102E400099818C81981718F390910B038C81890FCD
:102E500080930B0380E00F900F900F900F90DF9105
:102E6000CF910895CF93DF931F921F92CDB7DEB716
:102E70009A83898389819A819093C7028093C6023D
:102E800000000F900F90DF91CF910895CF93DF93C3
:102E90001F921F92CDB7DEB79A83898389819A8169
:102EA0009093C5028093C40200000F900F90DF91B1
:102EB000CF910895CF93DF931F92CDB7DEB789836B
:102EC0008981882331F08CEB90E025ECFC01208394
:102ED00005C08CEB90E025E8FC01208300000F90FA
:102EE000DF91CF910895CF93DF93CDB7DEB7A5974C
:102EF0000FB6F894DEBF0FBECDBF8CEB90E025ED92
:102F0000FC01208388E08D838D81282F30E040E014
:102F100050E08091BE029091BF02A091C002B0919A
:102F2000C102820F931FA41FB51F0197A109B10908
:102F30002D81222F30E040E050E0BC01CD010E9405
:102F4000D12BDA01C90189839A83AB83BC830FC17A
:102F50008091BE029091BF02A091C002B091C102C7
:102F6000892B8A2B8B2B09F402C189819A81AB8131
:102F7000BC81892B8A2B8B2B09F4F5C080E090E073
:102F8000A0E2B1E48E839F83A887B9872BEA3AEA4F
:102F90004AEA50E46E817F818885998577D8DC0183
:102FA000CB018A879B87AC87BD8720E030E040E873
:102FB00050E46E817F818885998568D8DC01CB01DA
:102FC0008E879F87A88BB98B20E030E040E85FE3D5
:102FD0006A857B858C859D850E94540E88231CF410
:102FE00081E08A8BAEC020E03FEF4FE757E46E856B
:102FF0007F858889998946D818160CF078C020E01A
:1030000030E04AE754E46E817F81888599850E948B
:10301000580EDC01CB018B8B9C8BAD8BBE8B20E0E3
:1030200030E04AE755E46B897C898D899E892ED8EA
:10303000DC01CB018F8B988FA98FBA8F20E030E015
:1030400040E85FE36F89788D898D9A8D0E94540ED8
:1030500088232CF481E090E09C8F8B8F3DC020E092
:103060003FEF4FE757E46F89788D898D9A8D0AD8A5
:10307000181644F520E030E040E251E46B897C8989
:103080008D899E8903D8DC01CB01BC01CD010E9452
:10309000C00EDC01CB019C8F8B8F0FC080E991E0CB
:1030A0009E8F8D8F8D8D9E8D0197F1F79E8F8D8FC9
:1030B0008B8D9C8D01979C8F8B8F8B8D9C8D892BFD
:1030C00069F73FC06F89788D898D9A8D0E94C00EF7
:1030D000DC01CB019C8F8B8F8B8D9C8D98A38F8F68
:1030E0008F8D98A10197F1F798A38F8F2AC020E0C8
:1030F00030E04FE753E46A857B858C859D850E948F
:1031000042101816ACF46E857F85888999890E94D3
:10311000C00EDC01CB019AA389A389A19AA19CA32B
:103120008BA38BA19CA10197F1F79CA38BA30FC04C
:103130006A857B858C859D850E94C00EDC01CB0154
:103140008A8B8A898DA38DA18A95F1F78DA38981B8
:103150009A81AB81BC810197A109B10989839A83C6
:10316000AB83BC8304C08091C30226D00DC08CEB1E
:1031700090E0FC018081882F90E080719927892B55
:1031800009F0E6CE1092BA02A5960FB6F894DEBF0B
:103190000FBECDBFDF91CF910895CF93DF93CDB711
:1031A000DEB78CEB90E025ECFC0120831092BA0294
:1031B0000000DF91CF910895CF93DF9300D0CDB77A
:1031C000DEB78B8381E08093C2028B818823B1F0CC
:1031D00088EB90E0FC01808189838AEB90E0FC0120
:1031E00080818A836BDB37DB8AEB90E02A81FC01EC
:1031F000208388EB90E02981FC01208300000F9060
:103200000F900F90DF91CF9108951F920F920FB6FC
:103210000F9211240BB60F922F933F934F935F930E
:103220006F937F938F939F93AF93BF93EF93FF938E
:10323000CF93DF93CDB7DEB789EB90E0FC018081BF
:10324000882F90E0887F9927092E000CAA0BBB0BD2
:10325000893F9105A105B10508F0FFC1FC01882750
:10326000EB5CF64E8F4F0C940F2C281B2D1B2D1B47
:103270002D1B2D1B2D1B2D1B2D1B2E1A2D1B2D1B0E
:103280002D1B2D1B2D1B2D1B2D1B2E1A2D1B2D1BFE
:103290002D1B2D1B2D1B2D1B2D1B371A2D1B2D1BE5
:1032A0002D1B2D1B2D1B2D1B2D1B611A2D1B2D1BAB
:1032B0002D1B2D1B2D1B2D1B2D1B371A2D1B2D1BC5
:1032C0002D1B2D1B2D1B2D1B2D1B661A2D1B2D1B86
:1032D0002D1B2D1B2D1B2D1B2D1B6B1A2D1B2D1B71
:1032E0002D1B2D1B2D1B2D1B2D1B801A2D1B2D1B4C
:1032F0002D1B2D1B2D1B2D1B2D1BAD1A2D1B2D1B0F
:103300002D1B2D1B2D1B2D1B2D1B701A2D1B2D1B3B
:103310002D1B2D1B2D1B2D1B2D1B8C1A2D1B2D1B0F
:103320002D1B2D1B2D1B2D1B2D1BAF1A2D1B2D1BDC
:103330002D1B2D1B2D1B2D1B2D1BAF1A2D1B2D1BCC
:103340002D1B2D1B2D1B2D1B2D1BAF1A2D1B2D1BBC
:103350002D1B2D1B2D1B2D1B2D1BAF1A2D1B2D1BAC
:103360002D1B2D1B2D1B2D1B2D1BB71A2D1B2D1B94
:103370002D1B2D1B2D1B2D1B2D1BEE1A2D1B2D1B4D
:103380002D1B2D1B2D1B2D1B2D1BB71A2D1B2D1B74
:103390002D1B2D1B2D1B2D1B2D1BEE1A2D1B2D1B2D
:1033A0002D1B2D1B2D1B2D1B2D1BD11A2D1B2D1B3A
:1033B0002D1B2D1B2D1B2D1B2D1BF11A2D1B2D1B0A
:1033C0002D1B2D1B2D1B2D1B2D1BF11A2D1B2D1BFA
:1033D0002D1B2D1B2D1B2D1B2D1B071B2D1B2D1BD3
:1033E0002D1B2D1B2D1B2D1B2D1B231B2D1B2D1BA7
:1033F0002D1B2D1B2D1B2D1B2D1B231B2D1B2D1B97
:103400002D1B2D1B2D1B2D1B2D1B2D1B2D1B2D1B7C
:103410002D1B2D1B2D1B2D1B2D1B2D1B2D1B2D1B6C
:103420002D1B2D1B2D1B2D1B2D1B2D1B2D1B2D1B5C
:103430002D1B2D1B2D1B2D1B2D1B2D1B2D1B2D1B4C
:103440002D1B2D1B2D1B2D1B2D1B2D1B2D1B2D1B3C
:103450002D1B2D1B2D1B2D1B2D1B2C1B8BEB90E0D7
:103460002091BB02FC01208381E024DDF6C0909115
:10347000E8028091E902981798F48091E80291E0BF
:10348000980F9093E802282F30E08BEB90E02853C0
:103490003D4FF9012081FC01208381E00BDDDDC07F
:1034A0008091BC02882311F01EDDD7C081E080939B
:1034B000BD028CEB90E024EAFC0120831092BA025A
:1034C000CCC080E280932D030EDDC7C080E38093E3
:1034D0002D0309DDC2C088E380932D035EDEBDC0ED
:1034E0002BEB30E08091E80291E0980F9093E80296
:1034F000882F90E0F901208188539D4FFC012083A3
:103500009091E8028091E902981718F481E0D2DCEA
:10351000A4C080E0CFDCA1C02BEB30E08091E802BA
:1035200091E0980F9093E802882F90E0F9012081B4
:1035300088539D4FFC0120838091BC02882311F0A9
:10354000D2DC8BC081E08093BD028CEB90E024EA5A
:10355000FC0120831092BA0280C0C5DC7EC083E0EB
:103560008093BA0210922C0381E0A4DC76C0809193
:103570002C03803298F42BEB30E080912C0391E007
:10358000980F90932C03882F90E0F9012081845F9D
:103590009C4FFC01208381E08DDC5FC080E08ADCF1
:1035A0005CC0FBDD80912C03803240F480912C03C1
:1035B000882F90E0845F9C4FFC0110822091C6020E
:1035C0003091C70280912C03882F90E0BC018CE0E1
:1035D00093E0F901199510922C033FC080E06ADC5A
:1035E0003CC084E08093BA0210920A0310920B034D
:1035F0008091C4029091C502FC01199580910B0342
:10360000882329F481E080930B031092EA028091D1
:103610000A0391E0980F90930A03282F30E08BEB78
:1036200090E026513D4FF9012081FC0120839091CB
:103630000A0380910B03981718F481E03BDC0DC05E
:1036400080E038DC0AC081E035DC1092BA0205C0A7
:1036500010922D0348DC01C000000000DF91CF91E3
:10366000FF91EF91BF91AF919F918F917F916F915A
:103670005F914F913F912F910F900BBE0F900FBE16
:103680000F901F901895CF93DF9300D000D0CDB747
:10369000DEB79A8389837C836B835E834D838981C4
:1036A0009A8182549C4FFC018081881F8827881F43
:1036B000882331F08B819C81FC01118210826CC0C7
:1036C00029813A81C901880F991F820F931F880FA2
:1036D000991F880F991F9C0189819A8182549C4F60
:1036E000FC018081082E000C990B280F391F809156
:1036F000C203882F90E0281739073CF529813A81C9
:10370000C901880F991F820F931F880F991F880F77
:10371000991F9C0189819A8182549C4FFC01808170
:10372000082E000C990B280F391FC901880F991F0B
:10373000820F931F825D9C4FFC01808186FB88274E
:1037400080F9813011F481E001C080E0882321F10B
:1037500029813A81C901880F991F820F931F880F11
:10376000991F880F991F9C0189819A8182549C4FCF
:10377000FC018081082E000C990B280F391FC9010C
:10378000880F991F820F931F825D9C4FFC018081DF
:103790008F7360E00E94DC2389819A819C0122540E
:1037A0003C4FF90120812F5F82549C4FFC01208304
:1037B00029813A81C901880F991F820F931F880FB1
:1037C000991F880F991F9C0189819A8182549C4F6F
:1037D000FC018081082E000C990B280F391F809165
:1037E000C203882F90E02817390754F489819A8101
:1037F00082549C4FFC0180818C3014F481E001C024
:1038000080E0882309F478C08B819C81FC01408191
:10381000518129813A81C901880F991F820F931F15
:10382000880F991F880F991F9C0189819A81825462
:103830009C4FFC018081082E000C990B280F391F2A
:10384000C901880F991F820F931F815D9C4FFC0156
:10385000808191819A01280F391F8D819E81FC0101
:103860003183208329813A81C901880F991F820FF2
:10387000931F880F991F880F991F9C0189819A8136
:1038800082549C4FFC018081082E000C990B280F5C
:10389000391FC901880F991F820F931F825D9C4FAA
:1038A000FC01808186FB882780F9882309F44DC0BC
:1038B00029813A81C901880F991F820F931F880FB0
:1038C000991F880F991F9C0189819A8182549C4F6E
:1038D000FC018081082E000C990B280F391FC901AB
:1038E000880F991F820F931F825D9C4FFC0180817E
:1038F0008F7361E061D729C08B819C81FC0180813D
:103900009181049621E080349C4908F020E0222334
:1039100041F08D819E8120E43CE9FC0131832083CC
:103920000DC08B819C81FC01808191819C012C5F69
:103930003F4F8D819E81FC013183208389819A8153
:1039400082549C4F2FEFFC012083000026960FB677
:10395000F894DEBF0FBECDBFDF91CF9108951F92C7
:103960000F920FB60F9211240BB60F922F933F9325
:103970004F935F936F937F938F939F93AF93BF9377
:10398000EF93FF93CF93DF93CDB7DEB748E850E0D6
:1039900064E870E081E090E076DE0000DF91CF9196
:1039A000FF91EF91BF91AF919F918F917F916F9117
:1039B0005F914F913F912F910F900BBE0F900FBED3
:1039C0000F901F9018951F920F920FB60F9211240F
:1039D0000BB60F922F933F934F935F936F937F9309
:1039E0008F939F93AF93BF93EF93FF93CF93DF9307
:1039F000CDB7DEB748E950E064E970E082E090E0DE
:103A000042DE0000DF91CF91FF91EF91BF91AF9126
:103A10009F918F917F916F915F914F913F912F91E6
:103A20000F900BBE0F900FBE0F901F9018951F9216
:103A30000F920FB60F9211240BB60F922F933F9354
:103A40004F935F936F937F938F939F93AF93BF93A6
:103A5000EF93FF93CF93DF93CDB7DEB748EA50E003
:103A600064EA70E083E090E00EDE0000DF91CF9129
:103A7000FF91EF91BF91AF919F918F917F916F9146
:103A80005F914F913F912F910F900BBE0F900FBE02
:103A90000F901F9018951F920F920FB60F9211243E
:103AA0000BB60F922F933F934F935F936F937F9338
:103AB0008F939F93AF93BF93EF93FF93CF93DF9336
:103AC000CDB7DEB748E251E064E271E080E090E01B
:103AD000DADD0000DF91CF91FF91EF91BF91AF91BF
:103AE0009F918F917F916F915F914F913F912F9116
:103AF0000F900BBE0F900FBE0F901F901895CF9395
:103B0000DF931F921F92CDB7DEB79A838983898195
:103B10009A81019701F580E890E0FC01108281E82C
:103B200090E022E0FC01208384E890E0FC01118217
:103B3000108286E390E0FC01208186E390E0226021
:103B4000FC0120838FE690E0FC0120818FE690E06D
:103B50002260FC01208389819A810297C1F480E967
:103B600090E0FC01108281E990E022E0FC012083DA
:103B700084E990E0FC011182108288E390E022E069
:103B8000FC01208381E790E022E0FC012083898111
:103B90009A810397C1F480EA90E0FC01108281EAE7
:103BA00090E022E0FC01208384EA90E0FC01118295
:103BB000108289E390E022E0FC01208382E790E01C
:103BC00022E0FC01208389819A81892BC1F480E263
:103BD00091E0FC01108281E291E022E0FC0120836F
:103BE00084E291E0FC01118210828AE390E022E0FD
:103BF000FC01208383E790E022E0FC0120830000A9
:103C00000F900F90DF91CF910895CF93DF9300D065
:103C1000CDB7DEB79B838A83198289818C3028F5E2
:103C20002A813B81C901880F991F820F931F880F3A
:103C3000991F880F991F9C018981882F90E0280F78
:103C4000391FC901880F991F820F931F825D9C4FF6
:103C5000FC01808186FB882780F9813011F481E0A6
:103C600005C089818F5F8983D8CF80E00F900F9046
:103C70000F90DF91CF910895CF93DF931F921F9202
:103C8000CDB7DEB79A8389838091C2038033E8F48D
:103C90002091C20381E0820F8093C20389819A81BF
:103CA000FC01208389819A81FC018081282F30E0EA
:103CB000C901880F991F820F931F815D9C4F28EBCC
:103CC0003BE0FC013183208305C089819A812FEF7D
:103CD000FC01208300000F900F90DF91CF91089599
:103CE000CF93DF9300D01F92CDB7DEB79A8389833D
:103CF0007C836B836B817C8189819A8120E639E0AA
:103D000040E252E007D00F900F900F900F90DF919C
:103D1000CF910895CF93DF9300D000D000D01F92B1
:103D2000CDB7DEB79C838B837E836D8358874F83AB
:103D30003A8729878B819C81FC018081803308F040
:103D40006EC08D8161E099D38B819C81FC01808163
:103D5000282F30E04D814F73C901880F991F820FC2
:103D6000931F825D9C4F242F2F73FC013081307C88
:103D7000232BFC01208320E232E08F819885A9016A
:103D8000481B590BCA0199230CF403969595879506
:103D900095958795282F8B819C81FC01218320E6B6
:103DA00039E089859A85A901481B590BCA019923D5
:103DB0000CF403969595879595958795282F8B817B
:103DC0009C81FC0122838B819C81FC0190818BEA88
:103DD000989F812D1124869586958695882F90E051
:103DE0009A83898389819A8110DF982F81E08927BE
:103DF000882319F089819A8182DE8B819C81FC0164
:103E00008081282F30E0C901880F991F820F931FEE
:103E1000825D9C4FFC0120812064FC0120838B810A
:103E20009C81FC0180812A960FB6F894DEBF0FBEFC
:103E3000CDBFDF91CF9108956F927F928F929F9225
:103E4000AF92BF92CF92DF92EF92FF920F931F93A8
:103E5000CF93DF9300D01F92CDB7DEB79A838983CB
:103E60007C836B838B819C81803292400CF05CC0A0
:103E70008B819C81992314F41C821B828B819C81F1
:103E8000853B910524F084EB90E09C838B838981B2
:103E90009A81FC018281082E000C990B28E532E002
:103EA000A901481B590BCA01880F991F880F991F38
:103EB000092E000CAA0BBB0B29813A81F901218143
:103EC000022E000C330B48E850E0BA01621B730B62
:103ED0009B01220F331F220F331F032E000C440BB4
:103EE000550B6B817C813B01770F880899086B2FFC
:103EF0006F936A2F6F93692F6F938F9359016A01A4
:103F000014EBE12EF12C00E010E020E030E0A901FC
:103F1000C401B3010E944D2B0F900F900F900F9092
:103F2000DC01CB019C838B832B813C8189819A812D
:103F3000B90114D000000F900F900F900F90DF91F7
:103F4000CF911F910F91FF90EF90DF90CF90BF9096
:103F5000AF909F908F907F906F900895CF93DF9355
:103F600000D000D0CDB7DEB79C838B837E836D837A
:103F70008B819C81FC01808189838981803308F059
:103F800097C08B819C81FC018181082E000C990BCC
:103F900028E830E0A901481B590BCA01880F991F76
:103FA000880F991F2D813E8128173907A4F48B8132
:103FB0009C81FC018181082E000C990B28E830E0DF
:103FC000A901481B590BCA01880F991F880F991F17
:103FD0009E838D8329C08B819C81FC018281082E68
:103FE000000C990B28E532E0A901481B590BCA01C6
:103FF000880F991F880F991F2D813E818217930783
:104000009CF48B819C81FC018281082E000C990B11
:1040100028E532E0A901481B590BCA01880F991FF6
:10402000880F991F9E838D838D819E8102979E8329
:104030008D838D819E81092E000CAA0BBB0B880FEE
:10404000991FAA1FBB1F880F991FAA1FBB1F880F8C
:10405000991FAA1FBB1F880F991FAA1FBB1FBB2335
:104060001CF40796A11DB11D689412F8B595A7958B
:10407000979587951694D1F79E838D838FE590E071
:10408000FC0180818A83F8948981282F30E04D815A
:104090005E81C901880F991F820F931F815D9C4F1C
:1040A000FC01518340838FE590E02A81FC0120834D
:1040B000000026960FB6F894DEBF0FBECDBFDF918D
:1040C000CF9108951F920F920FB60F9211248F93E4
:1040D0009F93AF93BF93CF93DF93CDB7DEB7259771
:1040E000DEBFCDBF8091C7039091C803A091C903E3
:1040F000B091CA0389839A83AB83BC838091CB033D
:104100008D8389819A81AB81BC810196A11DB11DEE
:1041100089839A83AB83BC838D818D5F8D838D81F1
:104120008D3770F08D818D578D8389819A81AB8118
:10413000BC810196A11DB11D89839A83AB83BC8389
:104140008D818093CB0389819A81AB81BC818093DF
:10415000C7039093C803A093C903B093CA03809187
:10416000C3039091C403A091C503B091C603019607
:10417000A11DB11D8093C3039093C403A093C503F5
:10418000B093C60300000F900F900F900F900F9008
:10419000DF91CF91BF91AF919F918F910F900FBE03
:1041A0000F901F901895CF93DF9300D01F921F920E
:1041B000CDB7DEB78FE590E0FC0180818983F8946C
:1041C0008091C7039091C803A091C903B091CA031D
:1041D0008A839B83AC83BD838FE590E02981FC01BA
:1041E00020838A819B81AC81BD81BC01CD010F9070
:1041F0000F900F900F900F90DF91CF910895CF9374
:10420000DF9300D000D0CDB7DEB78FE590E0FC01A2
:1042100080818D83F8948091C3039091C403A09111
:10422000C503B091C60389839A83AB83BC8386E4BC
:1042300090E0FC0180818E8385E390E0FC01808129
:10424000882F90E081709927892B71F08E818F3FA4
:1042500059F089819A81AB81BC810196A11DB11D64
:1042600089839A83AB83BC838FE590E02D81FC0129
:10427000208389819A81AB81BC812227382F492FE5
:104280005A2F8E81882F90E0A0E0B0E0820F931F1C
:10429000A41FB51F880F991FAA1FBB1F880F991F46
:1042A000AA1FBB1FBC01CD0126960FB6F894DEBF36
:1042B0000FBECDBFDF91CF910895CF93DF93CDB7E0
:1042C000DEB7789484E490E0FC01208184E490E0FF
:1042D0002260FC01208384E490E0FC01208184E4DE
:1042E00090E02160FC01208385E490E0FC012081C6
:1042F00085E490E02260FC01208385E490E0FC01ED
:10430000208185E490E02160FC0120838EE690E02E
:10431000FC0120818EE690E02160FC01208381E891
:1043200090E0FC01108281E890E0FC01208181E8AE
:1043300090E02260FC01208381E890E0FC01208174
:1043400081E890E02160FC01208380E890E0FC019E
:10435000208180E890E02160FC01208381EB90E0E7
:10436000FC01208181EB90E02460FC01208380EB44
:1043700090E0FC01208180EB90E02160FC01208333
:1043800081E990E0FC01208181E990E02260FC015C
:10439000208381E990E0FC01208181E990E02160A7
:1043A000FC01208380E990E0FC01208180E990E01D
:1043B0002160FC01208381EA90E0FC01208181EAF8
:1043C00090E02260FC01208381EA90E0FC012081E2
:1043D00081EA90E02160FC01208380EA90E0FC010A
:1043E000208180EA90E02160FC01208381E291E05D
:1043F000FC01208181E291E02260FC01208381E2C6
:1044000091E0FC01208181E291E02160FC012083A8
:1044100080E291E0FC01208180E291E02160FC01DA
:1044200020838AE790E0FC0120818AE790E0246005
:10443000FC0120838AE790E0FC0120818AE790E07C
:104440002260FC0120838AE790E0FC0120818AE75A
:1044500090E02160FC0120838AE790E0FC0120814C
:104460008AE790E02068FC01208381EC90E0FC0169
:1044700010820000DF91CF910895CF93DF93CDB7E5
:10448000DEB769970FB6F894DEBF0FBECDBF888F39
:10449000698F888D882F90E086569E4F9A838983F6
:1044A00089819A81FC0184918B838B818C83888D97
:1044B000882F90E08C5A9E4F9E838D838D819E81A4
:1044C000FC0184918F838F8188878885882309F4F4
:1044D00095C08885882F90E0880F991F805E9E4F39
:1044E0009A87898789859A85FC0125913491CF0126
:1044F0003C872B879A8789878B859C859E878D87AC
:104500008885882F90E0880F991F865C9E4F988B36
:104510008F878F859889FC0125913491CF013A8B43
:10452000298B988B8F8789899A899C8B8B8B898D16
:10453000882331F58FE590E0FC0180818F8BF89422
:104540008D859E85FC018081982F8C8180958923A3
:10455000282F8D859E85FC0120838B899C89FC01F9
:104560008081982F8C8180958923282F8B899C8925
:10457000FC0120838FE590E02F89FC0120833FC060
:10458000898D823021F58FE590E0FC0180818E8B52
:10459000F8948D859E85FC018081982F8C81809573
:1045A0008923282F8D859E85FC0120838B899C89FA
:1045B000FC0190818C81292F282B8B899C89FC01FF
:1045C00020838FE590E02E89FC01208318C08FE5C1
:1045D00090E0FC0180818D8BF8948D859E85FC0197
:1045E00090818C81292F282B8D859E85FC0120832D
:1045F0008FE590E02D89FC01208301C000006996C1
:104600000FB6F894DEBF0FBECDBFDF91CF910895F6
:10461000CF93DF931F92CDB7DEB789838981882F2F
:1046200090E0092E000CAA0BBB0B0197A109B10960
:1046300082319105A105B10508F0B9C0FC018827B8
:10464000EB5DFC4D8F4F0C940F2C55235F233723CC
:1046500041234B23D723692373237D23872391236E
:104660009B23A523AF23D723B923C323CD2380E8DE
:1046700090E0FC01208180E890E02F77FC0120830E
:1046800096C080E890E0FC01208180E890E02F7DDA
:10469000FC0120838CC080E890E0FC01208180E850
:1046A00090E0277FFC01208382C084E490E0FC013D
:1046B000208184E490E02F77FC01208378C084E49B
:1046C00090E0FC01208184E490E02F7DFC012083B8
:1046D0006EC080EB90E0FC01208180EB90E02F77B2
:1046E000FC01208364C080EB90E0FC01208180EB22
:1046F00090E02F7DFC0120835AC080E990E0FC010E
:10470000208180E990E02F77FC01208350C080E970
:1047100090E0FC01208180E990E02F7DFC01208366
:1047200046C080E990E0FC01208180E990E0277F8D
:10473000FC0120833CC080EA90E0FC01208180EAFB
:1047400090E02F77FC01208332C080EA90E0FC01EA
:10475000208180EA90E02F7DFC01208328C080EA40
:1047600090E0FC01208180EA90E0277FFC0120831B
:104770001EC080E291E0FC01208180E291E02F7771
:10478000FC01208314C080E291E0FC01208180E2E2
:1047900091E02F7DFC0120830AC080E291E0FC01C2
:1047A000208180E291E0277FFC012083000000004F
:1047B0000F90DF91CF910895CF93DF93CDB7DEB700
:1047C00065970FB6F894DEBF0FBECDBF8C8B6D8B97
:1047D0008C89882F90E080529E4F9A8389838981AB
:1047E0009A81FC0184918B838B818C838C89882FA7
:1047F00090E086569E4F9E838D838D819E81FC0125
:1048000084918F838F8188878C89882F90E08C5A40
:104810009E4F9A87898789859A85FC0184918B8729
:104820008B858C878C85882309F444C08C818823F0
:1048300011F08C81EDDE8C85882F90E0880F991F18
:10484000865C9E4F9E878D878D859E85FC01259178
:104850003491CF01388B2F879E878D878F859889DC
:104860009A8B898B8FE590E0FC0180818B8BF8948B
:104870008D89882371F489899A89FC018081982F18
:10488000888580958923282F89899A89FC0120832E
:104890000BC089899A89FC0190818885292F282B52
:1048A00089899A89FC0120838FE590E02B89FC019E
:1048B000208301C0000065960FB6F894DEBF0FBEDE
:1048C000CDBFDF91CF910895CF93DF93CDB7DEB702
:1048D000C7D7CF93DF93CDB7DEB7F89481E0DF91F0
:1048E000CF910895CF93DF931F921F92CDB7DEB77C
:1048F0009A8389838FE590E029813A81F9012081AB
:10490000FC01208300000F900F90DF91CF9108955C
:10491000CF93DF9300D0CDB7DEB79B838A838A81A4
:104920009B81FC01848D882F90E02A813B81820F3E
:10493000931F835A9F4FFC01808189838A819B81C9
:10494000FC01848D882F90E001968F7390789923D5
:1049500024F40197806C9F6F0196282F8A819B8198
:10496000FC01248F8A819B81FC018689978929819A
:10497000FC0120838A819B81FC0180899189FC0153
:1049800080818370282F20648A819B81FC0180892B
:104990009189FC0120838A819B81FC01238D8A817E
:1049A0009B81FC01948D81E0291709F080E0882328
:1049B00079F08A819B81FC0182899389FC012081A5
:1049C0008A819B81FC01828993892F7DFC01208350
:1049D00000000F900F900F90DF91CF910895CF932B
:1049E000DF9300D000D000D0CDB7DEB79C838B839F
:1049F0004D835E836F837887298780E099E0ADE3FC
:104A0000B0E02D813E814F815885BC01CD01C9D6D2
:104A1000DA01C9010197A109B109B695A795979542
:104A200087959A8389838B819C81FC0180899189F8
:104A300022E0FC0120838D819E81AF81B8858115A4
:104A4000914EA105B10529F089819A818115904186
:104A5000E8F08B819C81FC0180899189FC011082A6
:104A600080E894E8AEE1B0E02D813E814F81588529
:104A7000BC01CD0196D6DA01C9010197A109B1099E
:104A8000B695A795979587959A83898389819A8109
:104A9000292F33278B819C81FC0184859585FC011E
:104AA00020838B819C81FC01868597852981FC016F
:104AB00020838B819C81FC01108E8B819C81FC0169
:104AC000848995892985FC0120838B819C81FC0147
:104AD00082899389FC0120818B819C81FC018289E0
:104AE00093892061FC0120838B819C81FC01828958
:104AF0009389FC0120818B819C81FC0182899389AF
:104B00002860FC0120838B819C81FC018289938930
:104B1000FC0120818B819C81FC0182899389206822
:104B2000FC0120838B819C81FC0182899389FC019B
:104B300020818B819C81FC01828993892F7DFC01DE
:104B40002083000029960FB6F894DEBF0FBECDBFBC
:104B5000DF91CF910895CF93DF931F921F92CDB72E
:104B6000DEB79A83898389819A81FC01818D882FA0
:104B700090E09C01205C3F4F89819A81FC01828DED
:104B8000882F90E0A901481B590BCA018F73992700
:104B90000F900F90DF91CF910895CF93DF931F92E5
:104BA0001F92CDB7DEB79A83898389819A81FC01F0
:104BB000218D89819A81FC01928D81E0291709F06C
:104BC00080E0882319F08FEF9FEF0FC089819A81D1
:104BD000FC01828D882F90E029813A81820F931FFA
:104BE0004D96FC018081882F90E00F900F90DF910F
:104BF000CF910895CF93DF9300D0CDB7DEB79B83DD
:104C00008A838A819B81FC01218D8A819B81FC01A1
:104C1000928D81E0291709F080E0882319F08FEF49
:104C20009FEF1CC08A819B81FC01828D882F90E0C0
:104C30002A813B81820F931F4D96FC0180818983DD
:104C40008A819B81FC01828D8F5F282F2F738A813F
:104C50009B81FC01228F8981882F90E00F900F901B
:104C60000F90DF91CF910895CF93DF9300D01F92E3
:104C7000CDB7DEB79C838B838B819C81FC01838DB8
:104C800089838B819C81FC01848D8A8399818A81AF
:104C9000981768F08981882F90E02FE330E0281B77
:104CA000390B8A81882F90E0820F931F0BC08A8175
:104CB000282F30E08981882F90E0A901481B590BEB
:104CC000CA0101970F900F900F900F90DF91CF9135
:104CD0000895CF93DF931F921F92CDB7DEB79A83CB
:104CE000898389819A81FC01908D81E089278823BD
:104CF00009F04DC089819A81FC0182899389FC0168
:104D00008081882F90E080729927892B69F48981AE
:104D10009A81FC0180899189FC018081882F90E033
:104D200080749927892B11F481E001C080E08823E9
:104D300079F18FE590E0FC01808188237CF0898106
:104D40009A81FC0182899389FC018081882F90E0FF
:104D500080729927892B11F081E001C080E08823BF
:104D600049F289819A81FC0180899189FC018081C5
:104D7000882F90E08072992721E0892B09F420E0A8
:104D8000222309F4B7CF89819A81C2DDB3CF000015
:104D90000F900F90DF91CF910895CF93DF9300D0C4
:104DA00000D01F921F92CDB7DEB79F838E83688796
:104DB0008E819F8121E0FC01208F8E819F81FC01EB
:104DC000238D8E819F81FC01848D281779F48E813B
:104DD0009F81FC0180899189FC018081882F90E06E
:104DE00080729927892B11F081E001C080E088232F
:104DF00059F18FE590E0FC0180818C836ADD898325
:104E000089818823D9F08E819F81FC0186899789C9
:104E10002885FC0120838E819F81FC0180899189F6
:104E2000FC0180818370282F20648E819F81FC018A
:104E300080899189FC0120831982E2CFCE010496FA
:104E400051DD81E090E06EC08E819F81FC01838DF9
:104E5000882F90E001968F739078992324F401971E
:104E6000806C9F6F01968B838E819F81FC01948D56
:104E700081E02B81291709F080E08823F9F08FE584
:104E800090E0FC0180818095881F8827881F8823F7
:104E900059F38E819F81FC0180899189FC01808179
:104EA000882F90E08072992721E0892B09F420E077
:104EB0002223D1F28E819F812BDDD6CF8E819F81DF
:104EC000FC01838D882F90E02E813F81820F931FFC
:104ED000835A9F4F2885FC0120838FE590E0FC01D9
:104EE00080818D83F6DC8A838A818823B1F08E816C
:104EF0009F812B81FC01238F8E819F81FC01828900
:104F00009389FC0120818E819F81FC018289938994
:104F10002062FC0120831A82E7CFCE010596E2DCF5
:104F200081E090E028960FB6F894DEBF0FBECDBFAB
:104F3000DF91CF910895CF92DF92EF92FF920F937E
:104F40001F93CF93DF93CDB7DEB72E970FB6F894AC
:104F5000DEBF0FBECDBF9A8389837C836B835E8364
:104F60004D8338872F831A870987FC86EB86DE8678
:104F7000CD8689819A810E94421122E332E08981A3
:104F80009A81FC013183208389819A812B813C8124
:104F9000FC013587248789819A812D813E81FC011E
:104FA0003787268789819A812F813885FC01318B4B
:104FB000208B89819A8129853A85FC01338B228B4C
:104FC00089819A812B853C85FC01358B248B8981D5
:104FD0009A812D853E85FC01378B268B89819A81AC
:104FE000FC01118E89819A81FC01128E89819A813E
:104FF000FC01138E89819A81FC01148E00002E968B
:105000000FB6F894DEBF0FBECDBFDF91CF911F91D9
:105010000F91FF90EF90DF90CF900895CF93DF93A3
:1050200000D01F92CDB7DEB79C838B838B819C8190
:10503000FC0180899189FC018081882F90E0847037
:10504000992721E0892B09F020E0222371F18B813F
:105050009C81FC0186899789FC01808189838B81F1
:105060009C81FC01818D8F5F8F738A838B819C81F2
:10507000FC01928D81E02A81291709F480E08823C0
:10508000D9F08B819C81FC01818D882F90E02B8150
:105090003C81820F931F4D962981FC0120838B81D7
:1050A0009C812A81FC01218F07C08B819C81FC019E
:1050B00086899789FC01808100000F900F900F90E6
:1050C0000F90DF91CF9108951F920F920FB60F921C
:1050D00011240BB60F922F933F934F935F936F93CF
:1050E0007F938F939F93AF93BF93EF93FF93CF9350
:1050F000DF93CDB7DEB78CEC93E090DF0000DF915B
:10510000CF91FF91EF91BF91AF919F918F917F913F
:105110006F915F914F913F912F910F900BBE0F9028
:105120000FBE0F901F9018951F920F920FB60F92FF
:1051300011240BB60F922F933F934F935F936F936E
:105140007F938F939F93AF93BF93EF93FF93CF93EF
:10515000DF93CDB7DEB78CEC93E0DADB0000DF91B4
:10516000CF91FF91EF91BF91AF919F918F917F91DF
:105170006F915F914F913F912F910F900BBE0F90C8
:105180000FBE0F901F901895CF92DF92EF92FF9273
:105190000F931F93CF93DF9300D01F92CDB7DEB74D
:1051A0009A8389837C836B8389819A810197C9F46F
:1051B0008B819C810196A9F40F2EF6ECCF2ED12C79
:1051C000F02D0F2EF2ECEF2EF12CF02D01EC10E073
:1051D00020EC30E044EC50E065EC70E08CEC93E0C7
:1051E000AADE00000F900F900F900F90DF91CF91EB
:1051F0001F910F91FF90EF90DF90CF900895CF9384
:10520000DF93CDB7DEB76FEF7FEF81E090E0BCDFDB
:10521000DF91CF9108951F920F920FB60F92112434
:105220000BB60F922F933F934F935F936F937F93A0
:105230008F939F93AF93BF93EF93FF93CF93DF939E
:10524000CDB7DEB789E694E0E9DE0000DF91CF91CB
:10525000FF91EF91BF91AF919F918F917F916F914E
:105260005F914F913F912F910F900BBE0F900FBE0A
:105270000F901F9018951F920F920FB60F92112446
:105280000BB60F922F933F934F935F936F937F9340
:105290008F939F93AF93BF93EF93FF93CF93DF933E
:1052A000CDB7DEB789E694E033DB0000DF91CF9124
:1052B000FF91EF91BF91AF919F918F917F916F91EE
:1052C0005F914F913F912F910F900BBE0F900FBEAA
:1052D0000F901F901895CF92DF92EF92FF920F934D
:1052E0001F93CF93DF9300D01F92CDB7DEB79A8381
:1052F00089837C836B8389819A810197C9F48B812F
:105300009C810196A9F40F2EFEECCF2ED12CF02D0E
:105310000F2EFAECEF2EF12CF02D09EC10E028EC1A
:1053200030E04CEC50E06DEC70E089E694E003DE98
:1053300000000F900F900F900F90DF91CF911F9171
:105340000F91FF90EF90DF90CF900895CF93DF9370
:10535000CDB7DEB76FEF7FEF81E090E0BCDFDF918C
:10536000CF9108951F920F920FB60F9211240BB692
:105370000F922F933F934F935F936F937F938F93EE
:105380009F93AF93BF93EF93FF93CF93DF93CDB7EB
:10539000DEB786E095E042DE0000DF91CF91FF911D
:1053A000EF91BF91AF919F918F917F916F915F919D
:1053B0004F913F912F910F900BBE0F900FBE0F900A
:1053C0001F9018951F920F920FB60F9211240BB6D3
:1053D0000F922F933F934F935F936F937F938F938E
:1053E0009F93AF93BF93EF93FF93CF93DF93CDB78B
:1053F000DEB786E095E08CDA0000DF91CF91FF9177
:10540000EF91BF91AF919F918F917F916F915F913C
:105410004F913F912F910F900BBE0F900FBE0F90A9
:105420001F901895CF92DF92EF92FF920F931F93E8
:10543000CF93DF9300D01F92CDB7DEB79A838983D5
:105440007C836B8389819A810197C9F48B819C81CC
:105450000196A9F40F2EF6EDCF2ED12CF02D0F2EA4
:10546000F2EDEF2EF12CF02D01ED10E020ED30E00B
:1054700044ED50E065ED70E086E095E05CDD000015
:105480000F900F900F900F90DF91CF911F910F9180
:10549000FF90EF90DF90CF900895CF93DF93CDB73B
:1054A000DEB76FEF7FEF81E090E0BCDFDF91CF915F
:1054B00008951F920F920FB60F9211240BB60F9200
:1054C0002F933F934F935F936F937F938F939F930C
:1054D000AF93BF93EF93FF93CF93DF93CDB7DEB737
:1054E00083EA95E09BDD0000DF91CF91FF91EF9182
:1054F000BF91AF919F918F917F916F915F914F91EC
:105500003F912F910F900BBE0F900FBE0F901F90E9
:1055100018951F920F920FB60F9211240BB60F928F
:105520002F933F934F935F936F937F938F939F93AB
:10553000AF93BF93EF93FF93CF93DF93CDB7DEB7D6
:1055400083EA95E0E5D90000DF91CF91FF91EF91DB
:10555000BF91AF919F918F917F916F915F914F918B
:105560003F912F910F900BBE0F900FBE0F901F9089
:105570001895CF92DF92EF92FF920F931F93CF93E4
:10558000DF9300D01F92CDB7DEB79A8389837C83E7
:105590006B8389819A810197D9F48B819C810196D3
:1055A000B9F40F2EF6E3CF2EDD24D394F02D0F2E79
:1055B000F2E3EF2EFF24F394F02D01E311E020E35A
:1055C00031E044E351E065E371E083EA95E0B3DC68
:1055D00000000F900F900F900F90DF91CF911F91CF
:1055E0000F91FF90EF90DF90CF900895CF93DF93CE
:1055F000CDB7DEB76FEF7FEF81E090E0BADFDF91EC
:10560000CF910895CF93DF9300D000D01F921F92C7
:10561000CDB7DEB79C838B837E836D8358874F83A2
:105620001A8219828F8198859C012150310938870F
:105630002F8321E0892B09F420E0222319F18B81AB
:105640009C81FC0180819181FC01208131818D81CF
:105650009E81AC014F5F5F4F5E834D83FC014081B3
:105660008B819C81642FF901199521E0892B09F424
:1056700020E0222331F089819A8101969A838983DF
:10568000D1CF000089819A8128960FB6F894DEBFA9
:105690000FBECDBFDF91CF910895AF92BF92CF9251
:1056A000DF92EF92FF920F931F93CF93DF93CDB7CB
:1056B000DEB760970FB6F894DEBF0FBECDBF69832B
:1056C0007A838B839C832D833E834F835887E9861F
:1056D000FA860B871C87AD86BE86CF86D88A29813D
:1056E0003A814B815C818D819E81AF81B885790142
:1056F0008A01E81AF90A0A0B1B0B2E8D3F8D48A16F
:1057000059A18D859E85AF85B88959016A01A81A6E
:10571000B90ACA0ADB0AD601C501A8019701BC0172
:10572000CD0130D07B018C0129853A854B855C8584
:105730008D819E81AF81B885281B390B4A0B5B0B8D
:10574000C801B70150D0DA01C9019C01AD018D85B6
:105750009E85AF85B889820F931FA41FB51FBC011A
:10576000CD0160960FB6F894DEBF0FBECDBFDF91BE
:10577000CF911F910F91FF90EF90DF90CF90BF904E
:10578000AF900895DB018F939F9351D0BF91AF915C
:10579000A29F800D911DA39F900DB29F900D11248B
:1057A0000895A1E21A2EAA1BBB1BFD010DC0AA1F62
:1057B000BB1FEE1FFF1FA217B307E407F50720F07A
:1057C000A21BB30BE40BF50B661F771F881F991FF5
:1057D0001A9469F760957095809590959B01AC013E
:1057E000BD01CF010895052E97FB16F400940FD04C
:1057F00057FD05D0D6DF07FC02D046F408C050950F
:105800004095309521953F4F4F4F5F4F08959095AC
:105810008095709561957F4F8F4F9F4F0895EE0F44
:10582000FF1F881F8BBF0790F691E02D199409D0B8
:10583000A59F900DB49F900DA49F800D911D1124E4
:105840000895A29FB001B39FC001A39F700D811D59
:105850001124911DB29F700D811D1124911D089579
:1058600081E090E0F89410C0FB01DC0102C00190DF
:105870000D9241505040D8F70895DC0101C06D935E
:0C58800041505040E0F70895F894FFCF2D
:10588C000000AE02000080BF570200000000A5120D
:10589C00DC1225118E1322133B136713000000003A
:1058AC006424022B25113411642464246424000024
:1058BC000000CD26022B34266926AB25FA25CD25F2
:0C58CC00000000006424022B25113411A0
:00000001FF
