:1000000018C1000047C1000045C1000043C1000005
:1000100041C100003FC100003DC100003BC10000E4
:1000200039C1000037C1000035C1000033C10000F4
:1000300031C100002FC100002DC100002BC1000004
:1000400029C100000C94C66725C1000023C100002F
:1000500021C100001FC100001DC100000C94796B7C
:1000600019C100000C94DF730C940F7413C10000CD
:1000700011C100000FC100000DC100000BC1000044
:100080000C94FA6707C1000005C1000003C100001D
:100090000C9486740C94B674FDC000000C941C641F
:1000A000F9C00000F7C000000C942E68F3C00000F7
:1000B000F1C00000EFC00000EDC000000C946268C9
:1000C000E9C00000E7C00000E5C000000C942D75F9
:1000D0000C945D75DFC000000C94D4750C9404760C
:1000E000D9C00000036EDB363D9A9999993DABAAC1
:1000F000AA2A3E000000803F072C7AA5BA6CC59062
:10010000DA3B9365FC8BBC53F810FD3C5692834D53
:10011000BD879D3AB63DCBC9BF5BBE73DA0FC93F01
:1001200000002100240027002A002D0030003300A9
:1001300001010000040107010A010000220025005E
:1001400028002B002E0031003400020100000501C0
:1001500008010B0105050505070508080808020246
:1001600002020A0A08080404040401010101010151
:1001700001010303030303030303040707070C0C34
:100180000C0C0C0C0C0C02020202060606060606FB
:1001900006060B0B0B0B0B0B0B0B010210202008A0
:1001A00008102040102040800201020108040201D2
:1001B0000102040810204080804020100804020141
:1001C000800402018040201008040201080402019A
:1001D0000102040810204080010204081020408021
:1001E00000000A0B02090C0D0E08070304010000B1
:1001F00000000000000000000000000000000000FF
:1002000000000000000000000000000012111000BB
:1002100000000000000000000000000000000000DE
:100220000000000000009904365F7A742175C875DB
:10023000717611241FBECFEFD1E2DEBFCDBF00E04B
:100240000CBF12E0A0E0B2E0EAEBFFEE00E00BBF73
:1002500002C007900D92A83FB107D9F72BE0A8EF95
:10026000B2E001C01D92A039B207E1F711E0C9E187
:10027000D1E000E006C021970109802FFE010E9415
:10028000A677C331D10780E00807A9F70E940C5870
:100290000C94DB77B5CECF93DF9300D000D0CDB7F1
:1002A000DEB769837A838B839C835E834D838981E8
:1002B0009A81AB81BC81892B8A2B8B2B21F589817B
:1002C0009A81880F991F880F991F80509E4FFC01BB
:1002D00080818823C1F489819A81880F991F880FB2
:1002E000991F8E5F9D4FFC01808191810E94945CDB
:1002F00089819A81880F991F880F991F80509E4F7E
:1003000021E0FC01208389819A81880F991F880F41
:10031000991F80509E4F26960FB6F894DEBF0FBEF1
:10032000CDBFDF91CF910895CF93DF9300D000D060
:10033000CDB7DEB79A8389834B835C836D837E83DD
:1003400089819A81892BF9F089819A81FC018181C7
:10035000882341F480EA96E8A1E0B0E08B839C8397
:10036000AD83BE8389819A81FC01228133818B8197
:100370009C81AD81BE81AC01BD01C9010E94B15C0F
:1003800080E090E002C088E090E026960FB6F894F6
:10039000DEBF0FBECDBFDF91CF910895CF92EF9218
:1003A0000F931F93CF93DF93CDB7DEB762970FB64E
:1003B000F894DEBF0FBECDBF98878F837A87698799
:1003C0005C874B870D871E872F87388BE98ACA8AFF
:1003D0008F819885892B09F49DC08F819885FC01B8
:1003E000828193813D852985432F622F0E94685D1C
:1003F00019821A821B821C828F819885FC0142819E
:1004000053818F819885FC0182819381FC018081D9
:1004100091810896FC0120813181CA01F901199569
:1004200021E0892B09F420E0222309F465C08F81A3
:100430009885FC01428153818F819885FC018281DE
:100440009381FC01808191810896FC01208131819A
:10045000CA01F9011995892B79F029813A814B81DB
:100460005C818D859E85AF85B889281739074A0735
:100470005B0710F481E001C080E0882309F447C0E5
:100480008F819885FC01428153818F819885FC0181
:1004900082819381FC01808191810A96FC012081F7
:1004A0003181CA01F90119959E838D838D819E81C9
:1004B000019659F48B859C8544E050E060E070E043
:1004C0000E94D47788E090E027C089819A81AB812F
:1004D000BC819C01AD012F5F3F4F4F4F5F4F298380
:1004E0003A834B835C839C018B859C85820F931F91
:1004F0002D81FC0120839BCF8B859C8544E050E0BF
:1005000060E070E00E94D47788E090E005C080E071
:1005100090E002C088E090E062960FB6F894DEBFEB
:100520000FBECDBFDF91CF911F910F91EF90CF9074
:100530000895CF92EF920F931F93CF93DF93CDB790
:10054000DEB72D970FB6F894DEBF0FBECDBF9B83ED
:100550008A837D836C835F834E83088719872A870C
:100560003B87EC86CD868A819B81892B09F44FC01D
:1005700019828A819B81DC0112968D919C912C813C
:10058000622F0E947F5D8A819B81DC011296ED9132
:10059000FC918A819B81DC0112968D919C91DC01FA
:1005A0008D919C910296DC012D913C914885598555
:1005B0008E819F81BC01CF01F90119958C8588231B
:1005C00059F08A819B81DC0112968D919C9160E0AB
:1005D0000E94985D898309C08A819B81FC01828188
:1005E000938161E00E94985D89838981882319F451
:1005F00080E090E00EC08981823019F089818330DB
:1006000019F484E090E005C088E090E002C088E042
:1006100090E02D960FB6F894DEBF0FBECDBFDF91F0
:10062000CF911F910F91EF90CF900895CF93DF93CB
:100630001F921F92CDB7DEB79A83898300000F9077
:100640000F90DF91CF910895CF93DF9300D000D02A
:1006500000D01F92CDB7DEB79C838B834D835E8322
:100660006F8378873A8729871092F9021092F802EF
:1006700089859A859A8389838B819C8181309105B4
:1006800061F1823091051CF4892B49F086C08230DB
:10069000910509F440C0039709F45AC07EC08091C7
:1006A000F8029091F90281709927892B09F06EC0A8
:1006B0008091F8029091F90281609093F902809301
:1006C000F80229818D819E81AF81B885AC01BD0181
:1006D00082E198E00E946A7060C08091F802909177
:1006E000F90282709927892B09F052C08091F80293
:1006F0009091F90282609093F9028093F802298127
:100700008D819E81AF81B885AC01BD018FEA98E0F3
:100710000E946A7042C08091F8029091F902847040
:100720009927892BB9F58091F8029091F90284609C
:100730009093F9028093F80229818D819E81AF8187
:10074000B885AC01BD018CE499E00E946A7025C0B7
:100750008091F8029091F90288709927892BE1F431
:100760008091F8029091F90288609093F902809349
:10077000F80229818D819E81AF81B885AC01BD01D0
:1007800089EE99E00E946A70000007C0000005C071
:10079000000003C0000001C000002A960FB6F894C4
:1007A000DEBF0FBECDBFDF91CF910895EF92FF92D4
:1007B0000F931F93CF93DF9300D000D01F921F920F
:1007C000CDB7DEB76D837E838F83988719821A82B7
:1007D0001B821C820E94EA6BDC01CB0189839A8315
:1007E000AB83BC830E94EA6B9B01AC0189819A8137
:1007F000AB81BC8179018A01E81AF90A0A0B1B0B4B
:10080000D801C70161E02D813E814F8158852817AD
:1008100039074A075B0708F460E0662309F0E2CF76
:10082000000028960FB6F894DEBF0FBECDBFDF9153
:10083000CF911F910F91FF90EF900895CF93DF9389
:10084000CDB7DEB70E94EA6BDC01CB01BC01CD0164
:10085000DF91CF910895CF93DF931F921F92CDB771
:10086000DEB789836A838981282F30E0C901880F28
:10087000991F820F931F86509D4F2A81222F30E0AF
:10088000B9010E94876900000F900F90DF91CF910E
:100890000895CF93DF931F921F92CDB7DEB7898360
:1008A0006A838981282F30E0C901880F991F820F40
:1008B000931F86509D4F2A81222F30E0B9010E945C
:1008C000336A00000F900F90DF91CF910895EF925F
:1008D000FF920F931F93CF93DF9300D01F92CDB75A
:1008E000DEB79A8389837C836B8389819A810197A0
:1008F000A1F48B819C81019681F48AEF92E000E063
:1009000010E07C0111234CF0C7010E94536983E081
:10091000E80EF11C01501109F5CF00000F900F9067
:100920000F900F90DF91CF911F910F91FF90EF905B
:100930000895CF93DF93CDB7DEB76FEF7FEF81E000
:1009400090E0C5DFDF91CF910895CF93DF9300D082
:1009500000D0CDB7DEB79C838B837E836D831A82F4
:10096000198289819A8126960FB6F894DEBF0FBE50
:10097000CDBFDF91CF910895CF93DF9300D000D00A
:100980001F921F92CDB7DEB79E838D8378876F83CA
:100990001C821B828D819E81892B19F48FEF9FEF22
:1009A000B2C08F819885892B19F48FEF9FEFABC070
:1009B0008091080290910902A0910A02B0910B0265
:1009C0008E3F9F4FAF4FBF4F61F48FEF9FEFDC0122
:1009D0008093080290930902A0930A02B0930B023D
:1009E0000FC08091080290910902A0910A02B09173
:1009F0000B022F813885F90180839183A283B38311
:100A00008091080290910902A0910A02B0910B0214
:100A10008D819E81FC0182819381FC018081918185
:100A2000A281B3818093500390935103A09352030A
:100A3000B09353038D819E81FC0182819381FC01DF
:100A400084819581A681B781809354039093550347
:100A5000A0935603B09357038D819E81FC01828140
:100A60009381FC0180859185A285B385809358038D
:100A700090935903A0935A03B0935B038D819E8199
:100A8000FC0182819381FC0184859585A685B785CB
:100A900080935C0390935D03A0935E03B0935F0328
:100AA000109260031092610310926203109263032C
:100AB0000E94FE1B1A8219821A82198210C0898133
:100AC0009A81880F991F83509D4F29E23CE1FC01D8
:100AD0003183208389819A8101969A8389838981D0
:100AE0009A81029760F30E9405179C838B838B8108
:100AF0009C81892B31F481E090E090934F038093A7
:100B00004E038B819C8128960FB6F894DEBF0FBEF2
:100B1000CDBFDF91CF910895CF93DF93CDB7DEB7EF
:100B20002C970FB6F894DEBF0FBECDBF69877A87CA
:100B30008B879C871A8219821B821C821D821E82CF
:100B40001F8290914C0381E0992309F080E088870F
:100B500082E090E090934F0380934E0389859A85BD
:100B6000AB85BC85892B8A2B8B2B59F480914C0348
:100B7000882339F480914D03882319F481E090E0B3
:100B800002C080E090E08F8331C06AE070E080E0D6
:100B900090E00E94746C8B819C81AD81BE81805FEE
:100BA000984DAF4FBF4F8B839C83AD83BE838985A8
:100BB0009A85AB85BC858F3F9F4FAF4FBF4F81F06C
:100BC0002B813C814D815E8189859A85AB85BC8571
:100BD00082179307A407B50718F481E090E002C0DC
:100BE00080E090E08F8380E00E944D1780914C035D
:100BF000882339F480914D03882319F48F81882349
:100C000021F283E090E090934F0380934E038F8115
:100C1000882321F08CE99FEF9A8389838885882334
:100C200011F00E94251D89819A812C960FB6F894A7
:100C3000DEBF0FBECDBFDF91CF910895CF93DF937D
:100C4000CDB7DEB761970FB6F894DEBF0FBECDBF4C
:100C50009D878C874E875F87688B798B1A82198274
:100C600081E08B838C859D858F3F910521F018F065
:100C70008FEF9FEF63C080914E0390914F030397D6
:100C800031F080914E0390914F03019731F484E04D
:100C900090E090934F0380934E038C859D8502973F
:100CA00008F58C859D85880F991F83509D4FFC0109
:100CB00080819181892BB1F00E94DF219D838C83FB
:100CC0008C819D81029771F48C859D85880F991F79
:100CD00083509D4FFC01208131818C859D85F901D8
:100CE00019958B838C859D859F838E832C853D856F
:100CF0008E859F85A889B989A901BC01CD010E9473
:100D0000E216DC01CB0188879987AA87BB878B8194
:100D1000882371F088859985AA85BB852E813F81BE
:100D2000AC01BD01C9010E94AF219A83898304C02F
:100D30008E819F810E94212289819A8161960FB6BE
:100D4000F894DEBF0FBECDBFDF91CF910895CF9352
:100D5000DF931F921F92CDB7DEB71A82198280E00F
:100D60000E944D179A83898389819A810F900F90F1
:100D7000DF91CF910895CF93DF931F921F92CDB74C
:100D8000DEB71A82198286E090E090934F03809339
:100D90004E030E94DD179A83898344E050E060E0AF
:100DA00070E08DEF92E00E94D4770E94B71C109201
:100DB0004F0310924E0389819A810F900F90DF911B
:100DC000CF910895CF93DF93CDB7DEB780914D03D8
:100DD000DF91CF910895CF93DF93CDB7DEB78091A8
:100DE0006403DF91CF910895CF93DF9300D01F92DA
:100DF000CDB7DEB769837A838B839C8389819A819F
:100E0000AB81BC818093080290930902A0930A02EF
:100E1000B0930B0280E090E00F900F900F900F9036
:100E2000DF91CF910895CF93DF93CDB7DEB781E007
:100E300093E0FC0127A52F5FFC0127A781E093E049
:100E4000FC0187A5843020F081E093E0FC0117A627
:100E50000000DF91CF910895CF93DF9300D000D0B1
:100E6000CDB7DEB79E838D838D819E81FC01138E6D
:100E70008D819E81FC01158E8D819E81FC011182E8
:100E80001282138214822D813E8180E090E0A0E8DE
:100E9000BFEBF90186839783A087B1878D819E81FF
:100EA000FC0112868D819E819A8389838D819E812A
:100EB0000B969C838B832D813E8180E090E5A3EC93
:100EC000B8E4F901868B978BA08FB18F8D819E81BD
:100ED000FC0114861586168617868B819C81FC0181
:100EE000168215828D819E81FC0113868D819E81E3
:100EF000FC01108289819A8126960FB6F894DEBF94
:100F00000FBECDBFDF91CF910895CF92EF920F9397
:100F10001F93CF93DF93CDB7DEB765970FB6F894E5
:100F2000DEBF0FBECDBF9D8B8C8B8C899D89FC0154
:100F300015822C893D8981E090E0A0E0B0E0F901C4
:100F400081839283A383B4838C899D8921E0FC01F2
:100F5000248F8C899D890B969A8389831C821B829E
:100F60001D821E821F8218862B813C818D819E816D
:100F7000AF81B885A901BC01CD018DD99C018C89B7
:100F80009D89FC01318B208B2C893D8980EA96E874
:100F9000A1E0B0E0F901828B938BA48BB58B8C8997
:100FA0009D89FC0182899389A489B58989879A875B
:100FB000AB87BC8789819A81FC012581368189852F
:100FC0009A85AB85BC85AC01BD01C901ADD980E86E
:100FD0008A8B8A89888B8BE68F879E01215F3F4FA2
:100FE000CE010D9642E050E0B9010E94CB778C898A
:100FF0009D89FC0180899189AE01435F5F4FC12CBF
:10100000E12C02E010E020E030E068E670E091DAE8
:101010008B8B8B898823B9F08C899D89FC01848D09
:10102000882331F08C899D8921E0FC01258F0BC03C
:101030008C899D89FC01838D882329F42B898C89D7
:101040009D89FC01238F61E070E080E090E0AEDBE1
:101050001A8A8A89888B8BE68F879E01215F3F4F92
:10106000CE010D9642E050E0B9010E94CB778C8909
:101070009D89FC0180899189AE01435F5F4FC12C3E
:10108000E12C02E010E020E030E068E670E051DAA8
:101090008B8B8B898823B9F08C899D89FC01848D89
:1010A000882331F08C899D8921E0FC01258F0BC0BC
:1010B0008C899D89FC01838D882329F42B898C8957
:1010C0009D89FC01238F64E670E080E090E06EDB98
:1010D00085E78B8B8B89898B8C899D89FC01808925
:1010E0009189AE014F5E5F4FC12CEE24E39401E085
:1010F00010E020E030E068E670E01BDA8B8B8B8933
:101100008823A9F48C899D89FC0180899189AE018D
:101110004F5E5F4FCC24C394E12C01E010E020E04F
:1011200030E068E670E03AD989898A8B01C01A8A72
:101130008B898823B9F08C899D89FC01848D882353
:1011400031F08C899D8921E0FC01258F0BC08C89B1
:101150009D89FC01838D882329F42B898C899D89A5
:10116000FC01238F9A8981E0983609F080E0282FCE
:101170008C899D89FC01228F8C899D89FC01828D3F
:10118000882309F4D3C11A8A8A89888B89E18F87D9
:101190009E01215F3F4FCE010D9642E050E0B90124
:1011A0000E94CB778C899D89FC0180899189AE0151
:1011B000435F5F4FC12CE12C02E010E020E030E003
:1011C00068E670E0B6D98B8B8B898823B9F08C895F
:1011D0009D89FC01848D882331F08C899D8921E0D3
:1011E000FC01258F0BC08C899D89FC01838D882390
:1011F00029F42B898C899D89FC01238F8CE18B8BB1
:101200008B89898B8C899D89FC0180899189AE01AC
:101210004F5E5F4FC12CEE24E39401E010E020E02C
:1012200030E068E670E085D98B8B8B898823A9F440
:101230008C899D89FC0180899189AE014F5E5F4F49
:10124000CC24C394E12C01E010E020E030E068E61B
:1012500070E0A4D889898A8B01C01A8A8B89882377
:10126000B9F08C899D89FC01848D882331F08C89AB
:101270009D8921E0FC01258F0BC08C899D89FC0193
:10128000838D882329F42B898C899D89FC01238FE8
:101290008A89877E8A8B8A89888B8CE18F879E01D9
:1012A000215F3F4FCE010D9642E050E0B9010E9410
:1012B000CB778C899D89FC0180899189AE01435F40
:1012C0005F4FC12CE12C02E010E020E030E068E646
:1012D00070E02FD98B8B8B898823B9F08C899D89FD
:1012E000FC01848D882331F08C899D8921E0FC01EB
:1012F000258F0BC08C899D89FC01838D882329F45F
:101300002B898C899D89FC01238F8BE18B8B8B89A9
:10131000898B8C899D89FC0180899189AE014F5E02
:101320005F4FC12CEE24E39401E010E020E030E0B8
:1013300068E670E0FED88B8B8B898823A9F48C89B2
:101340009D89FC0180899189AE014F5E5F4FCC245D
:10135000C394E12C01E010E020E030E068E670E0AA
:101360001DD889898A8B01C01A8A8B898823B9F094
:101370008C899D89FC01848D882331F08C899D891D
:1013800021E0FC01258F0BC08C899D89FC01838D98
:10139000882329F42B898C899D89FC01238F8A89D4
:1013A000877E8A8B8A89888B8BE18F879E01215F5C
:1013B0003F4FCE010D9642E050E0B9010E94CB773D
:1013C0008C899D89FC0180899189AE01435F5F4FC3
:1013D000C12CE12C02E010E020E030E068E670E093
:1013E000A8D88B8B8B898823B9F08C899D89FC01C7
:1013F000848D882331F08C899D8921E0FC01258F23
:101400000BC08C899D89FC01838D882329F42B894D
:101410008C899D89FC01238F8AE18B8B8B89898B39
:101420008C899D89FC0180899189AE014F5E5F4F57
:10143000C12CEE24E39401E010E020E030E068E607
:1014400070E077D88B8B8B898823B1F48C899D8948
:10145000FC0180899189AE014F5E5F4FCC24C3941B
:10146000E12C01E010E020E030E068E670E00E944E
:10147000CE0189898A8B01C01A8A8B898823B9F0A9
:101480008C899D89FC01848D882331F08C899D890C
:1014900021E0FC01258F0BC08C899D89FC01838D87
:1014A000882329F42B898C899D89FC01238F8A89C3
:1014B000887F81608A8B8A89888B8AE18F879E01E9
:1014C000215F3F4FCE010D9642E050E0B9010E94EE
:1014D000CB778C899D89FC0180899189AE01435F1E
:1014E0005F4FC12CE12C02E010E020E030E068E624
:1014F00070E01FD88B8B8B898823E9F08C899D89BC
:10150000FC01848D882331F08C899D8921E0FC01C8
:10151000258F11C08C899D89FC01838D882359F406
:101520002B898C899D89FC01238F05C08C899D891D
:1015300021E0FC01258F8C899D89FC01148E8C890A
:101540009D8921E0FC012583000065960FB6F89483
:10155000DEBF0FBECDBFDF91CF911F910F91EF90F6
:10156000CF900895CF93DF9300D000D01F921F92A9
:10157000CDB7DEB76D837E838F8398878D819E8103
:10158000AF81B885BF7720E030E040E859E5BC0185
:10159000CD010E946B5988230CF056C020E030E04A
:1015A00040E05FE36D817E818F8198850E94595B69
:1015B0008823BCF020E030E040E05FE36D817E8175
:1015C0008F8198850E94DD58DC01CB01BC01CD01E3
:1015D0000E94405ADC01CB0189839A83AB83BC8390
:1015E0003BC020E030E040E05FEB6D817E818F8189
:1015F00098850E94595B181684F420E030E0A90118
:101600006D817E818F8198850E945D5BDC01CB01BD
:1016100089839A83AB83BC831FC020E030E040E025
:101620005FE36D817E818F8198850E94DC58DC01AB
:10163000CB01BC01CD010E945859DC01CB0189834B
:101640009A83AB83BC8308C08D819E81AF81B885AE
:1016500089839A83AB83BC8389819A81AB81BC8166
:10166000BC01CD0128960FB6F894DEBF0FBECDBFEA
:10167000DF91CF9108958F929F92AF92BF92CF92B8
:10168000DF92EF92FF920F931F93CF93DF93CDB72B
:10169000DEB7C257D1090FB6F894DEBF0FBECDBF7B
:1016A00080918C0A90918D0AA0918E0AB0918F0A38
:1016B00020910402309105024091060250910702E8
:1016C000BC01CD010E946B59882381F080910402F6
:1016D00090910502A0910602B091070280938C0AB6
:1016E00090938D0AA0938E0AB0938F0A8091900AEE
:1016F000882321F4A3D881E08093900A1092A10A54
:1017000081E99AE098878F83CE018E589F4F2BE313
:10171000FC012083CE018E589F4FFC012081CE0119
:101720008F589F4FFC0120838F819885FC01858114
:101730009681AE014F585F4FC12CEE24E39401E037
:1017400010E020E030E068E670E00E949902282F67
:10175000CE018E589F4FFC012083CE018E589F4FA3
:10176000FC0180818823F9F48F819885FC018581B3
:101770009681AE0149595F4FCC24C394E12C06E019
:1017800010E020E030E068E670E00E94CE019E01AB
:1017900029593F4FCE018F599F4F46E050E0B90184
:1017A0000E94CB7715C01E821D820EC09E012F594C
:1017B0003F4F8D819E81820F931FFC0110828D818E
:1017C0009E8101969E838D838D819E81069774F301
:1017D000CE018E589F4FFC018081882399F0809123
:1017E000A20A882321F081E08093A30A0BC0809194
:1017F000A10A882339F4CE018E589F4FFC018081C5
:101800008093A10ACE018F599F4FFC018081882FC0
:1018100090E0382F2227CE018F599F4FFC01818104
:10182000882F90E0822B932B092E000CAA0BBB0B68
:10183000BC01CD010E94055ADC01CB018093720BE3
:101840009093730BA093740BB093750BCE018F59CB
:101850009F4FFC018281882F90E0382F2227CE01F4
:101860008F599F4FFC018381882F90E0822B932B0F
:10187000092E000CAA0BBB0BBC01CD010E94055A1E
:10188000DC01CB018093760B9093770BA093780BC0
:10189000B093790BCE018F599F4FFC018481882F23
:1018A00090E0382F2227CE018F599F4FFC01858170
:1018B000882F90E0822B932B092E000CAA0BBB0BD8
:1018C000BC01CD010E94055ADC01CB0180937A0B4B
:1018D00090937B0BA0937C0BB0937D0B8091A30A1C
:1018E0008823C9F01092720B1092730B1092740B34
:1018F0001092750B1092760B1092770B1092780B5A
:101900001092790B10927A0B10927B0B10927C0B39
:1019100010927D0B6CC08091720B9091730BA09113
:10192000740BB091750B2AE038EE4CE151E4BC0128
:10193000CD010E945D5BDC01CB0120E030E040E89E
:1019400056E4BC01CD010E946F59DC01CB018093AC
:10195000720B9093730BA093740BB093750B8091E3
:10196000760B9091770BA091780BB091790B2AE0D0
:1019700038EE4CE151E4BC01CD010E945D5BDC011D
:10198000CB0120E030E040E856E4BC01CD010E94EC
:101990006F59DC01CB018093760B9093770BA0936A
:1019A000780BB093790B80917A0B90917B0BA0917F
:1019B0007C0BB0917D0B2AE038EE4CE151E4BC0188
:1019C000CD010E945D5BDC01CB0120E030E040E80E
:1019D00056E4BC01CD010E946F59DC01CB0180931C
:1019E0007A0B90937B0BA0937C0BB0937D0B81E9DA
:1019F0009AE098878F83CE018E589F4F23E4FC0195
:101A00002083CE018E589F4FFC012081CE018F583C
:101A10009F4FFC0120838F819885FC0185819681F1
:101A2000AE014F585F4FC12CEE24E39401E010E06B
:101A300020E030E068E670E00E949902282FCE0195
:101A40008E589F4FFC012083CE018E589F4FFC0182
:101A500080818823F9F48F819885FC0185819681A6
:101A6000AE0149595F4FCC24C394E12C06E010E04D
:101A700020E030E068E670E00E94CE019E01295926
:101A80003F4FCE018F599F4F46E050E0B9010E9471
:101A9000CB7715C01E821D820EC09E012F593F4F6D
:101AA0008D819E81820F931FFC0110828D819E810A
:101AB00001969E838D838D819E81069774F3CE015E
:101AC0008E589F4FFC018081882399F08091A20A53
:101AD000882321F081E08093A30A0BC08091A10AA2
:101AE000882339F4CE018E589F4FFC01808180936A
:101AF000A10ACE018F599F4FFC018081882F90E071
:101B0000382F2227CE018F599F4FFC018181882FCA
:101B100090E0822B932B092E000CAA0BBB0BBC016F
:101B2000CD010E94055ADC01CB0180937E0B90937E
:101B30007F0BA093800BB093810BCE018F599F4FE9
:101B4000FC018281882F90E0382F2227CE018F5907
:101B50009F4FFC018381882F90E0822B932B092ECD
:101B6000000CAA0BBB0BBC01CD010E94055ADC0185
:101B7000CB018093820B9093830BA093840BB09343
:101B8000850BCE018F599F4FFC018481882F90E0F7
:101B9000382F2227CE018F599F4FFC018581882F36
:101BA00090E0822B932B092E000CAA0BBB0BBC01DF
:101BB000CD010E94055ADC01CB018093860B9093E6
:101BC000870BA093880BB093890B8091A30A88237D
:101BD000C9F010927E0B10927F0B1092800B109226
:101BE000810B1092820B1092830B1092840B109237
:101BF000850B1092860B1092870B1092880B109217
:101C0000890B4EC080917E0B90917F0BA091800B31
:101C1000B091810B20E030E04AEF5BE3BC01CD01E5
:101C20000E945D5BDC01CB0180937E0B90937F0B68
:101C3000A093800BB093810B8091820B9091830BCA
:101C4000A091840BB091850B20E030E04AEF5BE37C
:101C5000BC01CD010E945D5BDC01CB018093820B56
:101C60009093830BA093840BB093850B8091860B8C
:101C70009091870BA091880BB091890B20E030E008
:101C80004AEF5BE3BC01CD010E945D5BDC01CB014F
:101C90008093860B9093870BA093880BB093890B4E
:101CA00081E99AE098878F83CE018E589F4F21E477
:101CB000FC012083CE018E589F4FFC012081CE0174
:101CC0008F589F4FFC0120838F819885FC0185816F
:101CD0009681AE014F585F4FC12CEE24E39401E092
:101CE00010E020E030E068E670E00E949902282FC2
:101CF000CE018E589F4FFC012083CE018E589F4FFE
:101D0000FC0180818823F1F48F819885FC01858115
:101D10009681AE0141595F4FCC24C394E12C02E07F
:101D200010E020E030E068E670E00E94CE019E0105
:101D300021593F4FCE0183599F4F42E050E0B901F6
:101D40000E94CB77CE018E589F4FFC018081882363
:101D500099F08091A20A882321F081E08093A30A60
:101D60000BC08091A10A882339F4CE018E589F4F71
:101D7000FC0180818093A10A8CE090E0A0E0B0E0BB
:101D800089879A87AB87BC8780E390E0A0E0B0E0CA
:101D90008D879E87AF87B88B84EA9AE09A8B898B70
:101DA0001B8A1C8A1D8A1E8A1F8A188E198E1A8EFB
:101DB00029853A858091040B9091050BA091060B23
:101DC000B091070BAC0189899A89840F951FA901ED
:101DD00062E77BE00E94CB772091040B3091050BEA
:101DE0004091060B5091070B89859A85AB85BC8580
:101DF000820F931FA41FB51F8093040B9093050BB4
:101E0000A093060BB093070B81E093E0FC0187A53C
:101E1000882309F051C08CE090E0A0E0B0E08B8F07
:101E20009C8FAD8FBE8F80E390E0A0E0B0E08F8FFD
:101E300098A3A9A3BAA384EA9AE09CA38BA31DA2AA
:101E40001EA21FA218A619A61AA61BA61CA6809140
:101E5000040B9091050BA091060BB091070B2F8DF1
:101E600038A149A15AA1281739074A075B0799F4F5
:101E70001092040B1092050B1092060B1092070B98
:101E80002F8D38A18BA19CA1A901BC0182E19BE00F
:101E90000E94CB7709C08F8D98A1AC0160E070E003
:101EA00082E19BE00E94D4771092040B1092050B04
:101EB0001092060B1092070B8CE090E0A0E0B0E0CF
:101EC0008DA79EA7AFA7B8AB80E390E0A0E0B0E0FD
:101ED00089AB9AABABABBCAB84ED9AE09EAB8DAB60
:101EE0001FAA18AE19AE1AAE1BAE1CAE1DAE1EAEAA
:101EF0002DA53EA58091080B9091090BA0910A0B8E
:101F0000B0910B0BAC018DA99EA9840F951FA9015F
:101F10006EE77BE00E94CB772091080B3091090B94
:101F200040910A0B50910B0B8DA59EA5AFA5B8A9AA
:101F3000820F931FA41FB51F8093080B9093090B6A
:101F4000A0930A0BB0930B0B81E093E0FC0187A5F3
:101F5000882309F075C09E01215C3F4F8CE090E022
:101F6000A0E0B0E0F90180839183A283B3839E0156
:101F70002D5B3F4F80E390E0A0E0B0E0F90180836B
:101F80009183A283B383CE01895B9F4F24ED3AE016
:101F9000FC0131832083CE01875B9F4FFC011082BF
:101FA000118212821382CE01835B9F4FFC0110824B
:101FB0001182128213828091080B9091090BA091DB
:101FC0000A0BB0910B0B9E012D5B3F4FF901208155
:101FD000318142815381281739074A075B07D9F4B9
:101FE0001092080B1092090B10920A0B10920B0B17
:101FF000CE018D5B9F4FFC0120813181CE01895B39
:102000009F4FFC0180819181A901BC0182E49BE08A
:102010000E94CB770DC0CE018D5B9F4FFC0180816C
:102020009181AC0160E070E082E49BE00E94D47793
:102030001092080B1092090B10920A0B10920B0BC6
:1020400081E093E0FC0187A5882309F04FC1C0908F
:10205000160BD090170BE090180BF090190B809195
:10206000420B9091430BA091440BB091450B2091F2
:10207000420B3091430B4091440B5091450BBC01F6
:10208000CD010E945D5BDC01CB012AE037ED43E22C
:102090005CE3BC01CD010E945D5BDC01CB019C01D6
:1020A000AD01C701B6010E94DC58DC01CB0125ED72
:1020B00037EE4CE151E4BC01CD010E946F59DC01C7
:1020C000CB01BC01CD010E944159DC01CB0121EEC5
:1020D0003EE245E652E4BC01CD010E945D5BDC01BD
:1020E000CB0124EA30E74DE050ECBC01CD010E9469
:1020F0005D5BDC01CB016C017D0180914A0B90910D
:102100004B0BA0914C0BB0914D0B23EC35EF48E3FA
:1021100050ECBC01CD010E945D5BDC01CB019C0158
:10212000AD01C701B6010E94DD58DC01CB018983F6
:102130009A83AB83BC839E012F5A3F4F89819A813A
:10214000AB81BC81BF77F90180839183A283B38384
:10215000CE018F5A9F4F20E030E040E751E4FC0170
:1021600060817181828193810E94595B1816F4F419
:10217000CE018F5A9F4F29813A814B815C81FC01AE
:1021800060817181828193810E946F59DC01CB0152
:1021900020E030E040E751E4BC01CD010E945D5BEE
:1021A000DC01CB0189839A83AB83BC8320E030E0E0
:1021B00044EB52E469817A818B819C810E94DD58D5
:1021C000DC01CB0180938A0B90938B0BA0938C0B3B
:1021D000B0938D0B80918A0B90918B0BA0918C0BFF
:1021E000B0918D0B20E030E0A901BC01CD010E942F
:1021F0006B59882334F4CE018E589F4FFC01108216
:102200006CC080918A0B90918B0BA0918C0BB0913C
:102210008D0B20E030E044E353E4BC01CD010E948B
:10222000595B18163CF4CE018E589F4F24EBFC01ED
:10223000208353C080918A0B90918B0BA0918C0BC3
:10224000B0918D0B8E010F5A1F4FBC01CD018AD961
:10225000DC01CB01F80180839183A283B383CE019B
:102260008F5A9F4F20E030E040E853E4FC0160814A
:102270007181828193810E946B59882344F5CE013C
:102280008F5A9F4F20E030E0A901FC0160817181ED
:10229000828193810E94595B88239CF0CE018F5AE2
:1022A0009F4FFC0160817181828193810E94D75987
:1022B000DC01CB01282FCE018E589F4FFC012083DB
:1022C0000CC0CE018E589F4FFC01108206C0CE017B
:1022D0008E589F4F2FEFFC012083CE018E589F4FC9
:1022E000FC018081682F80E00E944904CE018B5A56
:1022F0009F4FFC011182108281E093E0FC01828DEE
:10230000938DA48DB58DBC01CD010E94035A6B0144
:102310007C0181E093E0FC01868D978DA0A1B1A1A5
:10232000BC01CD010E94035ADC01CB0120E030E06A
:1023300040E85FE4BC01CD010E945D5BDC01CB01A4
:102340009C01AD01C701B6010E94DD58DC01CB0143
:1023500020E030E0A901BC01CD010E94DD58DC0184
:10236000CB018E01095A1F4FBC01CD010E94D759E4
:10237000DC01CB01F80180839183A283B3838E01BA
:102380000B5A1F4FCE01895A9F4FFC0180819181CA
:10239000A281B381AC01BD0180E090E00E941E06E5
:1023A000F8019183808381E093E0FC0187A5882375
:1023B00009F067C0CE01855A9F4FFC01118210823F
:1023C00081E093E0FC0186A197A1A0A5B1A5BC0185
:1023D000CD010E94035A6B017C0181E093E0FC0176
:1023E00082A593A5A4A5B5A5BC01CD010E94035A61
:1023F000DC01CB0120E030E040E85FE4BC01CD012E
:102400000E945D5BDC01CB019C01AD01C701B601FF
:102410000E94DD58DC01CB0120E030E040E850E4D0
:10242000BC01CD010E945D5BDC01CB0120E030E00E
:10243000A901BC01CD010E94DD58DC01CB018E0158
:10244000035A1F4FBC01CD010E94D759DC01CB01BB
:10245000F80180839183A283B3838E01055A1F4FB5
:10246000CE01835A9F4FFC0180819181A281B3816B
:10247000AC01BD0181E090E00E941E06F80191834D
:10248000808321E033E0F901828D938DA48DB58D99
:102490000196A11DB11DF901828F938FA48FB58F75
:1024A000F901828D938DA48DB58D892B8A2B8B2B71
:1024B00079F421E033E0F901868D978DA0A1B1A1D7
:1024C0000196A11DB11DF901868F978FA0A3B1A31D
:1024D00081E093E0FC01828D938DA48DB58DBC01CC
:1024E000CD010E94035A7B018C0181E093E0FC0145
:1024F00082A193A1A4A1B5A19C01AD01C801B7011E
:102500000E945D5BDC01CB016C017D0181E093E009
:10251000FC01868D978DA0A1B1A1BC01CD010E94C7
:10252000035A4B015C0181E093E0FC0182A193A17D
:10253000A4A1B5A19C01AD01C501B4010E945D5BE0
:10254000DC01CB0120E030E040E85FE4BC01CD01DC
:102550000E945D5BDC01CB0101E013E09C01AD0159
:10256000C701B6010E94DD58DC01CB01F801868B62
:10257000978BA08FB18F81E093E0FC0187A5882322
:1025800049F521E033E0F90186A197A1A0A5B1A505
:102590000196A11DB11DF90186A397A3A0A7B1A71C
:1025A00081E093E0FC0186A197A1A0A5B1A5892BAC
:1025B0008A2B8B2B79F421E033E0F90182A593A5D6
:1025C000A4A5B5A50196A11DB11DF90182A793A7E8
:1025D000A4A7B5A70E9413070000CE58DF4F0FB67F
:1025E000F894DEBF0FBECDBFDF91CF911F910F9149
:1025F000FF90EF90DF90CF90BF90AF909F908F9023
:102600000895CF93DF93CDB7DEB781E093E045E344
:1026100050E060E070E00E94D47721E033E080E099
:1026200090E0A0E8BFEBF90180AB91ABA2ABB3ABFC
:1026300021E033E08FE692E1A3E8BBE3F90182A356
:1026400093A3A4A3B5A321E033E08BE698E9ABEA1A
:10265000BDE4F90184839583A683B78321E033E049
:1026600085E690EFA3E3B3E8F90180879187A2871D
:10267000B38721E033E085E59AE9A0EAB6E4F90101
:1026800084879587A687B78721E033E084EF96E9B2
:10269000ADEFBBEBF901808B918BA28BB38B81E00B
:1026A00093E026E333E0FC013383228382E493E06A
:1026B000909337038093360387E392E0909343032C
:1026C0008093420387E392E0909345038093440311
:1026D00087E392E0909347038093460387E392E079
:1026E000909349038093480387E392E090934B03D0
:1026F00080934A0321E033E081E093E0FC01828192
:1027000093812C5E3F4FFC013583248321E033E02D
:1027100081E093E0FC01828193812C5F3F4FFC01BB
:102720003383228321E033E081E093E0FC01828166
:1027300093812A5E3F4FFC01378326834CE750E0AC
:1027400060E070E082E19BE00E94D4774CE850E0CA
:1027500060E070E086E89AE00E94D47781E08093A0
:10276000910A81E08093860A86E89AE00E942C070D
:1027700081E08093110B8091040290910502A09159
:102780000602B091070280938C0A90938D0AA09361
:102790008E0AB0938F0A86E89AE00E94850740E38C
:1027A00050E060E070E084EA9AE00E94D4771092F2
:1027B000040B1092050B1092060B1092070B40E3CE
:1027C00050E060E070E084ED9AE00E94D4771092CF
:1027D000080B1092090B10920A0B10920B0B81E060
:1027E0008093100B81E090E0A0E0B0E080930C0BB0
:1027F00090930D0BA0930E0BB0930F0B6AE080E04B
:102800000E942B040000DF91CF910895CF93DF93B6
:102810001F921F92CDB7DEB78091860A8823F1F40C
:1028200081E08093860A8091870A9091880AA0911E
:10283000890AB0918A0A0197A105B10579F48091BE
:102840008B0A882359F081E99AE09A8389838981E8
:102850009A81FC01858196810E94160381E99AE0A4
:102860009A83898389819A81FC0180818823D9F4A4
:1028700089819A8121E0FC01208389819A81FC0170
:1028800081819281A381B4810197A105B10559F499
:1028900029813A8182E090E0A0E0B0E0F9018183F3
:1028A0009283A383B48300000F900F90DF91CF91A8
:1028B00008950F931F93CF93DF9300D000D000D0E3
:1028C0001F92CDB7DEB79A8389834B835C836D8378
:1028D0007E830F83188729873A8729813A818B81E4
:1028E0009C81AD81BE81F90180839183A283B383F2
:1028F00089819A819C012C5F3F4F8F819885A985A2
:10290000BA85F90180839183A283B38300002A965C
:102910000FB6F894DEBF0FBECDBFDF91CF911F91F0
:102920000F910895EF92FF920F931F93CF93DF9330
:10293000CDB7DEB76A970FB6F894DEBF0FBECDBF36
:102940006D8B7E8B8F8B988F5A8F498F19821A824D
:102950001B821C82F894898D9A8D892B09F00BC1FA
:102960008091710390917203A0917303B0917403ED
:102970002D893E894F89588D281739074A075B07EB
:10298000C8F08091710390917203A0917303B0918C
:1029900074032D893E894F89588D79018A01E81A7F
:1029A000F90A0A0B1B0BD801C7018D839E83AF83E5
:1029B000B88718C08091710390917203A09173033E
:1029C000B09174032D893E894F89588D79018A0110
:1029D000E81AF90A0A0B1B0BD801C7018D839E83E5
:1029E000AF83B8878091750390917603A0917703A8
:1029F000B09178032D813E814F815885820F931FBE
:102A0000A41FB51F898B9A8BAB8BBC8B80917503F0
:102A100090917603A0917703B091780329893A8940
:102A20004B895C89281739074A075B0798F480911E
:102A3000790390917A03A0917B03B0917C03019676
:102A4000A11DB11D8093790390937A03A0937B031A
:102A5000B0937C0389899A89AB89BC89809375037B
:102A600090937603A0937703B09378032091790332
:102A700030917A0340917B0350917C0380917503E0
:102A800090917603A0917703B091780389019A0120
:102A9000AC01BD0189E693E00CDF8D899E89AF8989
:102AA000B88D8093710390937203A0937303B093D6
:102AB00074032D813E814F81588580EA9FE0DC01BF
:102AC0000E94AE779B01AC0180917D0390917E03C3
:102AD000A0917F03B0918003820F931FA41FB51FA5
:102AE00080937D0390937E03A0937F03B093800334
:102AF00080917D0390917E03A0917F03B09180032C
:102B000089839A83AB83BC838091080290910902E8
:102B1000A0910A02B0910B028F3F9F4FAF4FBF4F62
:102B200009F43CC18091080290910902A0910A0227
:102B3000B0910B028E3F9F4FAF4FBF4F09F42EC194
:102B4000209175033091760340917703509178037B
:102B50008091080290910902A0910A02B0910B02A3
:102B600061E0281739074A075B0708F460E0862F01
:102B70008093640313C119861A861B861C861D86E2
:102B80001E861F86188A80910C0290910D02A091DA
:102B90000E02B0910F028F3F9F4FAF4FBF4FE1F03A
:102BA00080910C0290910D02A0910E02B0910F0243
:102BB0009C01AD012F5F3F4F4F4F5F4F8D899E8925
:102BC000AF89B88DBC01CD010E946877DC01CB01D3
:102BD0008D8B9E8BAF8BB88F809171039091720318
:102BE000A0917303B09174032D893E894F89588D4C
:102BF000281739074A075B0708F447C0809171031B
:102C000090917203A0917303B09174032D893E8952
:102C10004F89588D79018A01E81AF90A0A0B1B0BB2
:102C2000D801C70189879A87AB87BC872091710338
:102C30003091720340917303509174038D899E8982
:102C4000AF89B88D79018A01E81AF90A0A0B1B0BC2
:102C5000D801C7018D879E87AF87B88B2D853E85AC
:102C60004F85588989859A85AB85BC8582179307DE
:102C7000A407B50728F019861A861B861C864BC048
:102C80001D861E861F86188A46C08091710390910A
:102C90007203A0917303B09174032D893E894F890B
:102CA000588D79018A01E81AF90A0A0B1B0BD80121
:102CB000C70189879A87AB87BC87209171033091C0
:102CC000720340917303509174038D899E89AF897B
:102CD000B88D79018A01E81AF90A0A0B1B0BD80191
:102CE000C7018D879E87AF87B88B2D853E854F8521
:102CF000588989859A85AB85BC8582179307A40777
:102D0000B50728F019861A861B861C8604C01D8606
:102D10001E861F86188A89859A85AB85BC85892B76
:102D20008A2B8B2BE1F029853A854B855C8580EADF
:102D30009FE0DC010E94AE779B01AC0180917D0396
:102D400090917E03A0917F03B0918003820F931F27
:102D5000A41FB51F89839A83AB83BC831FC0E090F7
:102D60007D03F0907E0300917F03109180032D85F9
:102D70003E854F85588980EA9FE0DC010E94AE774E
:102D8000DC01CB01A8019701281B390B4A0B5B0B17
:102D9000DA01C90189839A83AB83BC8378948981E2
:102DA0009A81AB81BC81BC01CD016A960FB6F894C3
:102DB000DEBF0FBECDBFDF91CF911F910F91FF906E
:102DC000EF900895CF93DF9300D000D0CDB7DEB75A
:102DD00069837A838B839C835E834D832D813E81BF
:102DE00089819A81AB81BC81A901BC01CD019ADDA9
:102DF000DC01CB01BC01CD0126960FB6F894DEBFF5
:102E00000FBECDBFDF91CF910895CF93DF9300D058
:102E100000D0CDB7DEB71C821B821E821D821A82B3
:102E20001982109265031092660310926703109244
:102E300068039E012B5F3F4FCE010396B9010E94AC
:102E4000EB552D813E818B819C81B9010E946743A6
:102E50009A83898389819A81892B19F089819A8142
:102E600013C09E012B5F3F4FCE010396B9010E9414
:102E70000F562D813E818B819C81B9010E94832058
:102E80009A83898389819A8126960FB6F894DEBF4A
:102E90000FBECDBFDF91CF910895CF93DF9300D0C8
:102EA0001F921F92CDB7DEB78D831A8219821B82C3
:102EB00060E070E0CB010E94746C1C820E9431457E
:102EC0009A83898389819A81892B39F089819A81B2
:102ED000029619F081E08B830DC08C81882321F448
:102EE00089819A81029619F081E090E002C080E029
:102EF00090E08C838B818823E1F40E94B6209A8332
:102F0000898389819A81892B39F089819A810296F6
:102F100019F081E08B830DC08C81882321F4898195
:102F20009A81029619F081E090E002C080E090E082
:102F30008C838B818823E1F40E94BC449A8389832B
:102F400089819A81892B39F089819A81029619F0B9
:102F500081E08B830DC08C81882321F489819A8143
:102F6000029619F081E090E002C080E090E08C834E
:102F70008D81882391F060E070E0CB010E94746C39
:102F80008B81882319F48C81882319F481E090E0E7
:102F900002C080E090E08B8302C081E08B838B8154
:102FA000882309F48ACF89819A810F900F900F901E
:102FB0000F900F90DF91CF910895CF93DF9300D0C2
:102FC00000D01F921F92CDB7DEB718861F82809166
:102FD0006403882329F060E070E0CB010E940222A4
:102FE0000E94DF219E838D8319821A821B821C829C
:102FF00018C06AE070E080E090E00E94746C898103
:103000009A81AB81BC81805F984DAF4FBF4F898360
:103010009A83AB83BC8381E040DF0E94DF219E83E3
:103020008D8389819A81AB81BC8181159D42A143A9
:10303000B14020F48D819E81892BD9F60E94EA212E
:1030400098878F830E94CC4698878F8310924C0379
:1030500010924D031092500310925103109252039C
:10306000109253031092540310925503109256037A
:1030700010925703109258031092590310925A035A
:1030800010925B0310925C0310925D0310925E033A
:1030900010925F031092600310926103109262031A
:1030A000109263038EEF9FEFAFEFBFEF80930802A4
:1030B00090930902A0930A02B0930B02109264034A
:1030C00048E050E060E070E089E693E00E94D47749
:1030D0001092710310927203109273031092740392
:1030E0001092750310927603109277031092780372
:1030F0001092790310927A0310927B0310927C0352
:1031000010927D0310927E0310927F031092800331
:103110008F81988528960FB6F894DEBF0FBECDBF7D
:10312000DF91CF910895CF93DF9300D000D01F920D
:103130001F92CDB7DEB78091830390918403A09155
:103140008503B09186039A83898389819A81892B2B
:1031500009F431C180918703882369F48091830346
:1031600090918403A0918503B0918603892B8A2BCB
:103170008B2B09F420C180919B0390919C030297B3
:1031800009F019C18091A503882309F014C1898130
:103190009A81FC0180819181A281B3818B839C8380
:1031A000AD83BE838091A103882309F4F0C0809190
:1031B000940390919503892B31F080919403909121
:1031C0009503029719F481E090E002C080E090E05E
:1031D0008F838091940390919503019731F08091B2
:1031E000940390919503029719F481E090E002C056
:1031F00080E090E088878F81882309F462C0809105
:10320000880390918903A0918A03B0918B039C015C
:10321000AD016B817C818D819E810E94595B8823E9
:10322000B4F080919D0390919E03A0919F03B09173
:10323000A003209188033091890340918A03509123
:103240008B03BC01CD010E946B59882344F180910E
:10325000880390918903A0918A03B0918B039C010C
:10326000AD016B817C818D819E810E94595B181616
:1032700044F580919D0390919E03A0919F03B0918E
:10328000A003209188033091890340918A035091D3
:103290008B03BC01CD010E946B59882391F480916E
:1032A000900390919103A0919203B0919303892B85
:1032B0008A2B8B2B19F481E08093A40381E0809307
:1032C000A5038885882309F462C0809188039091C2
:1032D0008903A0918A03B0918B039C01AD016B819E
:1032E0007C818D819E810E946B598823B4F48091EA
:1032F0009D0390919E03A0919F03B091A003209104
:1033000088033091890340918A0350918B03BC015B
:10331000CD010E94595B882344F5809188039091E8
:103320008903A0918A03B0918B039C01AD016B814D
:103330007C818D819E810E946B59882341F580910B
:103340009D0390919E03A0919F03B091A0032091B3
:1033500088033091890340918A0350918B03BC010B
:10336000CD010E94595B181694F4809190039091BE
:103370009103A0919203B0919303892B8A2B8B2BFD
:1033800019F481E08093A40381E08093A5039091D8
:10339000A50381E0992309F080E08093A1038B814C
:1033A0009C81AD81BE8180939D0390939E03A093E9
:1033B0009F03B093A003000028960FB6F894DEBFD9
:1033C0000FBECDBFDF91CF910895CF93DF931F92B2
:1033D000CDB7DEB7198280919B0390919C03892B16
:1033E000C9F4109296031092A503809114028823C9
:1033F00071F182E090E090939C0380939B03109284
:1034000014028091970390919803892B01F581E034
:1034100089831DC01092140280919603882349F07D
:103420001092A40310929C0310929B031092960397
:103430000EC08091970390919803892B19F481E035
:10344000898305C08091A50389831092A50380918B
:103450009B0390919C0382309105F9F08330910594
:1034600030F4009761F0019709F44CC1AEC183308C
:10347000910509F4EEC0049709F46AC0A6C18091D1
:103480001402882309F4ACC182E090E090939C037D
:1034900080939B0310921402A3C18981882309F4AD
:1034A000A1C18091900390919103A0919203B0915A
:1034B0009303181619061A061B06ECF4809197035D
:1034C000909198030197B9F48091900390919103A2
:1034D000A0919203B09193038093A6039093A703C6
:1034E000A093A803B093A90383E090E090939C037A
:1034F00080939B0377C18091100290911102A0915B
:103500001202B0911302892B8A2B8B2BD1F081E010
:103510008093A4038091100290911102A091120255
:10352000B09113028093A6039093A703A093A803DE
:10353000B093A90384E090E090939C0380939B0355
:1035400051C11092A40310929C0310929B034AC194
:103550008091A6039091A703A091A803B091A9031D
:10356000892B8A2B8B2B99F08091A6039091A7032E
:10357000A091A803B091A9030197A109B109809373
:10358000A6039093A703A093A803B093A9038091E7
:10359000A6039091A703A091A803B091A903892B3A
:1035A0008A2B8B2B09F020C18091990390919A036B
:1035B000019739F41092A40310929C0310929B037C
:1035C00013C180918C0390918D03A0918E03B091D3
:1035D0008F03892B8A2B8B2BC9F01092A403809127
:1035E0008C0390918D03A0918E03B0918F038093F3
:1035F000A6039093A703A093A803B093A90381E027
:1036000090E090939C0380939B03EEC08981882374
:10361000B9F08091100290911102A0911202B09124
:1036200013028093A6039093A703A093A803B093DB
:10363000A90384E090E090939C0380939B03D4C003
:103640001092A40382E090E090939C0380939B03EC
:10365000CBC08091A6039091A703A091A803B0913D
:10366000A903892B8A2B8B2B99F08091A60390912B
:10367000A703A091A803B091A9030197A109B109DB
:103680008093A6039093A703A093A803B093A903E4
:103690008091A6039091A703A091A803B091A903DC
:1036A000892B8A2B8B2B09F0A1C08091100290915D
:1036B0001102A0911202B0911302892B8A2B8B2B3D
:1036C000D1F081E08093A4038091100290911102C7
:1036D000A0911202B09113028093A6039093A703C6
:1036E000A093A803B093A90384E090E090939C0377
:1036F00080939B037BC01092A40310929C031092B2
:103700009B0374C08091A6039091A703A091A80386
:10371000B091A903892B8A2B8B2B99F08091A6035A
:103720009091A703A091A803B091A9030197A109C3
:10373000B1098093A6039093A703A093A803B09325
:10374000A9038091A6039091A703A091A803B0912B
:10375000A903892B8A2B8B2B09F04AC089818823E6
:1037600069F18091100290911102A0911202B09122
:103770001302892B8A2B8B2BD1F081E08093A40339
:103780008091100290911102A0911202B091130247
:103790008093A6039093A703A093A803B093A903D3
:1037A00084E090E090939C0380939B0321C010924F
:1037B000A40310929C0310929B031AC082E090E035
:1037C00090939C0380939B0313C01092A4031092C8
:1037D000A5031092960310929C0310929B0309C0BC
:1037E000000007C0000005C0000003C0000001C0C9
:1037F000000000000F90DF91CF910895CF93DF93E9
:10380000CDB7DEB710929D0310929E0310929F03D6
:103810001092A0031092A1038091970390919803B6
:103820009093A3038093A2031092A4031092A50384
:103830001092A6031092A7031092A8031092A90356
:1038400010929C0310929B0380E090E0DF91CF9157
:103850000895CF93DF9300D0CDB7DEB79B838A83E3
:103860008A819B81892B09F05BC02091970330915D
:1038700098038091A2039091A30341E02817390790
:1038800009F440E0498380919703909198039093C5
:10389000A3038093A2038981882381F01092A4035B
:1038A0001092A5031092A6031092A7031092A803EA
:1038B0001092A90310929C0310929B03809197038E
:1038C00090919803019761F580919B0390919C03DF
:1038D000892B21F480911402882391F480919B0319
:1038E00090919C030197E1F48091A6039091A70326
:1038F000A091A803B091A9030197A105B10581F496
:103900001092A6031092A7031092A8031092A90385
:103910001092140282E090E090939C0380939B03AA
:103920008091970390919803019751F480918103BE
:10393000909182032A813B812817390709F4F3DB30
:103940008A819B81892B21F440DD1092AB0307C053
:103950008091AB03882319F08091AA0302C0809163
:10396000A4030F900F900F90DF91CF910895CF9304
:10397000DF93CDB7DEB710929D0310929E03109295
:103980009F031092A0031092A10310929C03109227
:103990009B031092A3031092A20310928203109231
:1039A00081031092A4031092A5031092A603109213
:1039B000A7031092A8031092A9031092AA031092D1
:1039C000AB0310928303109284031092850310922C
:1039D0008603109287031092880310928903109235
:1039E0008A0310928B0388EE93E0A0E0B0E080930E
:1039F000100290931102A0931202B093130210923E
:103A00008C0310928D0310928E0310928F031092EC
:103A100090031092910310929203109293031092CC
:103A200095031092940381E0809314021092960300
:103A3000109298031092970310929A031092990390
:103A400080E090E0DF91CF910895CF93DF93CDB7E1
:103A5000DEB78091970390919803892B39F5809177
:103A60001402882359F080919603882339F481E069
:103A70008093AA0381E08093AB0318C080919603E2
:103A8000282F30E09091140281E0992309F080E022
:103A9000882F90E082239323892B31F01092AA0380
:103AA00081E08093AB0302C01092AB030000DF9172
:103AB000CF910895CF93DF93CDB7DEB72C970FB694
:103AC000F894DEBF0FBECDBF9E838D8378876F8352
:103AD0005A8749873C872B871A8219820E94C146E0
:103AE0009C838B838D819E81FC01808191810E94CA
:103AF0009E498B859C8560E070E00E942A469C016F
:103B00008F819885FC01318320830E9410469C019F
:103B100089859A85FC01318320838F819885FC01FA
:103B200080819181892BE1F08F819885FC01208132
:103B300031818B819C81B9010E94F44D9C018D8162
:103B40009E81FC01318320838D819E81FC018081D7
:103B50009181892B49F486EF9FEF9A83898304C072
:103B600088EF9FEF9A83898389819A812C960FB67B
:103B7000F894DEBF0FBECDBFDF91CF910895CF93F4
:103B8000DF9300D000D0CDB7DEB79A8389837C83E2
:103B90006B835E834D8389819A81892B21F0898192
:103BA0009A810E949E498D819E81FC011182108222
:103BB00080E090E026960FB6F894DEBF0FBECDBF32
:103BC000DF91CF910895CF93DF9300D000D0CDB790
:103BD000DEB79A8389837C836B835E834D838D817B
:103BE0009E8122E030E0FC01318320838FEF9FEF44
:103BF00026960FB6F894DEBF0FBECDBFDF91CF91F2
:103C00000895CF93DF9300D01F92CDB7DEB78B839B
:103C10006C8385E090E09A8389838B81813F18F0E3
:103C20001A82198229C08B81843E40F08B81813FAA
:103C300028F481E090E09A8389831EC08B81833DC4
:103C400018F08B81833E48F08B81803C59F48C8145
:103C5000882341F08C81833028F482E090E09A83BD
:103C600089830AC08B81883C38F08B81833D20F4A6
:103C700083E090E09A83898389819A810F900F90E5
:103C80000F900F90DF91CF910895CF93DF93CDB731
:103C9000DEB767970FB6F894DEBF0FBECDBF998B26
:103CA000888B7B8B6A8B5D8B4C8B3F8B2E8B8889B3
:103CB00099899C838B838B819C81FC0180818D837E
:103CC00019828D81803C49F48A899B89029728F06A
:103CD0008B819C81FC01818189838091AD039091CE
:103CE000AE03892B09F455C069818D818ADF9B87DA
:103CF0008A871A828A859B850597C1F18A859B856B
:103D0000880F991F8D549C4FFC01808191819D8764
:103D10008C871F861E868C859D85892B39F18D8128
:103D2000882F90E02C853D85F90119959F878E8716
:103D300021E08E859F85892B09F420E02A838A81E2
:103D40008823A1F08E859F85FC01228133818C8997
:103D50009D89FC01318320838E859F85FC01248110
:103D600035818E899F89FC01318320838A81882354
:103D700009F053C08C899D8923EE3DE1FC0131831C
:103D800020838E899F8926E73FE1FC0131832083D0
:103D900044C08D818F3FA9F58091B3039091B40306
:103DA0009F838E838C899D89FC01118210828E896C
:103DB0009F89FC01118210828E819F81892B69F17C
:103DC0002E813F818FEF90E0F901199599878887BF
:103DD00088859985892B09F188859985FC0122813F
:103DE00033818C899D89FC01318320838885998565
:103DF000FC01248135818E899F89FC0131832083D8
:103E00000CC08C899D892FEB3DE1FC01318320831F
:103E10008E899F89FC0111821082000067960FB67F
:103E2000F894DEBF0FBECDBFDF91CF910895CF9341
:103E3000DF93CDB7DEB78091AD039091AE03DF91F4
:103E4000CF910895CF93DF931F921F92CDB7DEB726
:103E50009A83898389819A819093AE038093AD037D
:103E600000000F900F90DF91CF910895CF93DF93D3
:103E7000CDB7DEB78091AF03DF91CF910895CF9397
:103E8000DF931F92CDB7DEB789839091AF0389810D
:103E9000892B8093AF0300000F90DF91CF9108959D
:103EA000CF93DF931F92CDB7DEB789838981809549
:103EB0009091AF0389238093AF0300000F90DF91AF
:103EC000CF910895CF93DF93CDB7DEB78091B00344
:103ED000DF91CF910895CF93DF93CDB7DEB7809177
:103EE000B1039091B203DF91CF910895CF93DF9307
:103EF00000D000D000D01F92CDB7DEB79E838D8357
:103F000078876F835A8749878D819E81892B51F4E9
:103F10008F8198859C838B838B819C812FEFFC0103
:103F200020838DC08F8198859A83898389819A8126
:103F30002EEFFC0120838D819E81092E000CAA0B9F
:103F4000BB0B0F96A11DB11D8F309105A105B105C9
:103F500008F06FC0FC018827EF54F04E8F4F0C948F
:103F6000A67713200D2007200120FB1FEF1FF51F50
:103F7000E91FE31FDD1FD81FC61FC01FCC1FD21FA4
:103F800089819A8120E3FC01218359C089819A812A
:103F900029E2FC01218353C089819A8122E2FC013C
:103FA00021834DC089819A8120E2FC01218347C091
:103FB00089819A81FC01118242C089819A8123E220
:103FC000FC0121833CC089819A8121E2FC0121838B
:103FD00036C089819A8121E1FC01218330C0898129
:103FE0009A8127E2FC0121832AC089819A812AE2F1
:103FF000FC01218324C089819A8120E1FC01218375
:104000001EC089819A8124E2FC01218318C0898124
:104010009A8128E2FC01218312C089819A8126E2DB
:10402000FC0121830CC089819A8121E3FC01218359
:1040300006C089819A8120E2FC01218300C0000032
:104040002A960FB6F894DEBF0FBECDBFDF91CF9199
:104050000895CF93DF9300D000D000D01F92CDB74A
:10406000DEB79E838D8378876F835A8749871A824C
:1040700019828F819885892BD9F11C821B821C8221
:104080001B822BC02B813C81C901880F991F820F95
:10409000931F880F991F9C018F819885820F931F12
:1040A000FC01808191812D813E812817390781F49F
:1040B0002B813C81C901880F991F820F931F880FA4
:1040C000991F9C018F819885820F931F9A83898302
:1040D0008B819C8101969C838B832B813C8189857C
:1040E0009A852817390720F489819A81892B51F202
:1040F00089819A812A960FB6F894DEBF0FBECDBF94
:10410000DF91CF910895CF93DF9300D01F92CDB769
:10411000DEB79A8389837C836B838091AC03882389
:1041200019F084EF9FEF1BC049D554D59093B40389
:104130008093B3030E9460370E9479379093B8034D
:104140008093B7030E9402420E940D429093B603EF
:104150008093B50381E08093AC0380E090E00F9002
:104160000F900F900F90DF91CF910895EF92FF92F3
:104170000F931F93CF93DF93CDB7DEB764970FB63E
:10418000F894DEBF0FBECDBF1A8219821C821B823B
:1041900018861F821A8619861C861B861E861D8617
:1041A000188A1F861E821D821A8A198A1C8A1B8AF7
:1041B0008091AC03882319F487EF9FEFC3C0BE0141
:1041C000635F7F4F9E01255F3F4FAE01475F5F4FAB
:1041D000CE0107968B01BC0180E090E00E946E4505
:1041E0009A83898389819A81892B49F089819A816F
:1041F000049629F089819A81059609F096C08F81ED
:104200009885892B59F02B853C858D859E85280FB7
:10421000391F89859A858217930728F488EF9FEFC5
:104220009A83898385C02F8138858B859C85820FF1
:10423000931F9E838D836D857E859E012D5E3F4FEE
:10424000AE014F5E5F4F8D819E811FDD89899A8906
:10425000892B29F484EF9FEF9A83898369C0298988
:104260003A896B857C858F819885AE01415F5F4F70
:10427000F90119959C838B838B899C89892B09F47F
:1042800051C08F859889892B09F44CC01A821982F4
:104290002D853E858F8598892817390768F42F85E5
:1042A0003889AE01455F5F4FBE01675F7F4FCE012A
:1042B000079600DC9A8389832D853E858D819E81BA
:1042C000A90160E070E00E94D47789819A81892BEE
:1042D00049F52F8138858B859C85820F931F9E839E
:1042E0008D832B893C894F8558896D817E818B8197
:1042F0009C81F90119956F8578894B855C852985A5
:104300003A858F8198857B018A01AC016FEF7FEF41
:1043100081E090E00E9417449A83898389819A8181
:10432000892B29F489819A810DC0000001C0000009
:104330008F819885892B21F08F8198850E949E49D5
:1043400089819A8164960FB6F894DEBF0FBECDBF07
:10435000DF91CF911F910F91FF90EF900895CF9330
:10436000DF9300D000D01F921F92CDB7DEB79C83A1
:104370008B834D835E836F8378871A821982809145
:10438000AC03882319F487EF9FEF10C08D819E81C5
:10439000AF81B885EB81FC8120E0AC01BD01CF018C
:1043A0000E9498379A83898389819A8128960FB6CB
:1043B000F894DEBF0FBECDBFDF91CF910895CF93AC
:1043C000DF93CDB7DEB78091AD039091AE03DF915F
:1043D000CF910895CF93DF93CDB7DEB70E942C42E3
:1043E0000E947D4016D448E050E060E070E083EB2E
:1043F00093E00E94D4771092AC0380E090E0DF91CC
:10440000CF910895CF93DF9300D000D0CDB7DEB722
:104410006B837C838D839E838B819C81AD81BE81E8
:10442000BC01CD010E940A3D9A83898389819A81CA
:1044300026960FB6F894DEBF0FBECDBFDF91CF91A9
:104440000895CF93DF9300D01F921F92CDB7DEB7B0
:104450009D838C8381E089838C819D81298140E0CB
:1044600050E0BA010E9498379B838A838A819B819E
:104470000F900F900F900F900F90DF91CF910895B4
:10448000CF93DF9300D01F921F92CDB7DEB78D83FD
:1044900081E090E09A8389830E9481469C838B838C
:1044A0008D81282F30E08B819C8149815A81BA010E
:1044B0000E945477CB0141E02817390708F040E00B
:1044C000842F0F900F900F900F900F90DF91CF914E
:1044D0000895CF93DF9300D01F921F92CDB7DEB720
:1044E0009C838B836D83A1D39A8389838091C0033E
:1044F000482F50E029813A818B819C81B9010E942B
:10450000CB7700000F900F900F900F900F90DF91DE
:10451000CF910895CF93DF93CDB7DEB72D970FB628
:10452000F894DEBF0FBECDBF998788877B876A87E7
:104530005D874C871A821982288539858A859B85F3
:10454000820F931F9C838B838B819C819E838D83A1
:104550001F820E94283F8F838F81882351F48C858E
:104560009D8522E030E0FC013183208385EF9FEFC1
:104570002DC08D819E81FC018181882331F08D8148
:104580009E81FC018181813019F481E090E002C0BC
:1045900080E090E08F838F81882351F48C859D8506
:1045A00022E030E0FC01318320838EEF9FEF0EC0CC
:1045B00081E090E047DC1A8219828C859D8528E095
:1045C00030E0FC013183208389819A812D960FB6DA
:1045D000F894DEBF0FBECDBFDF91CF910895CF938A
:1045E000DF9300D000D01F921F92CDB7DEB79C831F
:1045F0008B837E836D8358874F838B819C81892B2E
:10460000A9F58D819E819A83898389819A8148E069
:1046100050E060E070E00E94D47789819A812FEFAA
:10462000FC01208325E089819A81FC01218320E01F
:1046300089819A81FC0122830E948146282F8981E9
:104640009A81FC0123830E9478469C0189819A818A
:10465000FC013583248389819A8121E0FC01268332
:1046600089819A8121E0FC01278308C04F81588508
:104670002D813E818B819C81B90138DC0000289618
:104680000FB6F894DEBF0FBECDBFDF91CF91089576
:10469000CF93DF9300D000D01F92CDB7DEB79B83BE
:1046A0008A837D836C835F834E8381E089830E944C
:1046B000283F89838981882351F48E819F8122E05C
:1046C00030E0FC013183208385EF9FEF0CC080E058
:1046D00090E0B8DB8E819F8121E030E0FC013183E6
:1046E000208380E090E027960FB6F894DEBF0FBEDF
:1046F000CDBFDF91CF910895CF93DF9300D000D04D
:10470000CDB7DEB79A8389837C836B835E834D83C9
:104710008D819E8126E030E0FC013183208380E0A2
:1047200090E026960FB6F894DEBF0FBECDBFDF91A6
:10473000CF910895CF93DF9300D000D01F921F92A6
:10474000CDB7DEB79C838B837E836D8358874F8381
:104750008D819E819A83898389819A8146E050E088
:1047600060E070E00E94D47789819A812FEFFC018C
:1047700020837CDB282F89819A81FC012183A2DBA5
:10478000282F89819A81FC012283A5DB9C018981E4
:104790009A81FC0135832483000028960FB6F89493
:1047A000DEBF0FBECDBFDF91CF910895CF93DF93D2
:1047B00000D000D01F92CDB7DEB79B838A837D8364
:1047C0006C835F834E8319820E940B3F89838981AA
:1047D000882321F00E94A6460E941C3F8E819F8163
:1047E00022E030E0FC01318320838BEF9FEF27969E
:1047F0000FB6F894DEBF0FBECDBFDF91CF91089505
:10480000CF93DF93CDB7DEB72D970FB6F894DEBF09
:104810000FBECDBF998788877B876A875D874C8766
:104820001A821982288539858A859B85820F931F74
:104830009C838B838B819C819E838D831F828D8142
:104840009E81FC0123818D819E81FC018481958163
:10485000A681B781422FBC01CD01F6D18F838F8114
:10486000882351F48C859D8522E030E0FC01318362
:10487000208384EF9FEF09C08C859D8521E030E087
:10488000FC013183208389819A812D960FB6F8949B
:10489000DEBF0FBECDBFDF91CF910895CF93DF93E1
:1048A000CDB7DEB72F970FB6F894DEBF0FBECDBFE2
:1048B0009B878A877D876C875F874E871A821982DC
:1048C0002A853B858C859D85820F931F9C838B83D6
:1048D0008B819C819E838D831F82A7D19987888736
:1048E0008D819E81FC018181CBDD8F838F81882327
:1048F00051F48E859F8522E030E0FC0131832083D6
:104900008EEF9FEF22C088859985892B51F48E8583
:104910009F8522E030E0FC013183208384EF9FEF0C
:1049200014C08D819E81FC0181818093C0038091A0
:10493000C003882F90E09C012F5F3F4F8E859F859D
:10494000FC013183208389819A812F960FB6F894D8
:10495000DEBF0FBECDBFDF91CF910895CF93DF9320
:10496000CDB7DEB72D970FB6F894DEBF0FBECDBF23
:10497000998788877B876A875D874C878885998533
:10498000892B91F552D19A8389838A859B859C8353
:104990008B838B819C8141E050E060E070E00E945D
:1049A000D4778B819C812FEFFC01208389819A81B0
:1049B000892B11F18091C003882F90E001962C85FE
:1049C0003D8528173907C1F48A859B8501969E830A
:1049D0008D831F828D819E816F817BDD8091C003DD
:1049E00064D11092C00308C04C855D852A853B8543
:1049F00088859985B9017ADA00002D960FB6F8946A
:104A0000DEBF0FBECDBFDF91CF910895CF93DF936F
:104A1000CDB7DEB72D970FB6F894DEBF0FBECDBF72
:104A2000998788877B876A875D874C871A82198276
:104A3000288539858A859B85820F931F9C838B836C
:104A40008B819C819E838D831F828D819E81FC0141
:104A5000818116DD8F838F81882351F48C859D851C
:104A600022E030E0FC01318320838EEF9FEF31C0E4
:104A70008D819E81FC0123818D819E81FC01848139
:104A80009581A681B781422FBC01CD01DDD08F83F6
:104A90008F81882351F48C859D8522E030E0FC01D4
:104AA0003183208384EF9FEF14C08D819E81FC01B0
:104AB00081818093C0038091C003882F90E09C0186
:104AC0002F5F3F4F8C859D85FC0131832083898139
:104AD0009A812D960FB6F894DEBF0FBECDBFDF9141
:104AE000CF910895CF93DF93CDB7DEB72D970FB653
:104AF000F894DEBF0FBECDBF998788877B876A8712
:104B00005D874C8788859985892B91F58ED09A830E
:104B100089838A859B859C838B838B819C8141E0E3
:104B200050E060E070E00E94D4778B819C812FEF91
:104B3000FC01208389819A81892B11F18091C00326
:104B4000882F90E001962C853D8528173907C1F400
:104B50008A859B8501969E838D831F828D819E8190
:104B60006F81B7DC8091C003A0D01092C00308C051
:104B70004C855D852A853B8588859985B901B6D99F
:104B800000002D960FB6F894DEBF0FBECDBFDF91AB
:104B9000CF910895CF93DF931F921F92CDB7DEB7C9
:104BA0009A83898389819A8147E050E068E372E0C3
:104BB00050DA0F900F90DF91CF910895CF93DF934C
:104BC000CDB7DEB78AEC95E210D093D00000DF912C
:104BD000CF910895CF93DF93CDB7DEB78091C10316
:104BE0009091C203DF91CF910895CF93DF931F92ED
:104BF0001F92CDB7DEB79A83898389819A8190937A
:104C0000C2038093C10300000F900F90DF91CF91FA
:104C10000895CF93DF93CDB7DEB773D080E090E0F7
:104C2000E4DF0000DF91CF910895CF93DF93CDB7FC
:104C3000DEB78091BB039091BC03A091BD03B091FE
:104C4000BE03DF91CF910895CF93DF9300D01F92E1
:104C50001F92CDB7DEB769837A838B839C834D83A4
:104C60008D81882351F489819A81AB81BC81892B04
:104C70008A2B8B2B11F480E010C089819A81AB8143
:104C8000BC818093BB039093BC03A093BD03B093FE
:104C9000BE038D818093BF0381E00F900F900F9032
:104CA0000F900F90DF91CF910895CF93DF931F92D4
:104CB000CDB7DEB789832091BB033091BC0340910F
:104CC000BD035091BE038981882F90E0A0E0B0E041
:104CD000820F931FA41FB51F8093BB039093BC0347
:104CE000A093BD03B093BE0300000F90DF91CF915E
:104CF0000895CF93DF93CDB7DEB70000DF91CF915A
:104D00000895CF93DF93CDB7DEB70000DF91CF9149
:104D10000895CF93DF9300D0CDB7DEB79B838A830E
:104D20001982F8948091C9039091CA0321E0892BDC
:104D300009F020E029838981882309F47894898106
:104D40000F900F900F90DF91CF910895CF93DF9345
:104D50001F921F92CDB7DEB79A83898378940000A3
:104D60000F900F90DF91CF910895CF93DF931F9213
:104D70001F92CDB7DEB79A838983F8948091C903D7
:104D80009091CA0301969093CA038093C9037894C3
:104D900000000F900F90DF91CF910895CF93DF9394
:104DA0001F921F92CDB7DEB79A838983F8948091C2
:104DB000C9039091CA0301979093CA038093C903D2
:104DC000789400000F900F90DF91CF910895CF93CA
:104DD000DF931F921F92CDB7DEB79A83898320910C
:104DE000C3033091C40349815A8163E1649FC001C8
:104DF000659F900D1124820F931FFC018381948184
:104E0000029799F02091C3033091C40349815A81DC
:104E100063E1649FC001659F900D1124820F931F71
:104E2000FC0183819481039719F481E090E002C032
:104E300080E090E00F900F90DF91CF910895CF9395
:104E4000DF9300D0CDB7DEB719821B821A821B8296
:104E50001A8209C08A819B81BADF89838A819B81FA
:104E600001969B838A838091C5039091C6032A8112
:104E70003B812817390718F48981882359F381E089
:104E80009981992309F080E00F900F900F90DF91A6
:104E9000CF910895CF93DF9300D01F921F92CDB78B
:104EA000DEB79B838A836C834D838091C30390918B
:104EB000C403892B09F477C08091C5039091C60380
:104EC0002A813B812817390708F06DC02091C30360
:104ED0003091C4034A815B8163E1649FC001659F97
:104EE000900D1124820F931FFC0180819181892BE9
:104EF00009F459C02091C3033091C4034A815B81F6
:104F000063E1649FC001659F900D1124820F931F80
:104F1000FC0182819C81981708F045C02091C30351
:104F20003091C4034A815B8163E1649FC001659F46
:104F3000900D1124820F931FFC01208131818C81FF
:104F4000482F50E06BE0649FC001659F900D1124D5
:104F5000820F931FFC0180819181892B21F1209187
:104F6000C3033091C4034A815B8163E1649FC00144
:104F7000659F900D1124820F931FFC0120813181C8
:104F80008C81482F50E06BE0649FC001659F900DBD
:104F90001124820F931FFC0182819D81981718F4C0
:104FA00081E090E002C080E090E0898389810F90E9
:104FB0000F900F900F900F90DF91CF910895CF93A6
:104FC000DF9300D000D000D0CDB7DEB78C836D83E7
:104FD0002E833F834887598719828D81882F90E0DF
:104FE0009B838A838C818F3F41F48A819B818F3F91
:104FF000910509F010F481E08983898129960FB623
:10500000F894DEBF0FBECDBFDF91CF910895CF934F
:10501000DF931F92CDB7DEB789838981882F90E017
:105020008F7E21E0892B09F020E0822F0F90DF9105
:10503000CF910895CF93DF931F921F92CDB7DEB724
:105040008A8319828A81882331F08A81813019F01C
:105050008A81823011F481E0898389810F900F90D9
:10506000DF91CF910895CF93DF931F921F92CDB719
:10507000DEB78A8319828A81882331F08A81813060
:1050800019F08A81823011F481E0898389810F903F
:105090000F90DF91CF910895CF93DF93CDB7DEB717
:1050A00081E0DF91CF910895CF93DF9300D0CDB70A
:1050B000DEB79B838A832091C3033091C4034A8166
:1050C0005B8163E1649FC001659F900D1124820F95
:1050D000931FFC0183858230D9F42091C303309162
:1050E000C4034A815B8163E1649FC001659F900DA9
:1050F0001124820F931FFC012581368180911D02AE
:1051000090911E022817390719F081E090E002C043
:1051100080E090E089838981882339F08A819B81AE
:10512000892B19F481E090E002C080E090E089834F
:1051300089810F900F900F90DF91CF910895CF93B9
:10514000DF93CDB7DEB72C970FB6F894DEBF0FBE56
:10515000CDBF9C878B8718861F821A8219821C827A
:105160001B821C821B824EC08B859C85FC0120818A
:1051700031814B815C816BE0649FC001659F900D24
:105180001124820F931FFC01438154818B859C85E0
:10519000FC0125853685429FC001439F900D529F9B
:1051A000900D112401969E838D831A8619868B811A
:1051B0009C81892B79F48B859C85FC018781882FC4
:1051C00090E080719927892B29F08D819E8104962A
:1051D0009E838D838D819E8161E070E00E942A46CE
:1051E0009A87898729853A8589819A8182179307C9
:1051F00020F489859A859A8389838B819C81019685
:105200009C838B838B859C85FC018281882F90E019
:105210002B813C81281739070CF4A6CF8B859C8500
:10522000AC014F5E5F4F8B859C85FC018281282FEE
:1052300030E0C901880F991F820F931F9C0189815B
:105240009A81B9010E949D4A98878F838F819885A2
:10525000892B39F08B859C852FEF3FEFFC01328B3A
:10526000218B8F8198852C960FB6F894DEBF0FBEE8
:10527000CDBFDF91CF910895CF93DF931F921F92FF
:10528000CDB7DEB79A83898389819A81FC018189B0
:105290009289019639F089819A81FC0181899289EC
:1052A0000E943F4C89819A812FEF3FEFFC01328BA6
:1052B000218B00000F900F90DF91CF910895CF9335
:1052C000DF93CDB7DEB761970FB6F894DEBF0FBEA0
:1052D000CDBF9D878C877F876E87598B488B1A82BD
:1052E00019822C853D858E859F85820F931F9C8317
:1052F0008B838B819C819E838D838D819E81FC011C
:105300008281938198878F838D819E81FC01848126
:1053100089878D819E81FC0185818A871B868F818B
:1053200098854A856985B6DD8B878B85882351F4FE
:105330008889998922E030E0FC01318320838EEF57
:105340009FEF2BC08F81988542DD982F81E09923B4
:1053500009F080E08B878B85882351F488899989AF
:1053600022E030E0FC013183208388EF9FEF15C0FD
:105370008F81988590931A02809319028985809372
:105380001B028A8580931C028889998921E030E07C
:10539000FC013183208389819A8161960FB6F8944C
:1053A000DEBF0FBECDBFDF91CF910895CF93DF93C6
:1053B000CDB7DEB763970FB6F894DEBF0FBECDBF93
:1053C0009F878E87798B688B5B8B4A8B1A821982B9
:1053D0002E853F8588899989820F931F9C838B83B3
:1053E0008B819C819E838D838091190290911A02FA
:1053F00098878F8380911B02898780911C028A87FE
:105400001C861B861D868F8198854A85698542DDAD
:105410008D878D85882351F48A899B8922E030E02D
:10542000FC01318320838AEF9FEF9AC08F8198859A
:10543000CEDC982F81E0992309F080E08D878D855F
:10544000882351F48A899B8922E030E0FC01318372
:10545000208388EF9FEF84C08D819E81FC01848131
:105460009581A681B7812D813E81F90162812D81CF
:105470003E81F90171819C01AD01872FA0DD8D87EF
:105480008D85882351F48A899B8922E030E0FC01D4
:10549000318320838EEF9FEF63C02091C30330914F
:1054A000C4034F81588563E1649FC001659F900DDF
:1054B0001124820F931FFC01208131818985482F9F
:1054C00050E06BE0649FC001659F900D1124820F36
:1054D000931FFC01408151818A85282F30E0C9014A
:1054E000880F991F880F991F880F991F821B930B94
:1054F000840F951F9C878B878D819E81FC01218164
:105500008B859C85FC0120838D819E81FC012281FD
:105510008B859C85FC0121838D819E81FC012381EB
:105520008B859C85FC0122838D819E81FC01848179
:105530009581A681B7812B853C85F901838394836E
:10554000A583B68380911C028F5F80931C028A8999
:105550009B8921E030E0FC013183208389819A819D
:1055600063960FB6F894DEBF0FBECDBFDF91CF912B
:105570000895CF93DF93CDB7DEB72F970FB6F8948A
:10558000DEBF0FBECDBF9B878A877D876C875F8715
:105590004E871A8219822A853B858C859D85820FCC
:1055A000931F9C838B838B819C819E838D83188624
:1055B0001F8219868091C3039091C403892B79F0CF
:1055C0008D819E81FC01228133818091C503909160
:1055D000C6032817390718F481E090E002C080E084
:1055E00090E089878985882351F48E859F8522E004
:1055F00030E0FC01318320838EEF9FEFA3C0209128
:10560000C3033091C4038D819E81FC01428153818B
:1056100063E1649FC001659F900D1124820F931F69
:1056200098878F838D819E81FC0182819381CFDB5E
:10563000982F81E0992309F080E089878985882364
:1056400051F48E859F8522E030E0FC013183208378
:1056500088EF9FEF77C08D819E81FC0184819581C9
:1056600021E08038910508F020E02987898588238A
:1056700051F48E859F8522E030E0FC013183208348
:105680008EEF9FEF5FC08D819E81FC01978181E04D
:10569000992309F080E089878985882351F48E85D4
:1056A0009F8522E030E0FC01318320838EEF9FEF65
:1056B00049C08D819E81FC018181A9DC8987898512
:1056C000882351F48E859F8522E030E0FC013183F0
:1056D000208386EF9FEF36C08D819E81FC01218162
:1056E0008F819885FC0127838D819E81FC01248117
:1056F00035818F819885FC01368325838D819E813C
:10570000FC0126818F819885FC0120878D819E81F7
:10571000FC0127818F819885FC0121878F819885E5
:10572000FC018085823028F48F81988521E0FC017E
:1057300020878E859F8521E030E0FC013183208326
:1057400089819A812F960FB6F894DEBF0FBECDBF28
:10575000DF91CF9108950F931F93CF93DF93CDB730
:10576000DEB76C970FB6F894DEBF0FBECDBF988F33
:105770008F8B7A8F698F5C8F4B8F1B861A862F8950
:10578000388D898D9A8D820F931F9D878C878C858C
:105790009D859F878E87198A188A8E859F85FC0133
:1057A00082819381CC01A0E0B0E08A8B9B8BAC8B93
:1057B000BD8B19821E8A8091C3039091C403892BEB
:1057C00099F08091C5039091C603CC01A0E0B0E0B0
:1057D0002A893B894C895D89281739074A075B0765
:1057E0001CF481E090E002C080E090E08983898130
:1057F000882351F48B8D9C8D22E030E0FC013183B5
:1058000020838EEF9FEF40C28A899B89AC89BD8936
:105810008093150290931602A0931702B09318027A
:105820002091C3033091C4034A895B8963E1649F7B
:10583000C001659F900D1124820F931F998B888B57
:105840008E859F85FC018181F5DB89838981882391
:1058500051F48B8D9C8D22E030E0FC01318320835C
:1058600086EF9FEF11C218DC882309F47DC0888978
:105870009989FC0183819481892B09F075C08889FD
:105880009989FC018781882F90E082709927892B64
:1058900081F188899989FC0180819181892B91F01E
:1058A0008091C803282F30E088899989FC01828182
:1058B000882F90E0820F931F813891051CF481E0BE
:1058C00090E002C080E090E089838981882309F418
:1058D0003EC02091C80388899989FC0122872091C4
:1058E000C80388899989FC018281820F8093C8034B
:1058F0002EC088899989FC0180819181892B91F042
:105900008091C703282F30E088899989FC01828122
:10591000882F90E0820F931F8D3F91051CF481E04A
:1059200090E002C080E090E089838981882379F04B
:105930002091C70388899989FC0122872091C70398
:1059400088899989FC018281820F8093C7038981AC
:10595000882351F48B8D9C8D22E030E0FC01318353
:10596000208387EF9FEF90C18E859F85FC01818109
:10597000813039F08E859F85FC018181823009F06C
:10598000CBC01B821A8281E089831B821A82B5C038
:105990001D821C821F821E821D821C822EC088894D
:1059A0009989FC01208131814A815B816BE0649F90
:1059B000C001659F900D1124820F931FFC0140814F
:1059C00051812C813D81C901880F991F880F991F32
:1059D000880F991F821B930B840F951FFC018181F7
:1059E000882F90E02E813F81820F931F9F838E83AB
:1059F0008C819D8101969D838C8388899989FC0186
:105A0000208131814A815B816BE0649FC001659F89
:105A1000900D1124820F931FFC018281882F90E04A
:105A20002C813D81281739070CF4B9CF8A819B81DD
:105A3000892B21F588899989FC018781882F90E03D
:105A400080719927892BD1F088899989FC01458536
:105A500056852E813F81429FC001439F900D529FEA
:105A6000900D11248C010B5F1F4F0E94784621E09E
:105A70008017910708F420E0298319C08889998943
:105A8000FC01458556852E813F81429FC001439F81
:105A9000900D529F900D11248C010F5F1F4F0E949B
:105AA000784621E08017910708F420E02983898156
:105AB000882351F48B8D9C8D22E030E0FC013183F2
:105AC000208387EF9FEFE0C088899989FC012081BE
:105AD00031814A815B816BE0649FC001659F900DBD
