:1000000011C1000040C100003EC100003CC1000021
:100010003AC1000038C1000036C1000034C1000000
:1000200032C1000030C100002EC100002CC1000010
:100030002AC1000028C1000026C1000024C1000020
:1000400022C100000C94A0691EC100001CC1000068
:100050001AC1000018C1000016C100000C94536DB5
:1000600012C100000C94B9750C94E9750CC1000024
:100070000AC1000008C1000006C1000004C1000060
:100080000C94D46900C10000FEC00000FCC0000058
:100090000C9460760C949076F6C000000C94F66593
:1000A000F2C00000F0C000000C94086AECC0000030
:1000B000EAC00000E8C00000E6C000000C943C6A02
:1000C000E2C00000E0C00000DEC000000C94077732
:1000D0000C943777D8C000000C94AE770C94DE7780
:1000E000D2C00000084AD73B3BCE016E84BCBFFDA6
:1000F000C12F3D6C74319ABD56833DDA3D00C77FF8
:1001000011BED9E4BB4C3E916BAAAABE0000008090
:100110003F0000002100240027002A002D003000AD
:10012000330001010000040107010A010000220060
:10013000250028002B002E003100340002010000B1
:10014000050108010B010505050507050808080854
:10015000020202020A0A080804040404010101015F
:10016000010101010303030303030303040707075A
:100170000C0C0C0C0C0C0C0C0202020206060606FF
:10018000060606060B0B0B0B0B0B0B0B01021020CC
:1001900020080810204010204080020102010804BD
:1001A0000201010204081020408080402010080451
:1001B00002018004020180402010080402010804AA
:1001C00002010102040810204080010204081020EE
:1001D000408000000A0B02090C0D0E080703040101
:1001E000000000000000000000000000000000000F
:1001F00000000000000000000000000000001211DC
:1002000010000000000000000000000000000000DE
:100210000000000000000000920411615476FB769B
:10022000A2774B7811241FBECFEFD1E2DEBFCDBF46
:1002300000E00CBF12E0A0E0B2E0EEE6F3EF00E079
:100240000BBF02C007900D92A83FB107D9F72AE073
:10025000A8EFB2E001C01D92AE39B207E1F711E09C
:10026000C2E1D1E000E006C021970109802FFE0124
:100270000E948079CC30D10780E00807A9F70E945E
:10028000075A0C94B579BCCECF93DF9300D000D041
:10029000CDB7DEB769837A838B839C835E834D837E
:1002A00089819A81AB81BC81892B8A2B8B2B21F58B
:1002B00089819A81880F991F880F991F80509E4FBE
:1002C000FC0180818823C1F489819A81880F991F5C
:1002D000880F991F8E5F9D4FFC01808191810E9444
:1002E0006F5E89819A81880F991F880F991F8050AE
:1002F0009E4F21E0FC01208389819A81880F991FFC
:10030000880F991F80509E4F26960FB6F894DEBF37
:100310000FBECDBFDF91CF910895CF93DF9300D073
:1003200000D0CDB7DEB79A8389834B835C836D831E
:100330007E8389819A81892BF9F089819A81FC01D8
:100340008181882341F480EA96E8A1E0B0E08B83C4
:100350009C83AD83BE8389819A81FC012281338194
:100360008B819C81AD81BE81AC01BD01C9010E9420
:100370008C5E80E090E002C088E090E026960FB6A8
:10038000F894DEBF0FBECDBFDF91CF910895CF921D
:10039000EF920F931F93CF93DF93CDB7DEB76297A2
:1003A0000FB6F894DEBF0FBECDBF98878F837A87D4
:1003B00069875C874B870D871E872F87388BE98A73
:1003C000CA8A8F819885892B09F49DC08F81988571
:1003D000FC01828193813D852985432F622F0E94F4
:1003E000435F19821A821B821C828F819885FC01CF
:1003F000428153818F819885FC0182819381FC0128
:10040000808191810896FC0120813181CA01F90126
:10041000199521E0892B09F420E0222309F465C015
:100420008F819885FC01428153818F819885FC01E1
:1004300082819381FC01808191810896FC01208159
:100440003181CA01F9011995892B79F029813A8105
:100450004B815C818D859E85AF85B88928173907CA
:100460004A075B0710F481E001C080E0882309F4AB
:1004700047C08F819885FC01428153818F81988587
:10048000FC0182819381FC01808191810A96FC01AB
:1004900020813181CA01F90119959E838D838D8157
:1004A0009E81019659F48B859C8544E050E060E084
:1004B00070E00E94AE7988E090E027C089819A813F
:1004C000AB81BC819C01AD012F5F3F4F4F4F5F4F10
:1004D00029833A834B835C839C018B859C85820FA7
:1004E000931F2D81FC0120839BCF8B859C8544E04D
:1004F00050E060E070E00E94AE7988E090E005C0D6
:1005000080E090E002C088E090E062960FB6F89438
:10051000DEBF0FBECDBFDF91CF911F910F91EF9046
:10052000CF900895CF92EF920F931F93CF93DF93C5
:10053000CDB7DEB72D970FB6F894DEBF0FBECDBF97
:100540009B838A837D836C835F834E8308871987AF
:100550002A873B87EC86CD868A819B81892B09F48B
:100560004FC019828A819B81DC0112968D919C91EA
:100570002C81622F0E945A5F8A819B81DC01129636
:10058000ED91FC918A819B81DC0112968D919C9169
:10059000DC018D919C910296DC012D913C91488566
:1005A00059858E819F81BC01CF01F90119958C85F8
:1005B000882359F08A819B81DC0112968D919C9150
:1005C00060E00E94735F898309C08A819B81FC017E
:1005D0008281938161E00E94735F8983898188238E
:1005E00019F480E090E00EC08981823019F0898191
:1005F000833019F484E090E005C088E090E002C008
:1006000088E090E02D960FB6F894DEBF0FBECDBF08
:10061000DF91CF911F910F91EF90CF900895CF93DD
:10062000DF931F921F92CDB7DEB79A8389830000B4
:100630000F900F90DF91CF910895CF93DF9300D06B
:1006400000D000D01F92CDB7DEB79C838B834D8343
:100650005E836F8378873A8729871092F902109218
:10066000F80289859A859A8389838B819C81813060
:10067000910561F1823091051CF4892B49F086C007
:100680008230910509F440C0039709F45AC07EC036
:100690008091F8029091F90281709927892B09F0D5
:1006A0006EC08091F8029091F90281609093F902F6
:1006B0008093F80229818D819E81AF81B885AC013C
:1006C000BD018EEB97E00E94447260C08091F802F9
:1006D0009091F90282709927892B09F052C080917C
:1006E000F8029091F90282609093F9028093F802E7
:1006F00029818D819E81AF81B885AC01BD018BE5DB
:1007000098E00E94447242C08091F8029091F902F0
:1007100084709927892BB9F58091F8029091F9029C
:1007200084609093F9028093F80229818D819E81E3
:10073000AF81B885AC01BD0188EF98E00E9444729A
:1007400025C08091F8029091F90288709927892B31
:10075000E1F48091F8029091F90288609093F90297
:100760008093F80229818D819E81AF81B885AC018B
:10077000BD0185E999E00E944472000007C00000B5
:1007800005C0000003C0000001C000002A960FB69B
:10079000F894DEBF0FBECDBFDF91CF910895EF92E9
:1007A000FF920F931F93CF93DF9300D000D01F923F
:1007B0001F92CDB7DEB76D837E838F8398871982B2
:1007C0001A821B821C820E94C46DDC01CB018983CA
:1007D0009A83AB83BC830E94C46D9B01AC01898169
:1007E0009A81AB81BC8179018A01E81AF90A0A0B66
:1007F0001B0BD801C70161E02D813E814F815885D7
:10080000281739074A075B0708F460E0662309F0F8
:10081000E2CF000028960FB6F894DEBF0FBECDBF22
:10082000DF91CF911F910F91FF90EF900895CF939B
:10083000DF93CDB7DEB70E94C46DDC01CB01BC01F4
:10084000CD01DF91CF910895CF93DF931F921F9237
:10085000CDB7DEB789836A838981282F30E0C9014B
:10086000880F991F820F931F86509D4F2A81222F38
:1008700030E0B9010E94616B00000F900F90DF9192
:10088000CF910895CF93DF931F921F92CDB7DEB71C
:1008900089836A838981282F30E0C901880F991FD5
:1008A000820F931F86509D4F2A81222F30E0B9017D
:1008B0000E940D6C00000F900F90DF91CF91089572
:1008C000EF92FF920F931F93CF93DF9300D01F926D
:1008D000CDB7DEB79A8389837C836B8389819A81C4
:1008E0000197A1F48B819C81019681F48AEF92E0BB
:1008F00002E010E07C0111234CF0C7010E942D6B37
:1009000083E0E80EF11C01501109F5CF00000F90B3
:100910000F900F900F90DF91CF911F910F91FF904B
:10092000EF900895CF93DF93CDB7DEB76FEF7FEFF2
:1009300081E090E0C5DFDF91CF910895CF93DF9301
:1009400000D000D0CDB7DEB79C838B837E836D83D0
:100950001A82198289819A8126960FB6F894DEBF91
:100960000FBECDBFDF91CF910895CF93DF9300D01D
:1009700000D01F921F92CDB7DEB79E838D837887FC
:100980006F831C821B828D819E81892B19F48FEFCE
:100990009FEFB2C08F819885892B19F48FEF9FEF5D
:1009A000ABC08091080290910902A0910A02B09117
:1009B0000B028E3F9F4FAF4FBF4F61F48FEF9FEF02
:1009C000DC018093080290930902A0930A02B0937D
:1009D0000B020FC08091080290910902A0910A02B7
:1009E000B0910B022F813885F90180839183A28316
:1009F000B3838091080290910902A0910A02B091FC
:100A00000B028D819E81FC0182819381FC0180819A
:100A10009181A281B3818093500390935103A0935D
:100A20005203B09353038D819E81FC018281938197
:100A3000FC0184819581A681B781809354039093B2
:100A40005503A0935603B09357038D819E81FC01FB
:100A500082819381FC0180859185A285B3858093F5
:100A6000580390935903A0935A03B0935B038D816D
:100A70009E81FC0182819381FC0184859585A685F8
:100A8000B78580935C0390935D03A0935E03B0935E
:100A90005F03109260031092610310926203109240
:100AA00063030E94A81D1A8219821A82198210C03B
:100AB00089819A81880F991F8D5F9C4F23ED3DE1BD
:100AC000FC013183208389819A8101969A838983ED
:100AD00089819A81029760F30E94AF189C838B836F
:100AE0008B819C81892B31F481E090E090934F03BE
:100AF00080934E038B819C8128960FB6F894DEBFBD
:100B00000FBECDBFDF91CF910895CF93DF93CDB7C7
:100B1000DEB72C970FB6F894DEBF0FBECDBF698746
:100B20007A878B879C871A8219821B821C821D827E
:100B30001E821F8290914C0381E0992309F080E08E
:100B4000888782E090E090934F0380934E038985DD
:100B50009A85AB85BC85892B8A2B8B2B59F4809188
:100B60004C03882339F480914D03882319F481E0E4
:100B700090E002C080E090E08F8331C06AE070E0D6
:100B800080E090E00E944E6E8B819C81AD81BE81A1
:100B9000805F984DAF4FBF4F8B839C83AD83BE83E7
:100BA00089859A85AB85BC858F3F9F4FAF4FBF4FDF
:100BB00081F02B813C814D815E8189859A85AB8551
:100BC000BC8582179307A407B50718F481E090E06D
:100BD00002C080E090E08F8380E00E94F71880914F
:100BE0004C03882339F480914D03882319F48F81B5
:100BF000882321F283E090E090934F0380934E038B
:100C00008F81882321F08CE99FEF9A8389838885DF
:100C1000882311F00E94CF1E89819A812C960FB6ED
:100C2000F894DEBF0FBECDBFDF91CF910895CF9373
:100C3000DF93CDB7DEB761970FB6F894DEBF0FBE76
:100C4000CDBF9D878C874E875F87688B798B1A8293
:100C5000198281E08B838C859D858F3F910521F0E2
:100C600018F08FEF9FEF63C080914E0390914F0378
:100C7000039731F080914E0390914F03019731F427
:100C800084E090E090934F0380934E038C859D8584
:100C9000029708F58C859D85880F991F8D5F9C4F65
:100CA000FC0180819181892BB1F00E9489239D8371
:100CB0008C838C819D81029771F48C859D85880F32
:100CC000991F8D5F9C4FFC01208131818C859D8512
:100CD000F90119958B838C859D859F838E832C8547
:100CE0003D858E859F85A889B989A901BC01CD0163
:100CF0000E948C18DC01CB0188879987AA87BB8763
:100D00008B81882371F088859985AA85BB852E8182
:100D10003F81AC01BD01C9010E9459239A83898397
:100D200004C08E819F810E94CB2389819A81619624
:100D30000FB6F894DEBF0FBECDBFDF91CF910895FF
:100D4000CF93DF931F921F92CDB7DEB71A8219821D
:100D500080E00E94F7189A83898389819A810F9095
:100D60000F90DF91CF910895CF93DF931F921F9241
:100D7000CDB7DEB71A82198286E090E090934F03D8
:100D800080934E030E9487199A83898344E050E040
:100D900060E070E083E093E00E94AE790E94611E03
:100DA00010924F0310924E0389819A810F900F90F9
:100DB000DF91CF910895CF93DF93CDB7DEB78091C8
:100DC0004D03DF91CF910895CF93DF93CDB7DEB779
:100DD00080916403DF91CF910895CF93DF9300D08A
:100DE0001F92CDB7DEB769837A838B839C83898119
:100DF0009A81AB81BC818093080290930902A093F1
:100E00000A02B0930B0280E090E00F900F900F90D9
:100E10000F90DF91CF910895CF93DF93CDB7DEB7D9
:100E20006A970FB6F894DEBF0FBECDBF80E290E0A8
:100E30009E838D8319821A821B821C828D819E81E2
:100E4000809741F458D0DC01CB0189839A83AB832E
:100E5000BC8342C081E090E09A878987CE010996E1
:100E6000FC01908181E0913009F480E0882F90E0CE
:100E700098878F838F819885009719F00197B9F033
:100E80002BC080E090E0A0EFBFE78F87988BA98B05
:100E9000BA8B1B861C861D861E868B859C85AD8520
:100EA000BE8589839A83AB83BC83000015C080E034
:100EB00090E0A0EFBFE78B8B9C8BAD8BBE8B1F8A26
:100EC000188E198E1A8E8B899C89AD89BE8989836B
:100ED0009A83AB83BC83000089819A81AB81BC81FA
:100EE000BC01CD016A960FB6F894DEBF0FBECDBF30
:100EF000DF91CF910895CF93DF9300D01F92CDB7AC
:100F0000DEB780E090E0A0E8BFE789839A83AB83F7
:100F1000BC8389819A81AB81BC81BC01CD010F90DA
:100F20000F900F900F90DF91CF910895CF93DF93A3
:100F3000CDB7DEB76A970FB6F894DEBF0FBECDBF50
:100F400080E290E09E838D8319821A821B821C822C
:100F50008D819E81809741F458D0DC01CB0189833B
:100F60009A83AB83BC8342C081E090E09A878987F3
:100F7000CE010996FC01908181E0913009F480E076
:100F8000882F90E098878F838F819885009719F03C
:100F90000197B9F02BC080E090E0A0EFBFEF8F8702
:100FA000988BA98BBA8B1B861C861D861E868B850B
:100FB0009C85AD85BE8589839A83AB83BC83000005
:100FC00015C080E090E0A0EFBFEF8B8B9C8BAD8BCA
:100FD000BE8B1F8A188E198E1A8E8B899C89AD89BB
:100FE000BE8989839A83AB83BC83000089819A81FF
:100FF000AB81BC81BC01CD016A960FB6F894DEBF0F
:101000000FBECDBFDF91CF910895CF93DF9300D076
:101010001F92CDB7DEB780E090E0A0E8BFEF8983F4
:101020009A83AB83BC8389819A81AB81BC81BC01EB
:10103000CD010F900F900F900F90DF91CF910895F9
:10104000CF93DF93CDB7DEB76A970FB6F894DEBFC4
:101050000FBECDBF80E290E09E838D8319821A82FD
:101060001B821C828D819E81809741F45BD0DC01C4
:10107000CB0189839A83AB83BC8345C081E090E038
:101080009A878987CE010996FC01908181E0913091
:1010900009F480E0882F90E098878F838F8198856E
:1010A000009719F00197B9F02EC080E090E0A8EF0A
:1010B000BFEF8F87988BA98BBA8B1B861C861D86EA
:1010C0001E868B859C85AD85BE8589839A83AB837F
:1010D000BC83000018C08FEF9FEFAFEFBFE78B8B93
:1010E0009C8BAD8BBE8B8FEF9FEFDC018F8B988F2E
:1010F000A98FBA8F8B899C89AD89BE8989839A8390
:10110000AB83BC83000089819A81AB81BC81BC0127
:10111000CD016A960FB6F894DEBF0FBECDBFDF914A
:10112000CF910895CF93DF9300D000D01F921F92EC
:10113000CDB7DEB71B821C821D821E8281E090E04B
:1011400098878F83CE010796FC01908181E09130D2
:1011500009F480E0882F90E09A83898389819A81BD
:10116000009719F0019751F012C080E090E0A0ECD8
:10117000BFEF8B839C83AD83BE8309C08FEF9FEF4E
:10118000AFEFBFE78B839C83AD83BE8300008B8171
:101190009C81AD81BE81BC01CD0128960FB6F8942B
:1011A000DEBF0FBECDBFDF91CF910895CF93DF9308
:1011B0001F921F92CDB7DEB79A83898341DFDC018E
:1011C000CB0180933E0A90933F0AA093400AB093CC
:1011D000410AA8DFDC01CB018093320A9093330AE5
:1011E000A093340AB093350A17DEDC01CB0180935B
:1011F0003A0A90933B0AA0933C0AB0933D0A7BDEE7
:10120000DC01CB018093360A9093370AA093380A09
:10121000B093390A8BDEDC01CB018093420A9093B4
:10122000430AA093440AB093450AEFDEDC01CB01E8
:101230008093460A9093470AA093480AB093490ABC
:1012400000000F900F90DF91CF910895CF93DF931F
:1012500000D01F92CDB7DEB769837A838B839C83DE
:1012600080913A0A90913B0AA0913C0AB0913D0AC4
:101270009C01AD0169817A818B819C810E94B15B67
:10128000882391F08091420A9091430AA091440AE8
:10129000B091450A9C01AD0169817A818B819C8165
:1012A0000E94B15B882311F481E001C080E00F90BF
:1012B0000F900F900F90DF91CF910895CF93DF9310
:1012C000CDB7DEB72F970FB6F894DEBF0FBECDBFF8
:1012D0006C877D878E879F87198280E290E09B8351
:1012E0008A838A819B81809749F48C859D85AE8510
:1012F000BF85BC01CD0138D089832CC08C859D85EC
:10130000AE85BF858C839D83AE83BF838885998599
:10131000AA85BB8588279927A07FBF770097A04F14
:10132000BF47A9F488859985AA85BB85AF70BB277F
:10133000892B8A2B8B2B41F48C819D81AE81BF81BF
:10134000892B8A2B8B2B19F081E090E002C080E082
:1013500090E0898389812F960FB6F894DEBF0FBE87
:10136000CDBFDF91CF910895CF93DF9300D000D010
:101370001F921F92CDB7DEB76D837E838F839887D0
:101380008D819E81AF81B88589839A83AB83BC832D
:1013900089819A81AB81BC8188279927A078BF7702
:1013A0000097A048BF4769F489819A81AB81BC81CD
:1013B000AF77BB27892B8A2B8B2B19F081E090E02C
:1013C00002C080E090E028960FB6F894DEBF0FBE12
:1013D000CDBFDF91CF910895CF93DF9300D000D0A0
:1013E000CDB7DEB79E838D838D819E81FC01138EE8
:1013F0008D819E81FC01158E8D819E81FC01118263
:101400001282138214822D813E8180E090E0A0E858
:10141000BFEBF90186839783A087B1878D819E8179
:10142000FC0112868D819E819A8389838D819E81A4
:101430000B969C838B832D813E8180E090E5A3EC0D
:10144000B8E4F901868B978BA08FB18F8D819E8137
:10145000FC0114861586168617868B819C81FC01FB
:10146000168215828D819E81FC0113868D819E815D
:10147000FC01108289819A8126960FB6F894DEBF0E
:101480000FBECDBFDF91CF910895CF92EF920F9312
:101490001F93CF93DF93CDB7DEB765970FB6F89460
:1014A000DEBF0FBECDBF9D8B8C8B8C899D89FC01CF
:1014B00015822C893D8981E090E0A0E0B0E0F9013F
:1014C00081839283A383B4838C899D8921E0FC016D
:1014D000248F8C899D890B969A8389831C821B8219
:1014E0001D821E821F8218862B813C818D819E81E8
:1014F000AF81B885A901BC01CD010E9444019C01C6
:101500008C899D89FC01318B208B2C893D8980EA57
:1015100096E8A1E0B0E0F901828B938BA48BB58BA8
:101520008C899D89FC0182899389A489B5898987E1
:101530009A87AB87BC8789819A81FC012581368196
:1015400089859A85AB85BC85AC01BD01C9010E9426
:101550008D0180E88A8B8A89888B8BE68F879E0134
:10156000215F3F4FCE010D9642E050E0B9010E944D
:10157000A5798C899D89FC0180899189AE01435FA1
:101580005F4FC12CE12C02E010E020E030E068E683
:1015900070E00E9492028B8B8B898823B9F08C8932
:1015A0009D89FC01848D882331F08C899D8921E0FF
:1015B000FC01258F0BC08C899D89FC01838D8823BC
:1015C00029F42B898C899D89FC01238F61E070E0CF
:1015D00080E090E0E4D81A8A8A89888B8BE68F872E
:1015E0009E01215F3F4FCE010D9642E050E0B901D0
:1015F0000E94A5798C899D89FC0180899189AE0121
:10160000435F5F4FC12CE12C02E010E020E030E0AE
:1016100068E670E00E9492028B8B8B898823B9F078
:101620008C899D89FC01848D882331F08C899D896A
:1016300021E0FC01258F0BC08C899D89FC01838DE5
:10164000882329F42B898C899D89FC01238F64E6EA
:1016500070E080E090E0A3D885E78B8B8B89898B45
:101660008C899D89FC0180899189AE014F5E5F4F15
:10167000C12CEE24E39401E010E020E030E068E6C5
:1016800070E00E9492028B8B8B898823B1F48C8945
:101690009D89FC0180899189AE014F5E5F4FCC240A
:1016A000C394E12C01E010E020E030E068E670E057
:1016B0000E94C70189898A8B01C01A8A8B89882375
:1016C000B9F08C899D89FC01848D882331F08C8947
:1016D0009D8921E0FC01258F0BC08C899D89FC012F
:1016E000838D882329F42B898C899D89FC01238F84
:1016F0009A8981E0983609F080E0282F8C899D89AD
:10170000FC01228F8C899D89FC01828D882309F43C
:10171000DCC11A8A8A89888B89E18F879E01215FC3
:101720003F4FCE010D9642E050E0B9010E94A579ED
:101730008C899D89FC0180899189AE01435F5F4F4F
:10174000C12CE12C02E010E020E030E068E670E01F
:101750000E9492028B8B8B898823B9F08C899D899A
:10176000FC01848D882331F08C899D8921E0FC0166
:10177000258F0BC08C899D89FC01838D882329F4DA
:101780002B898C899D89FC01238F8CE18B8B8B8924
:10179000898B8C899D89FC0180899189AE014F5E7E
:1017A0005F4FC12CEE24E39401E010E020E030E034
:1017B00068E670E00E9492028B8B8B898823B1F4DB
:1017C0008C899D89FC0180899189AE014F5E5F4FB4
:1017D000CC24C394E12C01E010E020E030E068E686
:1017E00070E00E94C70189898A8B01C01A8A8B899F
:1017F0008823B9F08C899D89FC01848D882331F080
:101800008C899D8921E0FC01258F0BC08C899D89E5
:10181000FC01838D882329F42B898C899D89FC0107
:10182000238F8A8988618A8B8A89888B8CE18F874C
:101830009E01215F3F4FCE010D9642E050E0B9017D
:101840000E94A5798C899D89FC0180899189AE01CE
:10185000435F5F4FC12CE12C02E010E020E030E05C
:1018600068E670E00E9492028B8B8B898823B9F026
:101870008C899D89FC01848D882331F08C899D8918
:1018800021E0FC01258F0BC08C899D89FC01838D93
:10189000882329F42B898C899D89FC01238F8BE176
:1018A0008B8B8B89898B8C899D89FC01808991899F
:1018B000AE014F5E5F4FC12CEE24E39401E010E0D7
:1018C00020E030E068E670E00E9492028B8B8B890A
:1018D0008823B1F48C899D89FC0180899189AE01AE
:1018E0004F5E5F4FCC24C394E12C01E010E020E078
:1018F00030E068E670E00E94C70189898A8B01C0E8
:101900001A8A8B898823B9F08C899D89FC01848D82
:10191000882331F08C899D8921E0FC01258F0BC043
:101920008C899D89FC01838D882329F42B898C89DE
:101930009D89FC01238F8A8988618A8B8A89888B9B
:101940008BE18F879E01215F3F4FCE010D9642E0D4
:1019500050E0B9010E94A5798C899D89FC0180899C
:101960009189AE01435F5F4FC12CE12C02E010E092
:1019700020E030E068E670E00E9492028B8B8B8959
:101980008823B9F08C899D89FC01848D882331F0EE
:101990008C899D8921E0FC01258F0BC08C899D8954
:1019A000FC01838D882329F42B898C899D89FC0176
:1019B000238F8AE18B8B8B89898B8C899D89FC0194
:1019C00080899189AE014F5E5F4FC12CEE24E39474
:1019D00001E010E020E030E068E670E00E94920252
:1019E0008B8B8B898823B1F48C899D89FC0180893C
:1019F0009189AE014F5E5F4FCC24C394E12C01E08E
:101A000010E020E030E068E670E00E94C7018989BC
:101A10008A8B01C01A8A8B898823B9F08C899D89A9
:101A2000FC01848D882331F08C899D8921E0FC01A3
:101A3000258F0BC08C899D89FC01838D882329F417
:101A40002B898C899D89FC01238F8A89887F8160FD
:101A50008A8B8A89888B8AE18F879E01215F3F4F1D
:101A6000CE010D9642E050E0B9010E94A5798C8923
:101A70009D89FC0180899189AE01435F5F4FC12C34
:101A8000E12C02E010E020E030E068E670E00E9427
:101A900092028B8B8B898823E9F08C899D89FC01CC
:101AA000848D882331F08C899D8921E0FC01258F6C
:101AB00011C08C899D89FC01838D882359F42B8961
:101AC0008C899D89FC01238F05C08C899D8921E02B
:101AD000FC01258F8C899D89FC01148E8C899D8940
:101AE00021E0FC012583000065960FB6F894DEBF67
:101AF0000FBECDBFDF91CF911F910F91EF90CF908F
:101B00000895CF92DF92EF92FF92CF93DF93CDB7FC
:101B1000DEB760970FB6F894DEBF0FBECDBF698702
:101B20007A878B879C872D873E874F87588B89853F
:101B30009A85AB85BC85BC01CD01C0DB882349F407
:101B40008D859E85AF85B889BC01CD01B7DB882323
:101B500069F080913E0A90913F0AA091400AB091AD
:101B6000410A89839A83AB83BC83ABC089859A85FC
:101B7000AB85BC85BC01CD0169DB882309F457C066
:101B80008D859E85AF85B889BC01CD015FDB88233B
:101B900009F44DC020E030E0A90169857A858B8584
:101BA0009C850E94735D18162CF481E090E09E8362
:101BB0008D8304C08FEF9FEF9E838D8320E030E004
:101BC000A9016D857E858F8598890E94735D1816A1
:101BD0002CF481E090E098878F8304C08FEF9FEF13
:101BE00098878F838F819885092E000CAA0BBB0BD9
:101BF000BC01CD010E944B5C6B017C018D819E81FB
:101C0000092E000CAA0BBB0BBC01CD010E944B5C42
:101C1000DC01CB01A7019601BC01CD010E944B5B09
:101C2000DC01CB0189839A83AB83BC834AC020E06B
:101C300030E0A9016D857E858F8598890E94B15B12
:101C4000882369F520E030E0A90169857A858B85D4
:101C50009C850E94735D18164CF48BED9FE0A9ECF7
:101C6000BFE389839A83AB83BC832BC020E030E041
:101C7000A90169857A858B859C850E94B15B882343
:101C80004CF48BED9FE0A9ECBFEB89839A83AB8387
:101C9000BC8317C019821A821B821C8212C02D8538
:101CA0003E854F85588989859A85AB85BC85BC0161
:101CB000CD010E944B5BDC01CB0189839A83AB830E
:101CC000BC8389819A81AB81BC81BC01CD016096C6
:101CD0000FB6F894DEBF0FBECDBFDF91CF91FF905E
:101CE000EF90DF90CF900895CF93DF9300D000D096
:101CF0001F921F92CDB7DEB76D837E838F83988747
:101D00008D819E81AF81B885BF7720E030E040E8CB
:101D100059E5BC01CD010E94B15B88230CF056C08F
:101D200020E030E040E05FE36D817E818F81988527
:101D30000E94735D8823BCF020E030E040E05FE368
:101D40006D817E818F8198850E94D85ADC01CB01FC
:101D5000BC01CD010E94865CDC01CB0189839A83A2
:101D6000AB83BC833BC020E030E040E05FEB6D81A3
:101D70007E818F8198850E94735D181684F420E01F
:101D800030E0A9016D817E818F8198850E947E5D02
:101D9000DC01CB0189839A83AB83BC831FC020E025
:101DA00030E040E05FE36D817E818F8198850E9405
:101DB000D75ADC01CB01BC01CD010E949E5BDC0146
:101DC000CB0189839A83AB83BC8308C08D819E81BC
:101DD000AF81B88589839A83AB83BC8389819A81DB
:101DE000AB81BC81BC01CD0128960FB6F894DEBF53
:101DF0000FBECDBFDF91CF9108958F929F92AF928A
:101E0000BF92CF92DF92EF92FF920F931F93CF93E7
:101E1000DF93CDB7DEB76E970FB6F894DEBF0FBE77
:101E2000CDBF8091500A9091510AA091520AB09171
:101E3000530A20910402309105024091060250910C
:101E40000702BC01CD010E94B15B882381F0809123
:101E5000040290910502A0910602B09107028093BE
:101E6000500A9093510AA093520AB093530A80915A
:101E7000540A882329F40E94170481E08093540AAD
:101E80001092650A85E59AE098878F838BE38E8FA1
:101E90008E8D8D8F8F819885FC0185819681AE0115
:101EA000435E5F4FC12CEE24E39401E010E020E09C
:101EB00030E068E670E00E9492028E8F8E8D88235B
:101EC000F1F48F819885FC0185819681AE014D5E8C
:101ED0005F4FCC24C394E12C06E010E020E030E01A
:101EE00068E670E00E94C7019E012D5E3F4FCE0163
:101EF0000D9646E050E0B9010E94A57915C01E82FA
:101F00001D820EC09E01235F3F4F8D819E81820FF7
:101F1000931FFC0110828D819E8101969E838D838B
:101F20008D819E81069774F38E8D882379F0809140
:101F3000660A882321F081E08093670A07C08091B8
:101F4000650A882319F48E8D8093650A8D85882F04
:101F500090E0382F22278E85882F90E0822B932BBC
:101F6000092E000CAA0BBB0BBC01CD010E944B5CDF
:101F7000DC01CB018093780A9093790AA0937A0AC6
:101F8000B0937B0A8F85882F90E0382F222788898D
:101F9000882F90E0822B932B092E000CAA0BBB0BF1
:101FA000BC01CD010E944B5CDC01CB0180937C0A1B
:101FB00090937D0AA0937E0AB0937F0A8989882F27
:101FC00090E0382F22278A89882F90E0822B932B4C
:101FD000092E000CAA0BBB0BBC01CD010E944B5C6F
:101FE000DC01CB018093800A9093810AA093820A3E
:101FF000B093830A8091670A8823C9F01092780A07
:102000001092790A10927A0A10927B0A10927C0A36
:1020100010927D0A10927E0A10927F0A1092800A16
:102020001092810A1092820A1092830A6CC08091E9
:10203000780A9091790AA0917A0AB0917B0A2AE0F5
:1020400038EE4CE151E4BC01CD010E947E5DDC0123
:10205000CB0120E030E040E055E4BC01CD010E941E
:10206000B55BDC01CB018093780A9093790AA09349
:102070007A0AB0937B0A80917C0A90917D0AA091A4
:102080007E0AB0917F0A2AE038EE4CE151E4BC01AF
:10209000CD010E947E5DDC01CB0120E030E040E01C
:1020A00055E4BC01CD010E94B55BDC01CB018093FE
:1020B0007C0A90937D0AA0937E0AB0937F0A809158
:1020C000800A9091810AA091820AB091830A2AE045
:1020D00038EE4CE151E4BC01CD010E947E5DDC0193
:1020E000CB0120E030E040E055E4BC01CD010E948E
:1020F000B55BDC01CB018093800A9093810AA093A9
:10210000820AB093830A85E59AE098878F8383E4F7
:102110008E8F8E8D8D8F8F819885FC018581968124
:10212000AE01435E5F4FC12CEE24E39401E010E06A
:1021300020E030E068E670E00E9492028E8F8E8D83
:102140008823F1F48F819885FC0185819681AE0109
:102150004D5E5F4FCC24C394E12C06E010E020E0FC
:1021600030E068E670E00E94C7019E012D5E3F4F9F
:10217000CE010D9646E050E0B9010E94A57915C048
:102180001E821D820EC09E01235F3F4F8D819E8166
:10219000820F931FFC0110828D819E8101969E8388
:1021A0008D838D819E81069774F38E8D882379F0BF
:1021B0008091660A882321F081E08093670A07C036
:1021C0008091650A882319F48E8D8093650A8D8528
:1021D000882F90E0382F22278E85882F90E0822B41
:1021E000932B092E000CAA0BBB0BBC01CD010E9446
:1021F0004B5CDC01CB018093840A9093850AA09309
:10220000860AB093870A8F85882F90E0382F22277F
:102210008889882F90E0822B932B092E000CAA0B23
:10222000BB0BBC01CD010E944B5CDC01CB01809358
:10223000880A9093890AA0938A0AB0938B0A8989A5
:10224000882F90E0382F22278A89882F90E0822BD0
:10225000932B092E000CAA0BBB0BBC01CD010E94D5
:102260004B5CDC01CB0180938C0A90938D0AA09388
:102270008E0AB0938F0A8091670A8823C9F0109262
:10228000840A1092850A1092860A1092870A109288
:10229000880A1092890A10928A0A10928B0A109268
:1022A0008C0A10928D0A10928E0A10928F0A4EC0DC
:1022B0008091840A9091850AA091860AB091870A3C
:1022C00020E030E04AE75DE3BC01CD010E947E5D85
:1022D000DC01CB018093840A9093850AA093860A3F
:1022E000B093870A8091880A9091890AA0918A0AFE
:1022F000B0918B0A20E030E04AE75DE3BC01CD01FC
:102300000E947E5DDC01CB018093880A9093890A4C
:10231000A0938A0AB0938B0A80918C0A90918D0ABF
:10232000A0918E0AB0918F0A20E030E04AE75DE389
:10233000BC01CD010E947E5DDC01CB0180938C0A43
:1023400090938D0AA0938E0AB0938F0A85E59AE048
:1023500098878F8381E48E8F8E8D8D8F8F81988566
:10236000FC0185819681AE01435E5F4FC12CEE2456
:10237000E39401E010E020E030E068E670E00E94C5
:1023800092028E8F8E8D8823E9F48F819885FC01CF
:1023900085819681AE01455E5F4FCC24C394E12CCC
:1023A00002E010E020E030E068E670E00E94C70143
:1023B0009E01255E3F4FCE01499642E050E0B901B3
:1023C0000E94A5798E8D882379F08091660A8823F2
:1023D00021F081E08093670A07C08091650A882315
:1023E00019F48E8D8093650A8091840A9091850AF4
:1023F000A091860AB091870A25E33AEF4EE85CE3A4
:10240000BC01CD010E947E5DDC01CB0189839A83F2
:10241000AB83BC83C090780AD090790AE0907A0AA6
:10242000F0907B0A80907C0A90907D0AA0907E0AB2
:10243000B0907F0A29813A814B815C8169817A81E0
:102440008B819C810E947E5DDC01CB012AE037ED0F
:1024500043E25CE3BC01CD010E947E5DDC01CB0167
:102460009C01AD01C501B4010E94D75ADC01CB012A
:10247000A7019601BC01CD0144DBDC01CB0121EEBB
:102480003EE245E652E4BC01CD010E947E5DDC01E6
:10249000CB0124EA30E74DE050ECBC01CD010E94B5
:1024A0007E5DDC01CB016C017D0180918C0A9091F5
:1024B0008D0AA0918E0AB0918F0A23EC35EF48E384
:1024C00050ECBC01CD010E947E5DDC01CB019C0182
:1024D000AD01C701B6010E94D85ADC01CB01898346
:1024E0009A83AB83BC8389819A81AB81BC81BF779E
:1024F00089879A87AB87BC8720E030E040E751E4CA
:1025000069857A858B859C850E94735D1816D4F445
:1025100029813A814B815C8169857A858B859C858F
:102520000E94B55BDC01CB0120E030E040E751E4E4
:10253000BC01CD010E947E5DDC01CB0189839A83C1
:10254000AB83BC8320E030E044EB52E469817A81C4
:102550008B819C810E94D85ADC01CB018093900A28
:102560009093910AA093920AB093930A20E030E0EE
:1025700044EB52E469817A818B819C810E94D85A14
:10258000DC01CB018093940A9093950AA093960A5C
:10259000B093970A20E030E044EB52E469817A81FD
:1025A0008B819C810E94D85ADC01CB018093980AD0
:1025B0009093990AA0939A0AB0939B0A8091900AEB
:1025C0009091910AA091920AB091930A20E030E094
:1025D000A901BC01CD010E94B15B882314F41E8EB9
:1025E0004BC08091900A9091910AA091920AB0916B
:1025F000930A20E030E044E353E4BC01CD010E94A3
:10260000735D18161CF484EB8E8F36C08091900A8F
:102610009091910AA091920AB091930ABC01CD01C8
:1026200063DBDC01CB0189879A87AB87BC8720E01D
:1026300030E040E853E469857A858B859C850E946B
:10264000B15B8823BCF420E030E0A90169857A857C
:102650008B859C850E94735D882354F069857A85FB
:102660008B859C850E941D5CDC01CB018E8F04C094
:102670001E8E02C08FEF8E8F8E8D682F80E00E949D
:1026800042048091940A9091950AA091960AB09183
:10269000970A20E030E0A901BC01CD010E94B15BA6
:1026A000882314F41E8E4BC08091940A9091950A51
:1026B000A091960AB091970A20E030E044E353E4F9
:1026C000BC01CD010E94735D18161CF484EB8E8F43
:1026D00036C08091940A9091950AA091960AB09183
:1026E000970ABC01CD0100DBDC01CB0189879A8709
:1026F000AB87BC8720E030E040E853E469857A8509
:102700008B859C850E94B15B8823BCF420E030E07F
:10271000A90169857A858B859C850E94735D8823D4
:1027200054F069857A858B859C850E941D5CDC014F
:10273000CB018E8F04C01E8E02C08FEF8E8F8E8DC8
:10274000682F81E00E9442048091980A9091990A32
:10275000A0919A0AB0919B0A20E030E0A901BC0147
:10276000CD010E94B15B882314F41E8E4BC0809172
:10277000980A9091990AA0919A0AB0919B0A20E038
:1027800030E044E353E4BC01CD010E94735D1816B0
:102790001CF484EB8E8F36C08091980A9091990A30
:1027A000A0919A0AB0919B0ABC01CD019DDADC018F
:1027B000CB0189879A87AB87BC8720E030E040E86F
:1027C00053E469857A858B859C850E94B15B88235B
:1027D000BCF420E030E0A90169857A858B859C8571
:1027E0000E94735D882354F069857A858B859C856A
:1027F0000E941D5CDC01CB018E8F04C01E8E02C0C6
:102800008FEF8E8F8E8D682F82E00E94420427E02A
:1028100033E0F901828D938DA48DB58D0196A11DB4
:10282000B11DF901828F938FA48FB58FF901828D2D
:10283000938DA48DB58D892B8A2B8B2B79F427E072
:1028400033E0F901868D978DA0A1B1A10196A11D5C
:10285000B11DF901868F978FA0A3B1A387E093E004
:10286000FC01828D938DA48DB58DBC01CD010E949C
:10287000495C7B018C0187E093E0FC0182A193A17C
:10288000A4A1B5A19C01AD01C801B7010E947E5D64
:10289000DC01CB016C017D0187E093E0FC01868DBA
:1028A000978DA0A1B1A1BC01CD010E94495C4B0153
:1028B0005C0187E093E0FC0182A193A1A4A1B5A1F2
:1028C0009C01AD01C501B4010E947E5DDC01CB011C
:1028D00020E030E040E85FE4BC01CD010E947E5D75
:1028E000DC01CB0107E013E09C01AD01C701B6019B
:1028F0000E94D85ADC01CB01F801868B978BA08F00
:10290000B18F00006E960FB6F894DEBF0FBECDBF3C
:10291000DF91CF911F910F91FF90EF90DF90CF90BB
:10292000BF90AF909F908F900895CF93DF93CDB7D6
:10293000DEB784E090E00E94D60887E093E04BE2A7
:1029400050E060E070E00E94AE7927E033E080E084
:1029500090E0A0E8BFEBF90186A397A3A0A7B1A7D9
:1029600027E033E08FE692E1A3E8BBE3F90182A31D
:1029700093A3A4A3B5A327E033E089E492E2ABE0FC
:10298000B6E5F90184839583A683B78327E033E016
:1029900084EA9AEAA7E1B1EDF90180879187A287DD
:1029A000B38727E033E083EA9DE9A2E5B8E4F901C3
:1029B00084879587A687B78727E033E08BEE9FE073
:1029C000A7ECB1E6F901808B918BA28BB38B87E0EA
:1029D00093E022E333E0FC01338322838EE393E030
:1029E000909333038093320387E392E090933F0305
:1029F00080933E0387E392E09093410380934003EA
:102A000087E392E0909343038093420387E392E04D
:102A1000909345038093440387E392E090934703A8
:102A20008093460387E392E09093490380934803A1
:102A300087E392E090934B0380934A0327E033E0CF
:102A400087E093E0FC01828193812C5E3F4FFC0183
:102A50003583248327E033E087E093E0FC01828123
:102A600093812C5F3F4FFC013383228327E033E0C7
:102A700087E093E0FC01828193812A5E3F4FFC0155
:102A80003783268344E250E060E070E088E79AE014
:102A90000E94AE794EE250E060E070E08AE49AE095
:102AA0000E94AE7981E08093550A81E080934A0AC2
:102AB0008AE49AE00E94EC0981E08093770A809191
:102AC000040290910502A0910602B0910702809342
:102AD000500A9093510AA093520AB093530A8AE481
:102AE0009AE00E94450A81E08093760A81E090E0B6
:102AF000A0E0B0E08093700A9093710AA093720AEC
:102B0000B093730A6AE080E00E94240481E080931D
:102B1000750A81E090E0A0E0B0E080936C0A9093A9
:102B20006D0AA0936E0AB0936F0A6BE081E00E9479
:102B3000240481E08093740A81E090E0A0E0B0E09A
:102B40008093680A9093690AA0936A0AB0936B0A0B
:102B50006CE082E00E9424040000DF91CF91089590
:102B6000CF93DF931F921F92CDB7DEB780914A0AB1
:102B70008823F1F481E080934A0A80914B0A909176
:102B80004C0AA0914D0AB0914E0A0197A105B105DA
:102B900079F480914F0A882359F085E59AE09A8369
:102BA000898389819A81FC01858196810E940F0326
:102BB00085E59AE09A83898389819A81FC018081E5
:102BC0008823D9F489819A8121E0FC0120838981BD
:102BD0009A81FC0181819281A381B4810197A10531
:102BE000B10559F429813A8182E090E0A0E0B0E09B
:102BF000F90181839283A383B48300000F900F9027
:102C0000DF91CF9108950F931F93CF93DF9300D05F
:102C100000D000D01F92CDB7DEB79A8389834B8353
:102C20005C836D837E830F83188729873A87298188
:102C30003A818B819C81AD81BE81F9018083918332
:102C4000A283B38389819A819C012C5F3F4F8F813E
:102C50009885A985BA85F90180839183A283B3837E
:102C600000002A960FB6F894DEBF0FBECDBFDF91ED
:102C7000CF911F910F910895EF92FF920F931F93A1
:102C8000CF93DF93CDB7DEB76A970FB6F894DEBF68
:102C90000FBECDBF6D8B7E8B8F8B988F5A8F498FD8
:102CA00019821A821B821C82F894898D9A8D892B35
:102CB00009F00BC18091710390917203A09173038D
:102CC000B09174032D893E894F89588D2817390793
:102CD0004A075B07C8F08091710390917203A0913D
:102CE0007303B09174032D893E894F89588D790102
:102CF0008A01E81AF90A0A0B1B0BD801C7018D8358
:102D00009E83AF83B88718C080917103909172033E
:102D1000A0917303B09174032D893E894F89588D1A
:102D200079018A01E81AF90A0A0B1B0BD801C701BD
:102D30008D839E83AF83B8878091750390917603CE
:102D4000A0917703B09178032D813E814F81588502
:102D5000820F931FA41FB51F898B9A8BAB8BBC8BE3
:102D60008091750390917603A0917703B0917803D9
:102D700029893A894B895C89281739074A075B07F3
:102D800098F48091790390917A03A0917B03B0919C
:102D90007C030196A11DB11D8093790390937A0362
:102DA000A0937B03B0937C0389899A89AB89BC8902
:102DB0008093750390937603A0937703B093780381
:102DC0002091790330917A0340917B0350917C03E9
:102DD0008091750390917603A0917703B091780369
:102DE00089019A01AC01BD0189E693E00CDF8D8970
:102DF0009E89AF89B88D8093710390937203A093DD
:102E00007303B09374032D813E814F81588580EA0E
:102E10009FE0DC010E9488799B01AC0180917D03D9
:102E200090917E03A0917F03B0918003820F931F46
:102E3000A41FB51F80937D0390937E03A0937F030F
:102E4000B093800380917D0390917E03A0917F03D6
:102E5000B091800389839A83AB83BC8380910802FD
:102E600090910902A0910A02B0910B028F3F9F4FEF
:102E7000AF4FBF4F09F43CC1809108029091090205
:102E8000A0910A02B0910B028E3F9F4FAF4FBF4FF0
:102E900009F42EC120917503309176034091770398
:102EA000509178038091080290910902A0910A0242
:102EB000B0910B0261E0281739074A075B0708F455
:102EC00060E0862F8093640313C119861A861B86DF
:102ED0001C861D861E861F86188A80910C02909182
:102EE0000D02A0910E02B0910F028F3F9F4FAF4F86
:102EF000BF4FE1F080910C0290910D02A0910E0263
:102F0000B0910F029C01AD012F5F3F4F4F4F5F4FBC
:102F10008D899E89AF89B88DBC01CD010E9442790F
:102F2000DC01CB018D8B9E8BAF8BB88F80917103B1
:102F300090917203A0917303B09174032D893E891F
:102F40004F89588D281739074A075B0708F447C08F
:102F50008091710390917203A0917303B0917403F7
:102F60002D893E894F89588D79018A01E81AF90A1D
:102F70000A0B1B0BD801C70189879A87AB87BC87CF
:102F80002091710330917203409173035091740347
:102F90008D899E89AF89B88D79018A01E81AF90A6D
:102FA0000A0B1B0BD801C7018D879E87AF87B88B93
:102FB0002D853E854F85588989859A85AB85BC8549
:102FC00082179307A407B50728F019861A861B866F
:102FD0001C864BC01D861E861F86188A46C080919F
:102FE000710390917203A0917303B09174032D89C2
:102FF0003E894F89588D79018A01E81AF90A0A0B2E
:103000001B0BD801C70189879A87AB87BC872091A2
:1030100071033091720340917303509174038D8951
:103020009E89AF89B88D79018A01E81AF90A0A0BDD
:103030001B0BD801C7018D879E87AF87B88B2D8565
:103040003E854F85588989859A85AB85BC858217D1
:103050009307A407B50728F019861A861B861C86D5
:1030600004C01D861E861F86188A89859A85AB85B1
:10307000BC85892B8A2B8B2BE1F029853A854B85E2
:103080005C8580EA9FE0DC010E9488799B01AC01AD
:1030900080917D0390917E03A0917F03B091800386
:1030A000820F931FA41FB51F89839A83AB83BC83B0
:1030B0001FC0E0907D03F0907E0300917F0310918C
:1030C00080032D853E854F85588980EA9FE0DC018D
:1030D0000E948879DC01CB01A8019701281B390BDC
:1030E0004A0B5B0BDA01C90189839A83AB83BC83EA
:1030F000789489819A81AB81BC81BC01CD016A96AB
:103100000FB6F894DEBF0FBECDBFDF91CF911F91F8
:103110000F91FF90EF900895CF93DF9300D000D0F0
:10312000CDB7DEB769837A838B839C835E834D83BF
:103130002D813E8189819A81AB81BC81A901BC012D
:10314000CD019ADDDC01CB01BC01CD0126960FB685
:10315000F894DEBF0FBECDBFDF91CF910895CF931E
:10316000DF9300D000D0CDB7DEB71C821B821E8259
:103170001D821A82198210926503109266031092C2
:103180006703109268039E012B5F3F4FCE010396A9
:10319000B9010E9495572D813E818B819C81B90197
:1031A0000E9411459A83898389819A81892B19F01C
:1031B00089819A8113C09E012B5F3F4FCE010396F8
:1031C000B9010E94B9572D813E818B819C81B90143
:1031D0000E942D229A83898389819A8126960FB62F
:1031E000F894DEBF0FBECDBFDF91CF910895CF938E
:1031F000DF9300D01F921F92CDB7DEB78D831A8266
:1032000019821B8260E070E0CB010E944E6E1C822E
:103210000E94DB469A83898389819A81892B39F0C0
:1032200089819A81029619F081E08B830DC08C818F
:10323000882321F489819A81029619F081E090E037
:1032400002C080E090E08C838B818823E1F40E94AF
:1032500060229A83898389819A81892B39F08981B7
:103260009A81029619F081E08B830DC08C818823AE
:1032700021F489819A81029619F081E090E002C0E0
:1032800080E090E08C838B818823E1F40E94664685
:103290009A83898389819A81892B39F089819A81DE
:1032A000029619F081E08B830DC08C81882321F474
:1032B00089819A81029619F081E090E002C080E055
:1032C00090E08C838D81882391F060E070E0CB01E9
:1032D0000E944E6E8B81882319F48C81882319F407
:1032E00081E090E002C080E090E08B8302C081E04A
:1032F0008B838B81882309F48ACF89819A810F90EF
:103300000F900F900F900F90DF91CF910895CF9372
:10331000DF9300D000D01F921F92CDB7DEB7188682
:103320001F8280916403882329F060E070E0CB0164
:103330000E94AC230E9489239E838D8319821A8266
:103340001B821C8218C06AE070E080E090E00E945E
:103350004E6E89819A81AB81BC81805F984DAF4F61
:10336000BF4F89839A83AB83BC8381E040DF0E9497
:1033700089239E838D8389819A81AB81BC8181154C
:103380009D42A143B14020F48D819E81892BD9F6C5
:103390000E94942398878F830E94764898878F8312
:1033A00010924C0310924D0310925003109251034F
:1033B000109252031092530310925403109255032B
:1033C000109256031092570310925803109259030B
:1033D00010925A0310925B0310925C0310925D03EB
:1033E00010925E0310925F031092600310926103CB
:1033F00010926203109263038EEF9FEFAFEFBFEF67
:103400008093080290930902A0930A02B0930B02E2
:103410001092640348E050E060E070E089E693E0D9
:103420000E94AE791092710310927203109273038E
:103430001092740310927503109276031092770322
:10344000109278031092790310927A0310927B0302
:1034500010927C0310927D0310927E0310927F03E2
:10346000109280038F81988528960FB6F894DEBF5E
:103470000FBECDBFDF91CF910895CF93DF9300D0E2
:1034800000D01F921F92CDB7DEB780918303909139
:103490008403A0918503B09186039A8389838981EF
:1034A0009A81892B09F431C180918703882369F4BB
:1034B0008091830390918403A0918503B09186034A
:1034C000892B8A2B8B2B09F420C180919B0390912F
:1034D0009C03029709F019C18091A503882309F084
:1034E00014C189819A81FC0180819181A281B3817B
:1034F0008B839C83AD83BE838091A103882309F4D1
:10350000F0C08091940390919503892B31F08091C4
:10351000940390919503029719F481E090E002C022
:1035200080E090E08F8380919403909195030197C0
:1035300031F08091940390919503029719F481E002
:1035400090E002C080E090E088878F81882309F4B2
:1035500062C08091880390918903A0918A03B09101
:103560008B039C01AD016B817C818D819E810E94CA
:10357000735D8823B4F080919D0390919E03A09188
:103580009F03B091A003209188033091890340915B
:103590008A0350918B03BC01CD010E94B15B88234B
:1035A00044F18091880390918903A0918A03B0919E
:1035B0008B039C01AD016B817C818D819E810E947A
:1035C000735D181644F580919D0390919E03A09120
:1035D0009F03B091A003209188033091890340910B
:1035E0008A0350918B03BC01CD010E94B15B8823FB
:1035F00091F48091900390919103A0919203B091E6
:103600009303892B8A2B8B2B19F481E08093A403DD
:1036100081E08093A5038885882309F462C08091A6
:10362000880390918903A0918A03B0918B039C0138
:10363000AD016B817C818D819E810E94B15B88236D
:10364000B4F480919D0390919E03A0919F03B0914B
:10365000A003209188033091890340918A035091FF
:103660008B03BC01CD010E94735D882344F58091DA
:10367000880390918903A0918A03B0918B039C01E8
:10368000AD016B817C818D819E810E94B15B88231D
:1036900041F580919D0390919E03A0919F03B0916D
:1036A000A003209188033091890340918A035091AF
:1036B0008B03BC01CD010E94735D181694F48091B8
:1036C000900390919103A0919203B0919303892B61
:1036D0008A2B8B2B19F481E08093A40381E08093E3
:1036E000A5039091A50381E0992309F080E08093E0
:1036F000A1038B819C81AD81BE8180939D039093BA
:103700009E03A0939F03B093A003000028960FB6DA
:10371000F894DEBF0FBECDBFDF91CF910895CF9358
:10372000DF931F92CDB7DEB7198280919B039091F2
:103730009C03892BC9F4109296031092A5038091E3
:103740001402882371F182E090E090939C038093AF
:103750009B03109214028091970390919803892BF8
:1037600001F581E089831DC01092140280919603B7
:10377000882349F01092A40310929C0310929B039B
:10378000109296030EC08091970390919803892B15
:1037900019F481E0898305C08091A5038983109283
:1037A000A50380919B0390919C0382309105F9F0D1
:1037B0008330910530F4009761F0019709F44CC112
:1037C000AEC18330910509F4EEC0049709F46AC0D4
:1037D000A6C180911402882309F4ACC182E090E074
:1037E00090939C0380939B0310921402A3C1898140
:1037F000882309F4A1C18091900390919103A09135
:103800009203B0919303181619061A061B06ECF4DE
:1038100080919703909198030197B9F48091900358
:1038200090919103A0919203B09193038093A6038A
:103830009093A703A093A803B093A90383E090E01B
:1038400090939C0380939B0377C180911002909189
:103850001102A0911202B0911302892B8A2B8B2B9B
:10386000D1F081E08093A403809110029091110225
:10387000A0911202B09113028093A6039093A70324
:10388000A093A803B093A90384E090E090939C03D5
:1038900080939B0351C11092A40310929C03109239
:1038A0009B034AC18091A6039091A703A091A8030E
:1038B000B091A903892B8A2B8B2B99F08091A603B9
:1038C0009091A703A091A803B091A9030197A10922
:1038D000B1098093A6039093A703A093A803B09384
:1038E000A9038091A6039091A703A091A803B0918A
:1038F000A903892B8A2B8B2B09F020C18091990376
:1039000090919A03019739F41092A40310929C03AA
:1039100010929B0313C180918C0390918D03A09111
:103920008E03B0918F03892B8A2B8B2BC9F01092B9
:10393000A40380918C0390918D03A0918E03B0918C
:103940008F038093A6039093A703A093A803B0933B
:10395000A90381E090E090939C0380939B03EEC0C9
:1039600089818823B9F08091100290911102A09171
:103970001202B09113028093A6039093A703A09321
:10398000A803B093A90384E090E090939C038093F4
:103990009B03D4C01092A40382E090E090939C0318
:1039A00080939B03CBC08091A6039091A703A09125
:1039B000A803B091A903892B8A2B8B2B99F08091B6
:1039C000A6039091A703A091A803B091A903019722
:1039D000A109B1098093A6039093A703A093A8031C
:1039E000B093A9038091A6039091A703A091A80387
:1039F000B091A903892B8A2B8B2B09F0A1C0809150
:103A0000100290911102A0911202B0911302892B21
:103A10008A2B8B2BD1F081E08093A403809110023C
:103A200090911102A0911202B09113028093A6030B
:103A30009093A703A093A803B093A90384E090E018
:103A400090939C0380939B037BC01092A4031092DD
:103A50009C0310929B0374C08091A6039091A703CE
:103A6000A091A803B091A903892B8A2B8B2B99F0E5
:103A70008091A6039091A703A091A803B091A903F8
:103A80000197A109B1098093A6039093A703A0937E
:103A9000A803B093A9038091A6039091A703A091D6
:103AA000A803B091A903892B8A2B8B2B09F04AC05C
:103AB0008981882369F18091100290911102A0916F
:103AC0001202B0911302892B8A2B8B2BD1F081E04B
:103AD0008093A4038091100290911102A091120290
:103AE000B09113028093A6039093A703A093A80319
:103AF000B093A90384E090E090939C0380939B0390
:103B000021C01092A40310929C0310929B031AC030
:103B100082E090E090939C0380939B0313C01092EB
:103B2000A4031092A5031092960310929C03109286
:103B30009B0309C0000007C0000005C0000003C0CF
:103B4000000001C0000000000F90DF91CF910895A8
:103B5000CF93DF93CDB7DEB710929D0310929E03F3
:103B600010929F031092A0031092A10380919703DB
:103B7000909198039093A3038093A2031092A403BF
:103B80001092A5031092A6031092A7031092A80307
:103B90001092A90310929C0310929B0380E090E086
:103BA000DF91CF910895CF93DF9300D0CDB7DEB7EB
:103BB0009B838A838A819B81892B09F05BC020913A
:103BC0009703309198038091A2039091A30341E061
:103BD0002817390709F440E04983809197039091B1
:103BE00098039093A3038093A2038981882381F093
:103BF0001092A4031092A5031092A6031092A7039B
:103C00001092A8031092A90310929C0310929B0398
:103C10008091970390919803019761F580919B03A0
:103C200090919C03892B21F480911402882391F4B4
:103C300080919B0390919C030197E1F48091A603EE
:103C40009091A703A091A803B091A9030197A105A2
:103C5000B10581F41092A6031092A7031092A80355
:103C60001092A9031092140282E090E090939C03BA
:103C700080939B038091970390919803019751F44F
:103C800080918103909182032A813B812817390713
:103C900009F4F3DB8A819B81892B21F440DD1092AA
:103CA000AB0307C08091AB03882319F08091AA036E
:103CB00002C08091A4030F900F900F90DF91CF91DD
:103CC0000895CF93DF93CDB7DEB710929D03109286
:103CD0009E0310929F031092A0031092A1031092D2
:103CE0009C0310929B031092A3031092A2031092C4
:103CF0008203109281031092A4031092A5031092E4
:103D0000A6031092A7031092A8031092A903109281
:103D1000AA031092AB0310928303109284031092B3
:103D200085031092860310928703109288031092E5
:103D3000890310928A0310928B0388EE93E0A0E02F
:103D4000B0E08093100290931102A0931202B093FE
:103D5000130210928C0310928D0310928E03109216
:103D60008F0310929003109291031092920310927D
:103D70009303109295031092940381E080931402B0
:103D800010929603109298031092970310929A0340
:103D90001092990380E090E0DF91CF910895CF9346
:103DA000DF93CDB7DEB78091970390919803892B6D
:103DB00039F580911402882359F080919603882365
:103DC00039F481E08093AA0381E08093AB0318C0AB
:103DD00080919603282F30E09091140281E099237E
:103DE00009F080E0882F90E082239323892B31F023
:103DF0001092AA0381E08093AB0302C01092AB0340
:103E00000000DF91CF910895CF93DF93CDB7DEB758
:103E10002C970FB6F894DEBF0FBECDBF9E838D8367
:103E200078876F835A8749873C872B871A82198244
:103E30000E946B489C838B838D819E81FC018081D5
:103E400091810E94484B8B859C8560E070E00E94C8
:103E5000D4479C018F819885FC01318320830E9487
:103E6000BA479C0189859A85FC01318320838F8123
:103E70009885FC0180819181892BE1F08F81988563
:103E8000FC01208131818B819C81B9010E949E4F70
:103E90009C018D819E81FC01318320838D819E81D7
:103EA000FC0180819181892B49F486EF9FEF9A83F1
:103EB000898304C088EF9FEF9A83898389819A81DF
:103EC0002C960FB6F894DEBF0FBECDBFDF91CF9119
:103ED0000895CF93DF9300D000D0CDB7DEB79A839B
:103EE00089837C836B835E834D8389819A81892B4F
:103EF00021F089819A810E94484B8D819E81FC012D
:103F00001182108280E090E026960FB6F894DEBF12
:103F10000FBECDBFDF91CF910895CF93DF9300D037
:103F200000D0CDB7DEB79A8389837C836B835E83B1
:103F30004D838D819E8122E030E0FC01318320831E
:103F40008FEF9FEF26960FB6F894DEBF0FBECDBF62
:103F5000DF91CF910895CF93DF9300D01F92CDB71B
:103F6000DEB78B836C8385E090E09A8389838B81B5
:103F7000813F18F01A82198229C08B81843E40F05B
:103F80008B81813F28F481E090E09A8389831EC071
:103F90008B81833D18F08B81833E48F08B81803C80
:103FA00059F48C81882341F08C81833028F482E09D
:103FB00090E09A8389830AC08B81883C38F08B819A
:103FC000833D20F483E090E09A83898389819A81FC
:103FD0000F900F900F900F90DF91CF910895CF9396
:103FE000DF93CDB7DEB767970FB6F894DEBF0FBE8D
:103FF000CDBF998B888B7B8B6A8B5D8B4C8B3F8B7A
:104000002E8B888999899C838B838B819C81FC0171
:1040100080818D8319828D81803C49F48A899B89B6
:10402000029728F08B819C81FC018181898380919A
:10403000AD039091AE03892B09F455C069818D8140
:104040008ADF9B878A871A828A859B850597C1F1BB
:104050008A859B85880F991F8D549C4FFC01808118
:1040600091819D878C871F861E868C859D85892BD7
:1040700039F18D81882F90E02C853D85F9011995C6
:104080009F878E8721E08E859F85892B09F420E00C
:104090002A838A818823A1F08E859F85FC01228155
:1040A00033818C899D89FC01318320838E859F8596
:1040B000FC01248135818E899F89FC013183208315
:1040C0008A81882309F053C08C899D892DE83FE1BE
:1040D000FC01318320838E899F8920E231E2FC013B
:1040E0003183208344C08D818F3FA9F58091B30334
:1040F0009091B4039F838E838C899D89FC011182EA
:1041000010828E899F89FC01118210828E819F818D
:10411000892B69F12E813F818FEF90E0F90119958C
:104120009987888788859985892B09F1888599855C
:10413000FC01228133818C899D89FC01318320839C
:1041400088859985FC01248135818E899F89FC01B0
:10415000318320830CC08C899D8929E63FE1FC01D5
:10416000318320838E899F89FC0111821082000097
:1041700067960FB6F894DEBF0FBECDBFDF91CF912B
:104180000895CF93DF93CDB7DEB78091AD039091C3
:10419000AE03DF91CF910895CF93DF931F921F92CB
:1041A000CDB7DEB79A83898389819A819093AE03D4
:1041B0008093AD0300000F900F90DF91CF91089591
:1041C000CF93DF93CDB7DEB78091AF03DF91CF916F
:1041D0000895CF93DF931F92CDB7DEB78983909177
:1041E000AF038981892B8093AF0300000F90DF918B
:1041F000CF910895CF93DF931F92CDB7DEB7898318
:10420000898180959091AF0389238093AF0300004B
:104210000F90DF91CF910895CF93DF93CDB7DEB7A5
:104220008091B003DF91CF910895CF93DF93CDB705
:10423000DEB78091B1039091B203DF91CF910895E1
:10424000CF93DF9300D000D000D01F92CDB7DEB760
:104250009E838D8378876F835A8749878D819E815E
:10426000892B51F48F8198859C838B838B819C81D2
:104270002FEFFC0120838DC08F8198859A838983DD
:1042800089819A812EEFFC0120838D819E81092EE8
:10429000000CAA0BBB0B0F96A11DB11D8F30910511
:1042A000A105B10508F06FC0FC018827E55AFE4D55
:1042B0008F4F0C948079BD21B721B121AB21A5216D
:1042C00099219F2193218D218721822170216A21AB
:1042D00076217C2189819A8120E3FC01218359C0C8
:1042E00089819A8129E2FC01218353C089819A81C5
:1042F00022E2FC0121834DC089819A8120E2FC01E8
:10430000218347C089819A81FC01118242C0898141
:104310009A8123E2FC0121833CC089819A8121E2B8
:10432000FC01218336C089819A8121E1FC0121832E
:1043300030C089819A8127E2FC0121832AC08981CA
:104340009A812AE2FC01218324C089819A8120E19B
:10435000FC0121831EC089819A8124E2FC01218312
:1043600018C089819A8128E2FC01218312C08981C9
:104370009A8126E2FC0121830CC089819A8121E384
:10438000FC01218306C089819A8120E2FC012183FE
:1043900000C000002A960FB6F894DEBF0FBECDBF56
:1043A000DF91CF910895CF93DF9300D000D000D05C
:1043B0001F92CDB7DEB79E838D8378876F835A8730
:1043C00049871A8219828F819885892BD9F11C829D
:1043D0001B821C821B822BC02B813C81C901880F50
:1043E000991F820F931F880F991F9C018F819885B9
:1043F000820F931FFC01808191812D813E812817BE
:10440000390781F42B813C81C901880F991F820FE4
:10441000931F880F991F9C018F819885820F931F8E
:104420009A8389838B819C8101969C838B832B81CA
:104430003C8189859A852817390720F489819A81DA
:10444000892B51F289819A812A960FB6F894DEBFA2
:104450000FBECDBFDF91CF910895CF93DF9300D0F2
:104460001F92CDB7DEB79A8389837C836B8380915B
:10447000AC03882319F084EF9FEF1BC049D554D5B6
:104480009093B4038093B3030E940A390E942339A6
:104490009093B8038093B7030E94AC430E94B74344
:1044A0009093B6038093B50381E08093AC0380E0E2
:1044B00090E00F900F900F900F90DF91CF910895A3
:1044C000EF92FF920F931F93CF93DF93CDB7DEB799
:1044D00064970FB6F894DEBF0FBECDBF1A82198263
:1044E0001C821B8218861F821A8619861C861B86D0
:1044F0001E861D86188A1F861E821D821A8A198AA8
:104500001C8A1B8A8091AC03882319F487EF9FEFE4
:10451000C3C0BE01635F7F4F9E01255F3F4FAE0169
:10452000475F5F4FCE0107968B01BC0180E090E0B2
:104530000E9418479A83898389819A81892B49F03F
:1045400089819A81049629F089819A81059609F0DA
:1045500096C08F819885892B59F02B853C858D8558
:104560009E85280F391F89859A858217930728F41D
:1045700088EF9FEF9A83898385C02F8138858B854B
:104580009C85820F931F9E838D836D857E859E0102
:104590002D5E3F4FAE014F5E5F4F8D819E811FDDCF
:1045A00089899A89892B29F484EF9FEF9A838983DB
:1045B00069C029893A896B857C858F819885AE0190
:1045C000415F5F4FF90119959C838B838B899C898F
:1045D000892B09F451C08F859889892B09F44CC027
:1045E0001A8219822D853E858F859889281739076B
:1045F00068F42F853889AE01455F5F4FBE01675F64
:104600007F4FCE01079600DC9A8389832D853E85F6
:104610008D819E81A90160E070E00E94AE79898160
:104620009A81892B49F52F8138858B859C85820F4E
:10463000931F9E838D832B893C894F8558896D817B
:104640007E818B819C81F90119956F8578894B85D5
:104650005C8529853A858F8198857B018A01AC012B
:104660006FEF7FEF81E090E00E94C1459A838983DC
:1046700089819A81892B29F489819A810DC0000052
:1046800001C000008F819885892B21F08F8198854A
:104690000E94484B89819A8164960FB6F894DEBFD8
:1046A0000FBECDBFDF91CF911F910F91FF90EF9083
:1046B0000895CF93DF9300D000D01F921F92CDB703
:1046C000DEB79C838B834D835E836F8378871A82EA
:1046D00019828091AC03882319F487EF9FEF10C0F3
:1046E0008D819E81AF81B885EB81FC8120E0AC019A
:1046F000BD01CF010E9442399A83898389819A81C1
:1047000028960FB6F894DEBF0FBECDBFDF91CF91D4
:104710000895CF93DF93CDB7DEB78091AD0390912D
:10472000AE03DF91CF910895CF93DF93CDB7DEB77E
:104730000E94D6430E94274216D448E050E060E031
:1047400070E083EB93E00E94AE791092AC0380E0BE
:1047500090E0DF91CF910895CF93DF9300D000D008
:10476000CDB7DEB76B837C838D839E838B819C81E9
:10477000AD81BE81BC01CD010E94B43E9A83898384
:1047800089819A8126960FB6F894DEBF0FBECDBF01
:10479000DF91CF910895CF93DF9300D01F921F92A6
:1047A000CDB7DEB79D838C8381E089838C819D8129
:1047B000298140E050E0BA010E9442399B838A83FC
:1047C0008A819B810F900F900F900F900F90DF9137
:1047D000CF910895CF93DF9300D01F921F92CDB752
:1047E000DEB78D8381E090E09A8389830E942B4815
:1047F0009C838B838D81282F30E08B819C81498124
:104800005A81BA010E942E79CB0141E0281739075D
:1048100008F040E0842F0F900F900F900F900F90B2
:10482000DF91CF910895CF93DF9300D01F921F9215
:10483000CDB7DEB79C838B836D83A1D39A838983A5
:104840008091C003482F50E029813A818B819C815F
:10485000B9010E94A57900000F900F900F900F9062
:104860000F90DF91CF910895CF93DF93CDB7DEB74F
:104870002D970FB6F894DEBF0FBECDBF99878887FE
:104880007B876A875D874C871A82198228853985DC
:104890008A859B85820F931F9C838B838B819C8150
:1048A0009E838D831F820E94D2408F838F818823B5
:1048B00051F48C859D8522E030E0FC01318320831A
:1048C00085EF9FEF2DC08D819E81FC018181882322
:1048D00031F08D819E81FC018181813019F481E06C
:1048E00090E002C080E090E08F838F81882351F4B4
:1048F0008C859D8522E030E0FC01318320838EEFA2
:104900009FEF0EC081E090E047DC1A8219828C850F
:104910009D8528E030E0FC013183208389819A81E4
:104920002D960FB6F894DEBF0FBECDBFDF91CF91AD
:104930000895CF93DF9300D000D01F921F92CDB780
:10494000DEB79C838B837E836D8358874F838B81F7
:104950009C81892BA9F58D819E819A838983898188
:104960009A8148E050E060E070E00E94AE79898171
:104970009A812FEFFC01208325E089819A81FC0137
:10498000218320E089819A81FC0122830E942B48A7
:10499000282F89819A81FC0123830E9422489C014F
:1049A00089819A81FC013583248389819A8121E060
:1049B000FC01268389819A8121E0FC01278308C0BC
:1049C0004F8158852D813E818B819C81B90138DCD6
:1049D000000028960FB6F894DEBF0FBECDBFDF9162
:1049E000CF910895CF93DF9300D000D01F92CDB721
:1049F000DEB79B838A837D836C835F834E8381E0F4
:104A000089830E94D24089838981882351F48E81D1
:104A10009F8122E030E0FC013183208385EF9FEF0E
:104A20000CC080E090E0B8DB8E819F8121E030E017
:104A3000FC013183208380E090E027960FB6F89444
:104A4000DEBF0FBECDBFDF91CF910895CF93DF932F
:104A500000D000D0CDB7DEB79A8389837C836B8387
:104A60005E834D838D819E8126E030E0FC013183A1
:104A7000208380E090E026960FB6F894DEBF0FBE4C
:104A8000CDBFDF91CF910895CF93DF9300D000D0B9
:104A90001F921F92CDB7DEB79C838B837E836D837D
:104AA00058874F838D819E819A83898389819A81DA
:104AB00046E050E060E070E00E94AE7989819A8122
:104AC0002FEFFC0120837CDB282F89819A81FC0158
:104AD0002183A2DB282F89819A81FC012283A5DB17
:104AE0009C0189819A81FC013583248300002896EA
:104AF0000FB6F894DEBF0FBECDBFDF91CF91089502
:104B0000CF93DF9300D000D01F92CDB7DEB79B8349
:104B10008A837D836C835F834E8319820E94B540B4
:104B200089838981882321F00E9450480E94C640D1
:104B30008E819F8122E030E0FC01318320838BEF66
:104B40009FEF27960FB6F894DEBF0FBECDBFDF9163
:104B5000CF910895CF93DF93CDB7DEB72D970FB6E2
:104B6000F894DEBF0FBECDBF998788877B876A87A1
:104B70005D874C871A821982288539858A859B85AD
:104B8000820F931F9C838B838B819C819E838D835B
:104B90001F828D819E81FC0123818D819E81FC017C
:104BA00084819581A681B781422FBC01CD01F6D1C8
:104BB0008F838F81882351F48C859D8522E030E09E
:104BC000FC013183208384EF9FEF09C08C859D8594
:104BD00021E030E0FC013183208389819A812D9688
:104BE0000FB6F894DEBF0FBECDBFDF91CF91089511
:104BF000CF93DF93CDB7DEB72F970FB6F894DEBF14
:104C00000FBECDBF9B878A877D876C875F874E8766
:104C10001A8219822A853B858C859D85820F931F78
:104C20009C838B838B819C819E838D831F82A7D1E4
:104C3000998788878D819E81FC018181CBDD8F835F
:104C40008F81882351F48E859F8522E030E0FC011E
:104C5000318320838EEF9FEF22C088859985892B31
:104C600051F48E859F8522E030E0FC013183208362
:104C700084EF9FEF14C08D819E81FC018181809320
:104C8000C0038091C003882F90E09C012F5F3F4FAD
:104C90008E859F85FC013183208389819A812F969F
:104CA0000FB6F894DEBF0FBECDBFDF91CF91089550
:104CB000CF93DF93CDB7DEB72D970FB6F894DEBF55
:104CC0000FBECDBF998788877B876A875D874C87B2
:104CD00088859985892B91F552D19A8389838A8514
:104CE0009B859C838B838B819C8141E050E060E0BD
:104CF00070E00E94AE798B819C812FEFFC012083B4
:104D000089819A81892B11F18091C003882F90E0CD
:104D100001962C853D8528173907C1F48A859B8526
:104D200001969E838D831F828D819E816F817BDDA5
:104D30008091C00364D11092C00308C04C855D858A
:104D40002A853B8588859985B9017ADA00002D96F8
:104D50000FB6F894DEBF0FBECDBFDF91CF9108959F
:104D6000CF93DF93CDB7DEB72D970FB6F894DEBFA4
:104D70000FBECDBF998788877B876A875D874C8701
:104D80001A821982288539858A859B85820F931F0F
:104D90009C838B838B819C819E838D831F828D81DD
:104DA0009E81FC01818116DD8F838F81882351F4E0
:104DB0008C859D8522E030E0FC01318320838EEFDD
:104DC0009FEF31C08D819E81FC0123818D819E8169
:104DD000FC0184819581A681B781422FBC01CD0160
:104DE000DDD08F838F81882351F48C859D8522E0CF
:104DF00030E0FC013183208384EF9FEF14C08D816C
:104E00009E81FC0181818093C0038091C003882F23
:104E100090E09C012F5F3F4F8C859D85FC01318385
:104E2000208389819A812D960FB6F894DEBF0FBE3C
:104E3000CDBFDF91CF910895CF93DF93CDB7DEB78C
:104E40002D970FB6F894DEBF0FBECDBF9987888728
:104E50007B876A875D874C8788859985892B91F543
:104E60008ED09A8389838A859B859C838B838B8153
:104E70009C8141E050E060E070E00E94AE798B815F
:104E80009C812FEFFC01208389819A81892B11F16C
:104E90008091C003882F90E001962C853D852817CE
:104EA0003907C1F48A859B8501969E838D831F8275
:104EB0008D819E816F81B7DC8091C003A0D010925C
:104EC000C00308C04C855D852A853B85888599850A
:104ED000B901B6D900002D960FB6F894DEBF0FBE0B
:104EE000CDBFDF91CF910895CF93DF931F921F9293
:104EF000CDB7DEB79A83898389819A8147E050E0F4
:104F000068E372E050DA0F900F90DF91CF9108952F
:104F1000CF93DF93CDB7DEB784E797E210D093D07D
:104F20000000DF91CF910895CF93DF93CDB7DEB727
:104F30008091C1039091C203DF91CF910895CF93E7
:104F4000DF931F921F92CDB7DEB79A838983898141
:104F50009A819093C2038093C10300000F900F9039
:104F6000DF91CF910895CF93DF93CDB7DEB773D0A4
:104F700080E090E0E4DF0000DF91CF910895CF93CF
:104F8000DF93CDB7DEB78091BB039091BC03A091B6
:104F9000BD03B091BE03DF91CF910895CF93DF930E
:104FA00000D01F921F92CDB7DEB769837A838B83BF
:104FB0009C834D838D81882351F489819A81AB81B3
:104FC000BC81892B8A2B8B2B11F480E010C0898146
:104FD0009A81AB81BC818093BB039093BC03A09367
:104FE000BD03B093BE038D818093BF0381E00F901A
:104FF0000F900F900F900F90DF91CF910895CF9366
:10500000DF931F92CDB7DEB789832091BB03309128
:10501000BC034091BD035091BE038981882F90E06D
:10502000A0E0B0E0820F931FA41FB51F8093BB03C5
:105030009093BC03A093BD03B093BE0300000F90F8
:10504000DF91CF910895CF93DF93CDB7DEB7000006
:10505000DF91CF910895CF93DF93CDB7DEB70000F6
:10506000DF91CF910895CF93DF9300D0CDB7DEB716
:105070009B838A831982F8948091C9039091CA0313
:1050800021E0892B09F020E029838981882309F414
:10509000789489810F900F900F90DF91CF910895B0
:1050A000CF93DF931F921F92CDB7DEB79A83898388
:1050B000789400000F900F90DF91CF910895CF93D7
:1050C000DF931F921F92CDB7DEB79A838983F8943E
:1050D0008091C9039091CA0301969093CA0380936B
:1050E000C903789400000F900F90DF91CF9108953D
:1050F000CF93DF931F921F92CDB7DEB79A83898338
:10510000F8948091C9039091CA0301979093CA03C0
:105110008093C903789400000F900F90DF91CF9196
:105120000895CF93DF931F921F92CDB7DEB79A8376
:1051300089832091C3033091C40349815A8163E17B
:10514000649FC001659F900D1124820F931FFC0185
:1051500083819481029799F02091C3033091C40315
:1051600049815A8163E1649FC001659F900D1124BC
:10517000820F931FFC0183819481039719F481E0CE
:1051800090E002C080E090E00F900F90DF91CF910F
:105190000895CF93DF9300D0CDB7DEB719821B827D
:1051A0001A821B821A8209C08A819B81BADF898395
:1051B0008A819B8101969B838A838091C50390910C
:1051C000C6032A813B812817390718F4898188236F
:1051D00059F381E09981992309F080E00F900F90B5
:1051E0000F90DF91CF910895CF93DF9300D01F925E
:1051F0001F92CDB7DEB79B838A836C834D838091EA
:10520000C3039091C403892B09F477C08091C5032F
:105210009091C6032A813B812817390708F06DC099
:105220002091C3033091C4034A815B8163E1649F91
:10523000C001659F900D1124820F931FFC01808196
:105240009181892B09F459C02091C3033091C40383
:105250004A815B8163E1649FC001659F900D1124C9
:10526000820F931FFC0182819C81981708F045C032
:105270002091C3033091C4034A815B8163E1649F41
:10528000C001659F900D1124820F931FFC012081A6
:1052900031818C81482F50E06BE0649FC001659F95
:1052A000900D1124820F931FFC0180819181892B25
:1052B00021F12091C3033091C4034A815B8163E1F2
:1052C000649FC001659F900D1124820F931FFC0104
:1052D000208131818C81482F50E06BE0649FC001B8
:1052E000659F900D1124820F931FFC0182819D8187
:1052F000981718F481E090E002C080E090E0898384
:1053000089810F900F900F900F900F90DF91CF91A8
:105310000895CF93DF9300D000D000D0CDB7DEB793
:105320008C836D832E833F834887598719828D81B3
:10533000882F90E09B838A838C818F3F41F48A8100
:105340009B818F3F910509F010F481E08983898169
:1053500029960FB6F894DEBF0FBECDBFDF91CF9177
:105360000895CF93DF931F92CDB7DEB789838981EC
:10537000882F90E08F7E21E0892B09F020E0822F9A
:105380000F90DF91CF910895CF93DF931F921F92DB
:10539000CDB7DEB78A8319828A81882331F08A816A
:1053A000813019F08A81823011F481E0898389810A
:1053B0000F900F90DF91CF910895CF93DF931F92BD
:1053C0001F92CDB7DEB78A8319828A81882331F094
:1053D0008A81813019F08A81823011F481E08983D9
:1053E00089810F900F90DF91CF910895CF93DF9334
:1053F000CDB7DEB781E0DF91CF910895CF93DF93F2
:1054000000D0CDB7DEB79B838A832091C303309150
:10541000C4034A815B8163E1649FC001659F900D75
:105420001124820F931FFC0183858230D9F42091CF
:10543000C3033091C4034A815B8163E1649FC0016F
:10544000659F900D1124820F931FFC0125813681E9
:1054500080911D0290911E022817390719F081E0F2
:1054600090E002C080E090E089838981882339F050
:105470008A819B81892B19F481E090E002C080E051
:1054800090E0898389810F900F900F90DF91CF91E9
:105490000895CF93DF93CDB7DEB72C970FB6F8946E
:1054A000DEBF0FBECDBF9C878B8718861F821A82F6
:1054B00019821C821B821C821B824EC08B859C859C
:1054C000FC01208131814B815C816BE0649FC001D4
:1054D000659F900D1124820F931FFC01438154811D
:1054E0008B859C85FC0125853685429FC001439FA5
:1054F000900D529F900D112401969E838D831A86E4
:1055000019868B819C81892B79F48B859C85FC0184
:105510008781882F90E080719927892B29F08D81D0
:105520009E8104969E838D838D819E8161E070E0D3
:105530000E94D4479A87898729853A8589819A81EB
:105540008217930720F489859A859A8389838B81B2
:105550009C8101969C838B838B859C85FC01828139
:10556000882F90E02B813C81281739070CF4A6CFB7
:105570008B859C85AC014F5E5F4F8B859C85FC01C4
:105580008281282F30E0C901880F991F820F931F55
:105590009C0189819A81B9010E94474C98878F8329
:1055A0008F819885892B39F08B859C852FEF3FEF74
:1055B000FC01328B218B8F8198852C960FB6F89445
:1055C000DEBF0FBECDBFDF91CF910895CF93DF93A4
:1055D0001F921F92CDB7DEB79A83898389819A8102
:1055E000FC0181899289019639F089819A81FC01B7
:1055F000818992890E94E94D89819A812FEF3FEF3D
:10560000FC01328B218B00000F900F90DF91CF9126
:105610000895CF93DF93CDB7DEB761970FB6F894B7
:10562000DEBF0FBECDBF9D878C877F876E87598B6E
:10563000488B1A8219822C853D858E859F85820F25
:10564000931F9C838B838B819C819E838D838D8113
:105650009E81FC018281938198878F838D819E81B9
:10566000FC01848189878D819E81FC0185818A87E7
:105670001B868F8198854A856985B6DD8B878B85EA
:10568000882351F48889998922E030E0FC01318334
:1056900020838EEF9FEF2BC08F81988542DD982F5E
:1056A00081E0992309F080E08B878B85882351F472
:1056B0008889998922E030E0FC013183208388EFDA
:1056C0009FEF15C08F81988590931A0280931902DD
:1056D000898580931B028A8580931C028889998919
:1056E00021E030E0FC013183208389819A81619639
:1056F0000FB6F894DEBF0FBECDBFDF91CF910895F6
:10570000CF93DF93CDB7DEB763970FB6F894DEBFC4
:105710000FBECDBF9F878E87798B688B5B8B4A8B43
:105720001A8219822E853F8588899989820F931F55
:105730009C838B838B819C819E838D8380911902B6
:1057400090911A0298878F8380911B02898780919C
:105750001C028A871C861B861D868F8198854A8538
:10576000698542DD8D878D85882351F48A899B89DF
:1057700022E030E0FC01318320838AEF9FEF9AC062
:105780008F819885CEDC982F81E0992309F080E005
:105790008D878D85882351F48A899B8922E030E0AA
:1057A000FC013183208388EF9FEF84C08D819E812F
:1057B000FC0184819581A681B7812D813E81F9010B
:1057C00062812D813E81F90171819C01AD01872F9C
:1057D000A0DD8D878D85882351F48A899B8922E0FD
:1057E00030E0FC01318320838EEF9FEF63C0209176
:1057F000C3033091C4034F81588563E1649FC001A6
:10580000659F900D1124820F931FFC01208131812F
:105810008985482F50E06BE0649FC001659F900D23
:105820001124820F931FFC01408151818A85282F0A
:1058300030E0C901880F991F880F991F880F991FA1
:10584000821B930B840F951F9C878B878D819E8174
:10585000FC0121818B859C85FC0120838D819E81AB
:10586000FC0122818B859C85FC0121838D819E8199
:10587000FC0123818B859C85FC0122838D819E8187
:10588000FC0184819581A681B7812B853C85F90136
:1058900083839483A583B68380911C028F5F80935A
:1058A0001C028A899B8921E030E0FC01318320833E
:1058B00089819A8163960FB6F894DEBF0FBECDBF83
:1058C000DF91CF910895CF93DF93CDB7DEB72F97B8
:1058D0000FB6F894DEBF0FBECDBF9B878A877D874A
:1058E0006C875F874E871A8219822A853B858C8553
:1058F0009D85820F931F9C838B838B819C819E83CC
:105900008D8318861F8219868091C3039091C403EA
:10591000892B79F08D819E81FC01228133818091D8
:10592000C5039091C6032817390718F481E090E069
:1059300002C080E090E089878985882351F48E85B4
:105940009F8522E030E0FC01318320838EEF9FEFC2
:10595000A3C02091C3033091C4038D819E81FC01BB
:105960004281538163E1649FC001659F900D1124C2
:10597000820F931F98878F838D819E81FC01828186
:105980009381CFDB982F81E0992309F080E089870C
:105990008985882351F48E859F8522E030E0FC01C3
:1059A0003183208388EF9FEF77C08D819E81FC013A
:1059B0008481958121E08038910508F020E02987D5
:1059C0008985882351F48E859F8522E030E0FC0193
:1059D000318320838EEF9FEF5FC08D819E81FC011C
:1059E000978181E0992309F080E089878985882360
:1059F00051F48E859F8522E030E0FC0131832083C5
:105A00008EEF9FEF49C08D819E81FC018181A9DCD1
:105A100089878985882351F48E859F8522E030E02F
:105A2000FC013183208386EF9FEF36C08D819E81FC
:105A3000FC0121818F819885FC0127838D819E81C6
:105A4000FC01248135818F819885FC013683258373
:105A50008D819E81FC0126818F819885FC012087A4
:105A60008D819E81FC0127818F819885FC01218792
:105A70008F819885FC018085823028F48F819885FC
:105A800021E0FC0120878E859F8521E030E0FC012C
:105A90003183208389819A812F960FB6F894DEBFD7
:105AA0000FBECDBFDF91CF9108950F931F93CF937A
:105AB000DF93CDB7DEB76C970FB6F894DEBF0FBE9D
:105AC000CDBF988F8F8B7A8F698F5C8F4B8F1B86A2
:105AD0001A862F89388D898D9A8D820F931F9D8705
